:020000040800F2
:10000000E41D00205D220008C9220008C922000862
:10001000C9220008C9220008C92200080000000007
:10002000000000000000000000000000C9220008DD
:10003000C922000800000000C9220008C9220008E7
:10004000C9220008C9220008C9220008C9220008E4
:10005000C9220008C9220008C9220008C9220008D4
:10006000C9220008C9220008C9220008C9220008C4
:10007000C9220008C9220008C9220008C9220008B4
:10008000C9220008C9220008C9220008C9220008A4
:10009000C9220008C9220008C9220008C922000894
:1000A000C9220008C9220008C9220008C922000884
:1000B000C9220008C9220008C9220008C922000874
:1000C000C9220008C9220008C9220008C922000864
:1000D000C9220008C9220008C9220008C922000854
:1000E000C9220008C9220008C9220008C922000844
:1000F000C9220008C9220008C9220008C922000834
:10010000C9220008C9220008C9220008C922000823
:10011000C9220008C9220008C9220008C922000813
:10012000C9220008C9220008C9220008C922000803
:10013000C9220008C9220008C9220008C9220008F3
:10014000C9220008C9220008C9220008954E0008EB
:10015000C9220008C9220008C9220008C9220008D3
:10016000C9220008C9220008C9220008C9220008C3
:10017000C9220008C9220008C9220008C9220008B3
:10018000C9220008C922000880B485B000AF786099
:100190004FF00003FB607B68DB684FF0FF325A6072
:1001A0007B68DB684FF0FF325A61FB6843F0004325
:1001B000FB60FB6843F40063FB607B68DB68FA6804
:1001C0009A6107F11407BD4680BC704780B586B0C0
:1001D00000AF78604FF00003FB744FF000037B61C9
:1001E0004FF00003FB604FF0030004F017FE7B6844
:1001F000DB681B69FB607B6903F101037B617A6942
:100200004FF45463C0F203039A4202D94FF0000343
:100210002AE0FB6803F00043002BE4D04FF000031A
:100220007B61FB6843F00103FB607B68DB68FA6875
:100230001A617B68DB681B69FB607B6903F1010362
:100240007B617A694FF45463C0F203039A4205D884
:10025000FB6803F00103002BEBD100E000BF4FF07F
:10026000030004F0DBFDFB7C184607F11807BD46D0
:1002700080BD00BF80B489B000AFF860B960FA718A
:10028000BB804FF00003FB76FB68DB78002B2CD1A2
:100290004FF000037B614FF00003FB61BB8803F16B
:1002A0000303002B01DA03F103034FEAA3037B618D
:1002B000FB79FA6803F132034FEA8303D3189B6892
:1002C0003B614FF00003FB610BE0BB681A683B69C0
:1002D0001A60FB6903F10103FB61BB6803F10403CE
:1002E000BB60FA697B699A42EFD3FB7E184607F13F
:1002F0002407BD4680BC704780B489B000AFF86069
:10030000B9601346FB804FF00003FB61FB8803F1EB
:100310000303002B01DA03F103034FEAA303BB61DC
:10032000FB68D3F8D0307B614FF00003FB610BE03A
:100330007B691A68BB681A60FB6903F10103FB6102
:10034000BB6803F10403BB60FA69BB699A42EFD34F
:10035000BB68184607F12407BD4680BC704700BF44
:1003600080B487B000AF78600B46FB704FF000039D
:100370003B614FF00003FB737B684FF00002DA70C3
:100380007B684FF001029A707B684FF040029A80C0
:10039000FB78012B17D14FF0A0433B617B684FF0F6
:1003A0000102DA727B684FF008021A707B684FF026
:1003B00004025A707B684FF4A072DA807B684FF0B9
:1003C00002021A7217E0FB78002B14D14FF00003E1
:1003D000C4F204033B617B684FF00002DA727B6871
:1003E0004FF00C021A707B684FF006025A707B685F
:1003F0004FF4A062DA803A697B68DA603B6903F502
:1004000000631A467B681A614FF000037B6123E0AA
:100410007B694FEA43123B69D31803F510631A4610
:1004200079687B6903F104034FEA8303CB189A6070
:100430007B694FEA43123B69D31803F530631A46D0
:1004400079687B6903F114034FEA8303CB185A6080
:100450007B6903F101037B617B685B781A467B69EA
:100460009A42D5D83B6903F580631A467B685A6186
:100470003B6903F588631A467B68C3F8CC204FF0CC
:1004800000037B6113E07B694FEA43123B69D31899
:1004900003F5A0631A4679687B6903F122034FEAEA
:1004A0008303CB189A607B6903F101037B617B684E
:1004B0001B781A467B699A42E5D84FF000037B61AE
:1004C00013E07B694FEA03323B69D31803F580538D
:1004D0001A4679687B6903F132034FEA8303CB182C
:1004E0009A607B6903F101037B617B681B781A4684
:1004F0007B699A42E5D83B6903F560631A467B68DD
:10050000C3F80C21FB7B184607F11C07BD4680BCD5
:10051000704700BF80B588B000AF78604FF000032F
:10052000FB774FF00003BB614FF000037B614FF09E
:100530000003FB607B681B7A012B51D17B68DB6871
:100540009B6B7B617B696FF310437B617B685B7A9C
:10055000002B03D07B6943F480137B617B68DB68ED
:100560007A699A634FF00003BB617B68DB68DB68E4
:10057000BB61BB696FF38613BB61BB696FF39653B5
:10058000BB61BB6943F01003BB61BB696FF3C3037D
:10059000BB61BB696FF3C713BB61BB696FF35143A9
:1005A000BB61BB696FF3D343BB617B68DB68BA692E
:1005B000DA607868FFF70AFE7B68DB78012B40F091
:1005C0008980FB684FF0050262F34403FB60FB681F
:1005D00043F02003FB607B68DB68FA689A6079E08F
:1005E0007B68DB68DB68BB61BB6943F04003BB61D0
:1005F0007B68DB68BA69DA607868FFF7E7FD4FF07F
:1006000000037B617B6943F480337B617B681B7AE9
:10061000032B03D17B6943F400337B617B6943F493
:1006200080237B617B6943F400237B617B6943F416
:1006300000137B617B685B7A002B03D07B6943F4FA
:1006400080137B617B68DB687A699A634FF01400E2
:1006500004F010FC7B68DB68DB68BB617B681B7A9D
:10066000032B03D1BB6943F48033BB617B68DB6838
:10067000BA69DA607B681B7A032B2BD17B68DB6855
:100680001B6B3B613B694FF0010262F39B633B6173
:100690003B696FF3D7533B613B6943F080533B6148
:1006A0003B694FF02D0262F316433B617B68DB68C8
:1006B0003A691A634FF0C80004F0DCFB3B6943F46D
:1006C00000033B617B68DB683A691A634FF0C8003E
:1006D00004F0D0FB7B68DB78012B11D17B68DB68F1
:1006E0009B68FB60FB684FF0050262F34403FB600C
:1006F000FB6843F02003FB607B68DB68FA689A6064
:10070000FB7F184607F12007BD4680BD80B485B049
:1007100000AF78604FF00003FB734FF00003BB6045
:10072000BB6843F00103BB607B68DB687A68D26812
:100730009168BA680A439A60FB7B184607F1140770
:10074000BD4680BC704700BF80B485B000AF786004
:100750004FF00003FB734FF00003BB60BB6843F036
:100760000103BB607B68DB687A68D2689168BA680D
:100770006FEA02020A409A60FB7B184607F11407F1
:10078000BD4680BC704700BF80B586B000AF7860C2
:1007900039604FF00003FB744FF000037B614FF0B2
:1007A0000003FB60FB6843F02003FB603B68DBB2A7
:1007B00003F01F03DAB2FB6862F38A13FB607B6805
:1007C000DB68FA681A617B68DB681B69FB607B6920
:1007D00003F101037B617A694FF45463C0F20303B0
:1007E0009A4205D8FB6803F02003002BEBD100E010
:1007F00000BF4FF0030004F011FBFB7C184607F12B
:100800001807BD4680BD00BF80B586B000AF7860D8
:100810004FF00003FB744FF000037B614FF00003C7
:10082000FB60FB6843F01003FB607B68DB68FA68E1
:100830001A617B68DB681B69FB607B6903F101035C
:100840007B617A694FF45463C0F203039A4205D87E
:10085000FB6803F01003002BEBD100E000BF4FF06A
:10086000030004F0DBFAFB7C184607F11807BD46CD
:1008700080BD00BF80B584B000AF78600B46FB70D0
:100880004FF00003FB737B68DB68DB68BB60BB6811
:100890006FF35D73BB60BB686FF39E73BB60FB78E7
:1008A000012B04D1BB6843F00053BB6006E0FB782A
:1008B000002B03D1BB6843F08043BB607B68DB68DF
:1008C000BA68DA604FF0320004F0D4FAFB7B1846C5
:1008D00007F11007BD4680BD80B483B000AF7860DB
:1008E0007B68DB685B6903F00103184607F10C07BE
:1008F000BD4680BC704700BF80B582B000AF786055
:100900007868FFF7E9FF0346012B14BF002301239A
:10091000DBB2184607F10807BD4680BD80B485B03C
:1009200000AF78604FF00003FB607B68DB685B69B9
:10093000FB607B68DB689B69FA681340FB60FB68BF
:10094000184607F11407BD4680BC704780B588B0D3
:1009500000AF78604FF00003FB764FF00003FB61BF
:100960004FF000037B614FF000033B614FF0000349
:10097000FB60786804F020FA7B68D3F80C314FF004
:1009800000021A6078684FF0010100F00BF97B68F3
:100990005B691B68FB603B7B6FF382033B737B6887
:1009A0005B69FA681A607B68DB7A012B25D17B686A
:1009B000DB684FF080025A627B694FF0800262F37D
:1009C0000F037B617B694FF0600262F31F437B6121
:1009D0007B68DB687A699A623B694FF0E00262F3F8
:1009E0000F033B613B694FF0600262F31F433B61C1
:1009F0007B68DB683A69C3F8002178684FF0100122
:100A0000FFF7C2FE7868FFF7FFFE4FF00003FB61BF
:100A100019E07A68FB6903F122034FEA8303D318D4
:100A20009B684FF0FF329A607A68FB6903F12203FA
:100A30004FEA8303D3189B684FF00002DA60FB692A
:100A400003F10103FB617B681B781A46FB699A423C
:100A5000DFD878684FF0010100F01EF8786800F0E8
:100A60005BF8FB7E184607F12007BD4680BD00BF3E
:100A700080B483B000AF78607B685B699B6803F0EB
:100A80000103002B14BF00230123DBB2184607F13A
:100A90000C07BD4680BC704780B584B000AF78605D
:100AA0000B46FB704FF00003FB60FB78786819463B
:100AB00004F064F9786800F091F80346FB607B7BF2
:100AC00003F01003DBB2002B0BD1FB78012B08D114
:100AD000FB6843F48053FB607B68D3F8CC30FA6842
:100AE0001A607B7B03F01003DBB2002B0BD0FB788A
:100AF000002B08D1FB686FF30C33FB607B68D3F8E5
:100B0000CC30FA681A604FF0C80004F0B3F907F16E
:100B10001007BD4680BD00BF80B584B000AF7860CF
:100B20004FF00003FB734FF00003BB607B68DB6892
:100B30004FF000029A617B68DB684FF0FF325A6128
:100B40007868FFF721FB7B68DB78002B03D1BB685B
:100B500043F01003BB60BB6843F08073BB60BB68AD
:100B600043F00073BB60BB6843F00053BB60BB68DD
:100B700043F00803BB60BB6843F40013BB607B68B1
:100B8000DB687A68D2689169BA686FEA020211403C
:100B9000BA680A439A61FB7B184607F11007BD4605
:100BA00080BD00BF80B485B000AF78600B46FB709D
:100BB0007B685B691B68FB60FB7803F00303DAB2B8
:100BC0003B7B62F301033B737B685B69FA681A60E5
:100BD00007F11407BD4680BC704700BF80B485B0E4
:100BE00000AF78607B68D3F8CC301B68FB60FB6893
:100BF0006FF38203FB60FB686FF34103FB60FB68EC
:100C00006FF3C303FB60FB686FF34513FB60FB6886
:100C1000184607F11407BD4680BC704780B483B006
:100C200000AF78607B685B695B69184607F10C0769
:100C3000BD4680BC704700BF80B584B000AF78600F
:100C40007868FFF7CBFF0346FB60FB6843F48073D3
:100C5000FB607B68D3F8CC30FA681A604FF00A006A
:100C600004F008F9FB686FF30823FB607B68D3F896
:100C7000CC30FA681A604FF0140004F0FBF84FF023
:100C80000103184607F11007BD4680BD80B489B046
:100C900000AF78600B46FB704FF00003FB774FF01E
:100CA0000003BB614FF000033B614FF000037B6129
:100CB0004FF00003FB604FF0FF33BB60FB787A68B6
:100CC00003F122034FEA8303D3189B68BA689A6042
:100CD0004FF000037B617B68DB78012B03D17B69DC
:100CE00043F004037B61FB787A684FEA4313D3181F
:100CF00003F52A735B7A032B00F28D8001A252F870
:100D000023F000BF150D0008CF0D0008150D0008D9
:100D1000810D00087B6943F001037B617B6943F02F
:100D200008037B617B6943F080037B617B6943F44B
:100D300080637B617B6943F010037B61FB787A6899
:100D40004FEA4313D31803F52A739B79002B04D081
:100D50007B6943F480737B6158E07B6943F0400317
:100D60007B61FB787A684FEA4313D31803F52A7343
:100D70001B7A002B4AD07B6943F020037B6145E05E
:100D80007B6943F001037B617B6943F010037B6166
:100D90007B6943F008037B617B6943F080037B61DF
:100DA0007B6943F480637B617B6943F400737B61FF
:100DB000FB787A684FEA4313D31803F52A739B79BB
:100DC000002B25D07B6943F480737B6120E07B6935
:100DD00043F001037B617B6943F400737B617B69B2
:100DE00043F020037B61FB787A684FEA4313D31802
:100DF00003F52A739B79002B0CD07B6943F08003A9
:100E00007B617B6943F480737B6103E000BF02E098
:100E100000BF00E000BFFB787A6803F122034FEACD
:100E20008303D3189B687A69DA60FB784FF001027C
:100E300002FA03F3BB617B685B697A685269916966
:100E4000BA690A439A613B6943F000733B617B686E
:100E5000DB687A68D26891693A690A439A614FF00F
:100E60000003FB60FB787A684FEA4313D31803F55D
:100E70002A731B7903F07F03DAB2FB6862F39C5399
:100E8000FB60FB787A684FEA4313D31803F52A73A3
:100E90005B7903F00F03DAB2FB6862F3CE23FB60E9
:100EA000FB787A684FEA4313D31803F52A739B79CA
:100EB00003F00103DAB2FB6862F3CF33FB60FB7827
:100EC0007A684FEA4313D31803F52A73DB79022BB0
:100ED00014BF00230123DAB2FB6862F35143FB60C5
:100EE000FB787A684FEA4313D31803F52A735B7AC9
:100EF00003F00303DAB2FB6862F39343FB60FB7811
:100F00007A684FEA4313D31803F52A735B894FEAD3
:100F100043534FEA53539AB2FB6862F30A03FB60F0
:100F2000FB787A684FEA4313D31803F52A735B7A88
:100F3000032B03D1FB6843F00053FB60FB787A6816
:100F400003F122034FEA8303D3189B68FA681A60FF
:100F5000FB7F184607F12407BD4680BC704700BFE1
:100F600080B58AB000AF78600B46FB704FF000038D
:100F700087F825304FF000037B844FF480733B8467
:100F80004FF00003BB614FF00003FB614FF0000323
:100F9000FB60FB787A684FEA4313D31803F52F738D
:100FA0001B68002B37D0FB787A684FEA4313D318BD
:100FB00003F52F731A68FB7879684FEA4313CB184F
:100FC00003F52A735B89D31803F1FF32FB78796844
:100FD0004FEA4313CB1803F52A735B89B2FBF3F393
:100FE000FB84FA8C3B8C9A4218D93B8CFB84FB78AF
:100FF000FA8CF97878684FEA4111411801F52A71A5
:10100000498901FB02F279684FEA4313CB1803F5D3
:101010002F731A6002E04FF00103FB84FB787A68BB
:101020004FEA4313D31803F52A739B79002B12D090
:10103000FB78FA8CF97878684FEA4111411801F58C
:101040002A71498901FB02F279684FEA4313CB18F0
:1010500003F52F731A60FB787A684FEA4313D318AD
:1010600003F52F731B6823F07F4222F47802BB69DB
:1010700062F31203BB61FB8C4FEA83534FEA935335
:101080009AB2BB6962F3DC43BB61FB787A6803F117
:101090000D034FEA4313D31803F588731B7903F04C
:1010A0000303DAB2BB6962F35E73BB61FB787A68F3
:1010B00003F122034FEA8303D3189B68BA691A61CC
:1010C0007B68DB78012B12D1FB787A6803F122036D
:1010D0004FEA8303D3189B68FA78796802F10D020E
:1010E0004FEA42128A1802F58C7212685A61FB7834
:1010F0007A6803F122034FEA8303D3189B681B68C5
:10110000FB617868FFF7B4FC034603F00103DAB231
:10111000FB6962F35D73FB61FB6943F00043FB61B4
:10112000FB696FF39E73FB61FB787A6803F122031E
:101130004FEA8303D3189B68FA691A607B68DB78EF
:10114000002B40F08980FB787A684FEA4313D3186C
:1011500003F52A739B79002B7ED1FB787A684FEADE
:101160004313D31803F52F731B68002B74D0FB783F
:101170007A684FEA4313D31803F52A735B7A032B7B
:101180004ED801A252F823F099110008DD11000891
:1011900099110008DD1100087B68DB68DB6A7B6160
:1011A000FB787A684FEA4313D31803F52F731B6853
:1011B00003F103034FEA93037B84BB8A7A8C9A4240
:1011C00030D9FB6843F02003FB607B68DB687A68FA
:1011D000D2689169FA680A439A6123E07B685B6987
:1011E0001B693B61FB787A684FEA4313D31803F518
:1011F0002F731B6803F103034FEA93037B843B8A3D
:101200007A8C9A4210D9FB6843F08063FB607B685C
:10121000DB687A68D2689169FA680A439A6103E0E8
:1012200000BF02E000BF00E000BFFB787A6803F176
:101230000D034FEA4313D31803F58C731968FB7839
:101240007A684FEA4313D31803F52F731B689BB2D8
:10125000FA787868FFF70EF897F82530184607F106
:101260002807BD4680BD00BF80B487B000AF78605E
:101270000B46FB704FF00003FB754FF000033B6122
:101280004FF00003FB60FB787A6803F122034FEA1A
:101290008303D3189B681B68BB60BB6843F00043A3
:1012A000BB60BB6843F08043BB60BB7A03F00C03B8
:1012B000DBB2002B05D0BB7A03F00C03DBB2082BAA
:1012C0000BD17B68DB68DB6A3B61BB7C002B0FD1F9
:1012D000BB686FF3DF73BB600AE07B685B691B6907
:1012E000FB60BB7B002B03D1BB686FF3DF73BB607C
:1012F000FB787A6803F122034FEA8303D3189B68D3
:10130000BA681A60FB7D184607F11C07BD4680BC11
:10131000704700BF80B487B000AF78600B46FB70A9
:101320004FF00003FB754FF00003FB60FB6843F0D8
:101330000043FB60FB684FF0010262F3DC43FB609B
:10134000FB787A6803F122034FEA8303D3189B6882
:10135000FA681A61FB787A6803F122034FEA830383
:10136000D3189B681B683B613B6943F000433B61BA
:101370003B696FF39E733B61FB787A6803F122034C
:101380004FEA8303D3189B683A691A60FB7D1846BD
:1013900007F11C07BD4680BC704700BF80B582B016
:1013A00002AF40F20C53C2F200034FF001021A7078
:1013B00040F27003C2F20003009340F21050C2F2F8
:1013C00000004FF0010140F6C012C2F2000240F2EC
:1013D0005003C2F2000301F07BFCBD4680BD00BF9C
:1013E00080B500AF40F20C53C2F200031B78032B10
:1013F00009D040F21050C2F2000040F6C011C2F213
:10140000000101F0DDFC40F20C53C2F200031B7836
:10141000184680BD80B582B000AF7860F970BA70B0
:101420007B70F878FB787A6803F511734FEA430311
:10143000D3189B88DBB203F07F03DAB279684FEAF6
:101440004013CB1803F52A735A71F878FB787A6841
:1014500003F511734FEA4303D3189B8803F080030D
:10146000002B0CBF00230123DBB21A4679684FEA38
:101470004013CB1803F52A739A71FB787A684FEA08
:101480004313D31803F52A73BA781A71FB787A6874
:101490004FEA4313D31803F52A733A7C5A72FB7848
:1014A0007A684FEA4313D31803F52A73BA8A5A812C
:1014B000FB787A684FEA4313D31803F52A737A78D6
:1014C000DA71FB787A6803F116034FEA4313D318F5
:1014D0004FF000021A71FB787A6803F116034FEAA5
:1014E0004313D3184FF000025A717B78002B09D1B7
:1014F000FB787A684FEA4313D31803F52A734FF049
:1015000001021A72FB7878681946FFF7BFFB4FF0AB
:101510000003184607F10807BD4680BD80B582B0BC
:1015200000AF7860F970BA707B70BB78002B08D080
:10153000FB787A684FEA4313D31803F52A73BA7815
:101540001A71FB787A684FEA4313D31803F52A73AC
:101550005B89BA8A9A420BD0BB8A002B08D0FB78F1
:101560007A684FEA4313D31803F52A73BA8A5A816B
:10157000FB787A684FEA4313D31803F52A73DB79B3
:101580007A789A420BD07B78002B08D0FB787A6867
:101590004FEA4313D31803F52A737A78DA71FB788C
:1015A00078681946FFF772FB4FF00003184607F101
:1015B0000807BD4680BD00BF80B584B000AF78602D
:1015C0000B46FB70786800F065F80346FB81FA89EA
:1015D0004FF6FF739A420ED0F889FB789BB26FEA00
:1015E00043436FEA53439AB2796800F511734FEAA7
:1015F0004303CB189A80FB89DBB2184607F110072A
:10160000BD4680BD80B483B000AF78600B46FB70F0
:10161000FB78072B14D8F878FB787A6803F51173F8
:101620004FEA4303D3189B884FEA43434FEA53439F
:101630009AB2796800F511734FEA4303CB189A8088
:101640004FF00003184607F10C07BD4680BC7047F9
:1016500080B485B000AF78604FF00203FB730DE0FB
:10166000FB7B7A6803F511734FEA4303D3184FF0FD
:1016700000029A80FB7B03F10103FB73FB7B072BCA
:10168000EED94FF00003184607F11407BD4680BCA1
:10169000704700BF80B485B000AF78604FF00003A2
:1016A000FB734FF00003FB7312E0FB7B7A6803F5DA
:1016B00011734FEA4303D3189B889BB21BB2002BD4
:1016C00002DBFB7B9BB208E0FB7B03F10103FB73B6
:1016D000FB7B072BE9D94FF6FF73184607F1140778
:1016E000BD4680BC704700BF80B588B002AFF860CF
:1016F000B9601346FB71FB6803F58872FB799BB2F6
:1017000000920193F868B9684FF000024FF48073BB
:1017100000F076F80346FB75FB7D002B0CD1BB680F
:1017200003F12201FB6803F58872FB799BB208463E
:1017300011461A4600F02AF9FB7D184607F11807F2
:10174000BD4680BD90B589B002AFF860B960134660
:10175000FB80FB6803F588730093FB880193F868AE
:10176000B9684FF000024FF4007300F049F80346E7
:10177000FB75FB7D002B0FD1BB6803F13400BB6808
:1017800003F13E01BB6803F15002FB6803F5887367
:10179000FC88009400F072F9FB7D184607F11C07E5
:1017A000BD4690BD80B588B002AFF860B9603B60BF
:1017B0001346FB71FB799BB243F440739BB2FA680A
:1017C00002F5887200923A8C0192F868B9684FF07D
:1017D000000200F015F80346FB75FB7D002B08D1D5
:1017E000FB6803F588723B8C104639681A4600F096
:1017F00051FAFB7D184607F11807BD4680BD00BFB2
:1018000080B584B000AFF860B960FA71BB80FB7935
:1018100063F07F03DAB2BB681A75BB684FF006024B
:101820005A75BB68BA88DA82BB8803F47F43B3F584
:10183000407F04D1BB6840F209421A8303E0BB68D1
:101840004FF000021A83BB68BA8B5A83BB8BF868CF
:10185000B968BA6906F05AFB0346184607F1100743
:10186000BD4680BD80B584B000AFF860B960134656
:10187000FB71BB684FF000021A75BB684FF00502A0
:101880005A75FB799AB2BB68DA82BB684FF00002E6
:101890001A83BB684FF000025A83F868B9684FF0AA
:1018A00000024FF0000306F031FB0346184607F133
:1018B0001007BD4680BD00BF80B584B000AFF860A2
:1018C000B9601346FB80BB684FF000021A75BB6815
:1018D0004FF009025A75BB68FA88DA82BB684FF08C
:1018E00000021A83BB684FF000025A83F868B96897
:1018F0004FF000024FF0000306F008FB03461846C5
:1019000007F11007BD4680BD80B584B000AFF86018
:10191000B960FA71BB71BB684FF002021A75BB68FF
:101920004FF001025A75BB684FF00002DA82FB7972
:101930009AB2BB681A83BB684FF000025A83FB79E6
:101940005BB2002B0ADABB79FA6803F116034FEA9F
:101950004313D3184FF000021A7109E0BB79FA68FB
:1019600003F116034FEA4313D3184FF000025A71E4
:10197000F868B9684FF000024FF0000306F0C6FAAD
:101980000346184607F11007BD4680BD80B485B0F8
:1019900000AFF860B9601346FB80BB681A78FB683B
:1019A0001A70BB685A78FB685A70BB6803F102036F
:1019B0001B781A46BB6803F103031B784FEA032325
:1019C0009BB2D3189AB2FB685A80BB681A79FB683D
:1019D0001A71BB685A79FB685A71BB689A79FB68BF
:1019E0009A71BB68DA79FB68DA71FB88082B3FD9FA
:1019F000BB6803F108031B781A46BB6803F10903AF
:101A00001B784FEA03239BB2D3189AB2FB681A8162
:101A1000BB6803F10A031B781A46BB6803F10B038A
:101A20001B784FEA03239BB2D3189AB2FB685A8102
:101A3000BB6803F10C031B781A46BB6803F10D0366
:101A40001B784FEA03239BB2D3189AB2FB689A81A2
:101A5000BB689A7BFB689A73BB68DA7BFB68DA73B6
:101A6000BB681A7CFB681A74BB685A7CFB685A74A2
:101A700007F11407BD4680BC704700BF80B58AB02F
:101A800000AFF860B9607A603B603B687B623B689E
:101A90007B623B681A78FB681A703B685A78FB686F
:101AA0005A703B6803F102031B781A463B6803F146
:101AB00003031B784FEA03239BB2D3189AB2FB6847
:101AC0005A803B681A79FB681A713B685A79FB683F
:101AD0005A713B689A79FB689A713B68DA79FB68BE
:101AE000DA713B681A7AFB681A723B8E092B71D93E
:101AF0004FF00903FB82FB681B79022B6AD84FF079
:101B0000000387F823304FF00003FB61FB681B796B
:101B1000022B5FD858E007F11603786A194600F0E7
:101B2000F3F878627B6A5B78042B46D197F923201F
:101B300013464FEAC3039B18BA68D318FB61F869D0
:101B4000796A00F04BF84FF0000387F82230FB6908
:101B50001B79022B2AD823E007F11603786A19466D
:101B600000F0D2F878627B6A5B78052B11D197F987
:101B700022304FEAC3037A68D318BB61B869796A27
:101B800000F05AF897F8223003F1010387F8223069
:101B900006E07B6A1B781A46FB8AD3189BB2FB824D
:101BA00097F92220FB691B799A42D5DB97F82330FD
:101BB00003F1010387F8233006E07B6A1B781A469D
:101BC000FB8AD3189BB2FB8297F92320FB681B7911
:101BD0009A42A0DB07F12807BD4680BD80B483B0E0
:101BE00000AF786039603B681A787B681A703B6890
:101BF0005A787B685A703B689A787B689A703B6821
:101C0000DA787B68DA703B681A797B681A713B680E
:101C10005A797B685A713B689A797B689A713B68FC
:101C2000DA797B68DA713B681A7A7B681A7207F195
:101C30000C07BD4680BC704780B483B000AF7860AD
:101C400039603B681A787B681A703B685A787B6801
:101C50005A703B689A787B689A703B68DA787B6840
:101C6000DA703B6803F104031B781A463B6803F102
:101C700005031B784FEA03239BB2D3189AB27B6803
:101C80009A803B689A797B689A7107F10C07BD4688
:101C900080BC704780B487B000AFF860B96013466D
:101CA000FB80FB6803F101031B78032B26D1FB6843
:101CB0001B78A3F10202FB889A42B8BF1346BB828D
:101CC000FB6803F10203FB604FF00003FB820DE0B1
:101CD000FB8AFA68D3181A78BB681A70BB6803F1DC
:101CE0000103BB60FB8A03F10203FB82FA8ABB8A11
:101CF0009A42EDD3BB684FF000021A7007F11C073F
:101D0000BD4680BC704700BF80B485B000AF78602E
:101D100039603B681A887B681B78D3189AB23B6895
:101D20001A807B681B787A68D318FB60FB681846BA
:101D300007F11407BD4680BC704700BF80B596B060
:101D400000AF4FF0000387F8573049F69C03C0F608
:101D50000003FB6402F01AFD00F0BAFAFFF71EFB65
:101D600040F64463C2F20003FB634FF400733B642C
:101D70004FF000033B656AE0FFF732FB0346062B9A
:101D800059D14FF0000000F03FFB4FF0020000F08F
:101D900011FB97F85730002B43D14FF0010387F820
:101DA00057304FF0010000F02FFB4FF0000000F023
:101DB0005BFB0346002B30D13B461846F96C05F01F
:101DC0007FF9034687F84B3097F84B30002B20D132
:101DD0003A4607F124031046194605F0E1F9034697
:101DE00087F84B3097F84B30002B12D197F82D30F5
:101DF000002B0ED0FB6B1B78002B01D0FB6B03E09C
:101E000007F1240303F109037B64786C05F0FCFA05
:101E1000DEE74FF0000000F067FB4FF0010000F03C
:101E2000C9FA4FF0030000F0EFFA44F64133C0F274
:101E30004C033B650BE04FF0000000F0BBFA4FF0A5
:101E4000020000F0E1FA3B6D03F101033B653A6DDE
:101E500044F63F33C0F24C039A428DD907F158073C
:101E6000BD4680BD80B582B000AF02F08FFC00F0AF
:101E70002FFA00F0B3FB00E000BF4FF0000000F0CD
:101E800099FA4FF0020000F095FA4FF0010000F0CF
:101E900091FA4FF0030000F08DFA4FF000037B60E1
:101EA00045E07B6803F101037B607B68012B07D170
:101EB0004FF0000000F0A8FA4FF0030000F07AFAAB
:101EC0007A6842F2A053C0F226039A4207D14FF03B
:101ED000010000F099FA4FF0000000F06BFA7A6808
:101EE00044F64033C0F24C039A4207D14FF002004F
:101EF00000F08AFA4FF0010000F05CFA7A6847F2CD
:101F0000E003C0F272039A4207D14FF0030000F0E1
:101F10007BFA4FF0020000F04DFA7A6849F28063D4
:101F2000C0F298039A4202D14FF000037B604FF059
:101F30000000C4F202004FF0010101F015FD03465C
:101F4000002BAED04FF0000000F034FA4FF002004A
:101F500000F030FA4FF0010000F02CFA4FF00300CF
:101F600000F028FA7A6842F29F53C0F226039A42A0
:101F700082D8FFF7E3FE7FE780B584B000AF034669
:101F8000FB71FB79012B13D0022B02D0002B1ED04A
:101F90002CE002F089FFB860BB68002B03D14FF042
:101FA0000003FB7302E04FF00103FB73FB7B1FE0B8
:101FB00001F0E8FBB860BB68002B03D14FF00003D1
:101FC000FB7302E04FF00103FB73FB7B10E001F0B9
:101FD00059FDB860BB68002B03D14FF00003FB73C1
:101FE00002E04FF00103FB73FB7B01E04FF00103C4
:101FF000184607F11007BD4680BD00BF80B584B00C
:1020000000AF0346FB71FB79012B13D0022B02D0EA
:10201000002B1ED02CE002F055FFB860BB68002BEF
:1020200003D14FF00003FB7302E04FF00303FB7397
:10203000FB7B1FE001F0B4FBB860BB68002B03D151
:102040004FF00003FB7302E04FF00303FB73FB7BD5
:1020500010E001F03BFDB860BB68002B03D14FF0EE
:102060000003FB7302E04FF00303FB73FB7B01E013
:102070004FF00103184607F11007BD4680BD00BFB1
:1020800080B586B000AFB9607A600246FA73BB7360
:10209000FB7B012B17D0022B02D0002B26D038E07F
:1020A000BB7BB86879681A4602F01AFF38613B6951
:1020B000002B03D14FF00003FB7502E04FF001034A
:1020C000FB75FB7D27E0BB7BB86879681A4601F099
:1020D00075FB38613B69002B03D14FF00003FB75A2
:1020E00002E04FF00103FB75FB7D14E0BB7BB86899
:1020F00079681A4601F00EFD38613B69002B03D167
:102100004FF00003FB7502E04FF00103FB75FB7D10
:1021100001E04FF00403184607F11807BD4680BDE3
:1021200080B586B000AFB9607A600246FA73BB73BF
:10213000FB7B012B17D0022B02D0002B26D038E0DE
:10214000BB7BB86879681A4602F0DCFE38613B69EF
:10215000002B03D14FF00003FB7502E04FF00103A9
:10216000FB75FB7D27E0BB7BB86879681A4601F0F8
:1021700037FB38613B69002B03D14FF00003FB753F
:1021800002E04FF00103FB75FB7D14E0BB7BB868F8
:1021900079681A4601F016FD38613B69002B03D1BE
:1021A0004FF00003FB7502E04FF00103FB75FB7D70
:1021B00001E04FF00403184607F11807BD4680BD43
:1021C00080B584B000AF0B463A600246FA71BB712D
:1021D000FB79012B16D0022B02D0002B24D035E046
:1021E000BB791846396802F09FFEB860BB68002BC7
:1021F00003D14FF00003FB7302E04FF00103FB73C8
:10220000FB7B25E0BB791846396801F0FBFAB86022
:10221000BB68002B03D14FF00003FB7302E04FF0CB
:102220000103FB73FB7B13E0BB791846396801F0AF
:1022300021FDB860BB68002B03D14FF00003FB7396
:1022400002E04FF00103FB73FB7B01E04FF004035E
:10225000184607F11007BD4680BD00BF80B582B0AB
:1022600000AF49F60C63C0F600037B6040F2000348
:10227000C2F200033B600BE07B681A683B681A609F
:102280003B6803F104033B607B6803F104037B605C
:102290003A6840F2B803C2F200039A42ECD308480D
:1022A00008494FF000028842B8BF40F8042BFFF6FF
:1022B000FAAF00F0D3F807F10807BD4680BD000073
:1022C000B8000020E815002080B400AFFEE700BF92
:1022D00080B584B000AF4FF00003FB7362E0F97B80
:1022E00040F20002C2F200020B464FEA83035B1881
:1022F0004FEA8303D31803F10C031B6818464FF011
:10230000010100F017F9F97B40F20002C2F200026D
:102310000B464FEA83035B184FEA8303D31803F19C
:1023200008031B887B604FF001033B724FF00003F2
:10233000BB724FF00103FB724FF002037B72F97B1B
:1023400040F20002C2F200020B464FEA83035B1820
:102350004FEA8303D31803F104031A6807F1040357
:102360001046194601F05EFAF97B40F20002C2F213
:1023700000020B464FEA83035B184FEA8303D3182E
:1023800003F110031B78002B04D1FB7B184600F0EF
:1023900011F803E0FB7B184600F036F8FB7B03F1F5
:1023A0000103FB73FB7B032B99D907F11007BD4693
:1023B00080BD00BF80B483B000AF0346FB71F979E4
:1023C00040F20002C2F200020B464FEA83035B18A0
:1023D0004FEA8303D31803F104031868F97940F234
:1023E0000002C2F200020B464FEA83035B184FEA79
:1023F0008303D31803F108031B88438307F10C07F9
:10240000BD4680BC704700BF80B483B000AF0346B8
:10241000FB71F97940F20002C2F200020B464FEA6A
:1024200083035B184FEA8303D31803F1040318688E
:10243000F97940F20002C2F200020B464FEA830330
:102440005B184FEA8303D31803F108031B88038347
:1024500007F10C07BD4680BC704700BF80B500AFD8
:10246000FFF700FD80BD00BF80B586B000AF03461A
:10247000FB714FF00203FB754FF01303BB75FB7943
:10248000002B09D14FF0000040F2B801C2F2000168
:1024900004F0E4FD0346BB75BB7D002B1BD1FB792B
:1024A000002B0DD107F1100207F10C0349F6A00033
:1024B000C0F6000011461A4604F0C4FE0346BB7580
:1024C000BB7D002B03D14FF00003FB7506E04FF0FE
:1024D0000303FB7502E04FF00203FB75FB7D18461A
:1024E00007F11807BD4680BD80B584B000AF034634
:1024F000FB714FF00203FB734FF01303BB73FB79C7
:10250000002B07D14FF000004FF0000104F0A6FDB2
:102510000346BB73BB7B002B03D14FF00003FB735F
:1025200002E04FF00203FB73FB7B184607F1100734
:10253000BD4680BD80B483B000AF78600B46FB70B1
:10254000FB78002B0CD04FF46053C4F202034FF41D
:102550006052C4F20202116B7A680A431A630DE0FA
:102560004FF46053C4F202034FF46052C4F202020B
:10257000116B7A686FEA02020A401A6307F10C07CE
:10258000BD4680BC704700BF80B483B000AF7860A8
:102590000B46FB70FB78002B0CD04FF46053C4F259
:1025A00002034FF46052C4F20202516B7A680A438C
:1025B0005A630DE04FF46053C4F202034FF46052CB
:1025C000C4F20202516B7A686FEA02020A405A634F
:1025D00007F10C07BD4680BC704700BF80B582B0D4
:1025E00000AF4FF001004FF00101FFF7A3FF4FF0E4
:1025F00000033B714FF00003FB714FF001033B60A0
:102600003B464FF00000C4F20200194601F00AF9FF
:1026100007F10807BD4680BD90B587B002AF78606E
:1026200039603B68FB60FB6893F84330082B40F04F
:10263000A780FB6893F84530502B40F0A180FB68E1
:1026400093F85230DBB25BB2002B10DAFB6893F8E0
:10265000522041F24413C2F20003DA70FB68B3F86F
:10266000542041F24413C2F200039A800FE0FB6849
:1026700093F8522041F24413C2F200039A70FB68AF
:10268000B3F8542041F24413C2F20003DA80FB682D
:1026900093F85A30DBB25BB2002B10DAFB6893F888
:1026A0005A2041F24413C2F20003DA70FB68B3F817
:1026B0005C2041F24413C2F200039A800FE0FB68F1
:1026C00093F85A2041F24413C2F200039A70FB6857
:1026D000B3F85C2041F24413C2F20003DA8041F205
:1026E0004413C2F200039B7878681946FEF764FF32
:1026F00003461A4641F24413C2F200035A7041F2F3
:102700004413C2F20003DB7878681946FEF754FFE1
:1027100003461A4641F24413C2F200031A7041F212
:102720004413C2F200035978FB6893F82020FB6839
:1027300093F8214041F24413C2F20003DB884FF0CA
:1027400002000090019378682346FEF763FE41F291
:102750004413C2F200031978FB6893F82020FB6849
:1027600093F8214041F24413C2F200039B884FF0DA
:1027700002000090019378682346FEF74BFE04E0C8
:10278000FB68D3F880301B6C98474FF00003184665
:1027900007F11407BD4690BD80B582B000AF7860E8
:1027A000396041F24413C2F200035B78002B18D069
:1027B00041F24413C2F200035B7878681946FEF7D1
:1027C00053FD41F24413C2F200035B787868194666
:1027D000FEF718FF41F24413C2F200034FF000026B
:1027E0005A7041F24413C2F200031B78002B18D038
:1027F00041F24413C2F200031B7878681946FEF7D1
:1028000033FD41F24413C2F200031B787868194685
:10281000FEF7F8FE41F24413C2F200034FF000024B
:102820001A7007F10807BD4680BD00BF80B485B0AF
:1028300000AF786039604FF00003FB7341F2B8538A
:10284000C2F200034FF000021A70FB7B184607F13A
:102850001407BD4680BC704780B586B000AF786075
:1028600039603B683B614FF00103FB754FF0030398
:10287000FB734FF00003BB73786804F0F9FE034666
:10288000002B00F05D8141F2B853C2F200031B78C7
:102890000A2B00F24C8101A252F823F0C92800084B
:1028A000DF28000825290008FB290008392A00082C
:1028B000772A0008B52A0008EB2A0008F52A000844
:1028C000B9290008272B0008786804F037FF41F287
:1028D000B853C2F200034FF001021A7030E1786879
:1028E000396800F033F90346FB75FB7D002B06D1F8
:1028F00041F2B853C2F200034FF002021A70FB7D9E
:10290000032B40F0168141F2B853C2F200034FF09E
:1029100002025A7041F2B853C2F200034FF00902AA
:102920001A7006E17868396800F038F90346FB75DB
:10293000FB7D002B2DD141F24413C2F200031A7A21
:1029400041F24413C2F2000383F8482041F24413D9
:10295000C2F2000393F84830002B13D040F2ED236D
:10296000C2F200031B78002B0CD140F2ED23C2F21F
:1029700000034FF001021A703B69D3F880301B6CE2
:102980009847DDE041F2B853C2F200034FF0030272
:102990001A70FB7D032B40F0CE8041F2B853C2F297
:1029A00000034FF003025A7041F2B853C2F2000321
:1029B0004FF009021A70BEE03B695B7978683968AC
:1029C0004FF00002FEF7A0FF0346FB75FB7D002BD6
:1029D00040F0B38041F24413C2F200034FF0000212
:1029E00083F8482041F2B853C2F200035A7841F20A
:1029F000B853C2F200031A709FE0786801F078F9CA
:102A00000346FB73FB7B002B11D141F2B853C2F29A
:102A100000034FF004021A7040F2EC23C2F20003EC
:102A20004FF000021A704FF00003FB7588E0FB7B4B
:102A3000184600F0DBF883E0786801F017FA0346E7
:102A4000FB73FB7B002B11D141F2B853C2F20003A0
:102A50004FF005021A7040F2EC23C2F200034FF06F
:102A600000021A704FF00003FB7569E0FB7B18460B
:102A700000F0BCF864E0786801F0E6FA0346FB7306
:102A8000FB7B002B11D141F2B853C2F200034FF08F
:102A900008021A7040F2EC23C2F200034FF0000269
:102AA0001A704FF00003FB754AE0FB7B184600F0FC
:102AB0009DF845E0786801F0A3FB0346FB73FB7BC0
:102AC000002B0DD141F2B853C2F200035A7841F203
:102AD000B853C2F200031A704FF00003FB752FE0E9
:102AE000FB7B184600F082F82AE07868396804F029
:102AF00061FE25E03B69D3F88030DB6B98470346E5
:102B0000BB73BB7B002B07D141F2B853C2F2000369
:102B10004FF008021A7012E0BB7B012B0FD14FF06F
:102B20000603FB750BE04FF00403FB7508E000BFE4
:102B300006E000BF04E000BF02E000BF00E000BF0D
:102B4000FB7D184607F11807BD4680BD80B582B0F1
:102B500000AF786039603B684FF021021A753B681E
:102B60004FF0FF025A753B684FF00002DA823B6873
:102B70004FF000021A833B684FF000025A837868D6
:102B800039684FF000024FF0000305F0BFF903462B
:102B9000184607F10807BD4680BD00BF80B582B06A
:102BA00000AF786039603B684FF0A1021A753B684E
:102BB0004FF0FE025A753B684FF00002DA823B6824
:102BC0004FF000021A833B684FF001025A83786885
:102BD0003968054A4FF0010305F098F90346184695
:102BE00007F10807BD4680BD4C11002080B483B0BA
:102BF00000AF0346FB71FB79012B2AD140F2EC2395
:102C0000C2F200031B7803F10103DAB240F2EC23B5
:102C1000C2F200031A7040F2EC23C2F200031B78E8
:102C2000092B0ED841F2B853C2F200034FF006024E
:102C30001A7041F2B853C2F200034FF00102DA7089
:102C400011E041F2B853C2F200034FF00A021A70C9
:102C500009E0FB79022B06D141F2B853C2F200031E
:102C60004FF00A021A7007F10C07BD4680BC70478E
:102C700080B485B000AF78607B68FB60FB68D3F8F8
:102C8000AC344FF001021A72FB68D3F8AC344FF049
:102C900000029A7207F11407BD4680BC704700BF5E
:102CA00080B485B000AF78607B68FB60FB68D3F8C8
:102CB000AC344FF001025A72FB68D3F8AC344FF0D9
:102CC0000002DA7207F11407BD4680BC704700BFEE
:102CD00080B584B000AFF8607A603B600B46FB7251
:102CE000F86801F0C3FF4FF0000002F065F8F868E3
:102CF000796800F02BF87B683A68DA677B68BA6914
:102D0000C3F88020FA6840F26003C2F20003C2F800
:102D1000AC34FB68D3F8AC344FF000021A72FB6895
:102D2000D3F8AC344FF000025A72FB7AF8681946B7
:102D300004F028FC7B68D3F880301B689847F8685B
:102D400001F0FEFF07F11007BD4680BD80B582B0DF
:102D500000AF786039603B684FF000021A703B6842
:102D60004FF000025A703B684FF000029A703B68C7
:102D70004FF00102DA703B684FF001021A773B68AE
:102D80004FF040029A713B684FF0000283F8202018
:102D90003B684FF0010283F821203B681B7978687B
:102DA0001946FEF72FFC3B685B7978681946FEF7F9
:102DB00029FC4FF00003184607F10807BD4680BD07
:102DC00090B587B002AF786039604FF00203FB73B3
:102DD0003B681B780C2B00F2058101A252F823F00E
:102DE0002D2E0008152E00084B2E0008E52F000898
:102DF000E52F0008E52F0008192F0008672F0008AD
:102E0000972F0008B52F00083B2F0008E52F00087A
:102E1000BF2F0008786804F01DFC0346002B40F02B
:102E2000E3803B684FF000021A70DDE0786804F040
:102E30001FFC0346002B00F0D9807868FEF708FCE1
:102E40003B684FF002021A70D0E03B68D3F8803044
:102E50009B6898477B68D3F8AC344FF000025A72F5
:102E60007B68D3F8AC344FF001029A7278684FF067
:102E70000001FEF7A1FB03461A463B685A717868C9
:102E80004FF08001FEF798FB03461A463B681A7123
:102E9000786804F0DFFB0346002B40F0A9803B6814
:102EA000D3F88030DB689847786804F0BFFB0346AE
:102EB000DAB23B6883F821203B684FF006021A70B3
:102EC0003B68D3F880309B693A6892F8212010461D
:102ED00098473B6819793B6893F820203B6893F842
:102EE0002130386880794FF00004009401907868B0
:102EF000FEF790FA3B6859793B6893F820203B68CD
:102F000093F82130386880794FF0000400940190E4
:102F10007868FEF77FFA6BE07868396800F0C0F8EF
:102F20000346002B66D13B68D3F880305B6B984733
:102F30003B684FF00A021A705CE03B68D3F88030BF
:102F40009B6B98470346012B56D13B68DB6F1B6890
:102F50007868396898470346002B4DD13B684FF09D
:102F600007021A7048E03B68DB6F9B687868396835
:102F700098470346FB73FB7BDBB2002B04D13B6815
:102F80004FF008021A7038E0FB7BDBB23868194654
:102F900000F060F831E03B68DB6FDB687868396827
:102FA00098470346FB73FB7BDBB23868194600F099
:102FB00051F822E07868396800F00EFA1DE0786870
:102FC0003968FFF7C3FE3B68D3F880305B689847E9
:102FD0003B68DB6F5B683A6802F120027868114653
:102FE00098470AE000BF08E000BF06E000BF04E029
:102FF00000BF02E000BF00E000BF786804F038FBCB
:103000000346002B22D17B68D3F8AC34DB7A002B4B
:103010001CD13B68D3F880301B6998477B68D3F894
:10302000AC344FF00102DA7278683968FFF78EFE2F
:103030003B68D3F880305B6898473B68DB6F5B6820
:103040003A6802F1200278681146984707F11407A0
:10305000BD4690BD80B582B000AF78600B46FB7076
:10306000FB78052B02D0FB78042B09D17B68D3F8C1
:1030700080305B6C98477B684FF00C021A700BE055
:10308000FB78062B08D17B684FF00C021A707B6826
:10309000D3F880301B68984707F10807BD4680BD0C
:1030A00080B596B002AF786039604FF0010387F8C1
:1030B0004F303B689B78092B00F2748101A252F8D3
:1030C00023F000BFED3000085B3100088B310008B1
:1030D00005320008233200085F320008BF320008C2
:1030E0001D3300087B3300089B330008786839687B
:1030F0004FF00802FEF7F8FA0346002B40F0548127
:103100003B6893F829203B689A71786804F0A2FA2A
:103110003B684FF001029A703B685B793A6892799C
:103120004FF0000100910192786819464FF00002BB
:103130004FF00003FEF7F2F93B681B793A68927989
:103140004FF0000100910192786819464FF000029B
:103150004FF00003FEF7E2F926E1786839684FF096
:103160001202FEF7C1FA0346002B40F01F813B68B4
:10317000D3F88030DB693A6802F1220210469847A2
:103180003B684FF002029A7010E1786839684FF09E
:103190000102FEF767FB0346002B40F009813B6804
:1031A0004FF0010283F820203B68D3F880301B6A7F
:1031B00098473B684FF003029A703B681A793B6866
:1031C00093F820304FF0000100914FF00001019181
:1031D000786811461A464FF00003FEF79FF93B68E6
:1031E0005A793B6893F820304FF0000100914FF07E
:1031F00000010191786811461A464FF00003FEF76E
:103200008DF9D5E0786839684FF00902FEF79AFA2F
:103210000346002B40F0CE803B684FF004029A70CA
:10322000C8E03B68DB8E786839681A46FEF78AFA90
:103230000346002B40F0C0803B68D3F880305B6AC7
:103240003A6802F134003A6802F13E013A6802F14C
:10325000500298473B684FF005029A70ACE03B681B
:1032600093F83030002B1CD03B6893F8302007F1E6
:103270000C034FF0FF01009178683968FEF792FA6D
:103280000346002B40F09A803B68D3F880309B6A5D
:1032900007F10C02104698473B684FF006029A70FF
:1032A0008CE03B68D3F880309B6A49F6A400C0F6F6
:1032B000000098473B684FF006029A707EE03B683A
:1032C00093F83130002B1BD03B6893F8312007F185
:1032D0000C034FF0FF01009178683968FEF762FA3D
:1032E0000346002B6CD13B68D3F88030DB6A07F1D2
:1032F0000C02104698473B684FF007029A705FE057
:103300003B68D3F88030DB6A49F6A400C0F60000C1
:1033100098473B684FF007029A7051E03B6893F87A
:103320003230002B1BD03B6893F8322007F10C039E
:103330004FF0FF01009178683968FEF733FA0346D1
:10334000002B3FD13B68D3F880301B6B07F10C0298
:10335000104698473B684FF008029A7032E03B688D
:10336000D3F880301B6B49F6A400C0F600009847E4
:103370003B684FF008029A7024E03B6893F83930BC
:10338000786839681A46FEF797FA0346002B1BD176
:103390003B684FF009029A7016E04FF0000387F87F
:1033A0004F3012E000BF10E000BF0EE000BF0CE0A5
:1033B00000BF0AE000BF08E000BF06E000BF04E075
:1033C00000BF02E000BF00E000BF97F84F30184692
:1033D00007F15007BD4680BD80B584B000AF78606E
:1033E00039604FF00003FB734FF00003BB733B6881
:1033F0004FF000029A743B681B7F03F1FF330A2BE6
:1034000000F2AF8101A252F823F000BF3934000866
:1034100057340008F7340008153500087B350008DC
:10342000C33500081536000831360008A5360008F7
:10343000EB3600082B3700083B6803F114023B68A9
:103440005B79786811461A4604F0B4FD3B684FF08A
:1034500002021A7790E13B685B797868194604F0BC
:1034600027F90346BB73BB7B012B37D13B681B7D20
:1034700023F07F037B733B685B8B002B13D040F200
:10348000EE23C2F2000341F288321A807B7B802B4C
:1034900004D13B684FF003021A7717E03B684FF006
:1034A00005021A7712E040F2EE23C2F200034FF059
:1034B00032021A807B7B802B04D13B684FF00902DB
:1034C0001A7703E03B684FF007021A77786804F038
:1034D000DDF803469AB23B681A8244E1BB7B032BBA
:1034E00040F041813B684FF00B021A773B684FF088
:1034F00005029A7437E13B6899683B689B89DAB2A8
:103500003B681B79786804F0F5FD3B684FF00402D6
:103510001A7731E13B681B797868194604F0C8F8DE
:103520000346BB73BB7B012B03D13B684FF0090201
:103530001A77BB7B042B04D13B685A783B681A701E
:1035400013E1BB7B032B04D13B684FF00B021A77CE
:103550000BE1786804F09AF802463B681B8AD21A9D
:1035600040F2EE23C2F200031B889A4240F2FD8033
:103570003B684FF00B021A77F7E03B685B793A68DB
:103580005279796802F116024FEA42128A1852798A
:1035900082F00102D2B2796803F116034FEA4313B5
:1035A000CB185A713B6899683B689B89DAB23B68D3
:1035B0005B79786804F03CFD3B684FF006021A77AF
:1035C000DAE03B685B797868194604F071F80346E5
:1035D000BB73BB7B012B04D13B684FF007021A770A
:1035E000C5E0BB7B042B04D13B685A783B681A705A
:1035F000BDE0BB7B022B04D13B684FF005021A777C
:10360000B5E0BB7B032B40F0B2803B684FF00B0270
:103610001A77ACE03B681B7978684FF000014FF0F7
:10362000000204F067FD3B684FF008021A77A3E040
:103630003B681B797868194604F03AF80346BB7377
:10364000BB7B012B04D13B685A783B681A7090E031
:10365000BB7B032B04D13B684FF00B021A7788E049
:10366000786804F013F802463B681B8AD21A40F2CD
:10367000EE23C2F200031B889A4204D93B684FF044
:103680000B021A7775E0BB7B042B72D13B685A782A
:103690003B681A703B684FF004029A744FF00303C2
:1036A000FB7366E03B685B793A685279796802F1AE
:1036B00016024FEA42128A18527982F00102D2B2FF
:1036C000796803F116034FEA4313CB185A713B682C
:1036D0005B7978684FF000014FF0000204F0A8FC1D
:1036E0003B684FF00A021A7746E03B685B797868DE
:1036F000194603F0DDFF0346BB73BB7B012B04D1EE
:103700003B685A783B681A7035E0BB7B022B04D1CA
:103710003B684FF009021A772DE0BB7B032B2AD1BF
:103720003B684FF00B021A7725E03B689B7B03F167
:103730000103DAB23B689A733B689B7B022B04D887
:103740003B684FF001021A7716E03B684FF0080221
:103750009A743B685A783B681A704FF00203FB7307
:103760000AE000BF08E000BF06E000BF04E000BFC1
:1037700002E000BF00E000BFFB7B184607F1100726
:10378000BD4680BD80B483B000AF4FF0FF337B6097
:103790007B68184607F10C07BD4680BC704700BF28
:1037A00080B483B000AF4FF0FF337B607B68184676
:1037B00007F10C07BD4680BC704700BF80B487B0DE
:1037C00000AFF860B9601346FB714FF0FF337B61C7
:1037D0007B69184607F11C07BD4680BC704700BFD7
:1037E00080B487B000AFF860B9601346FB714FF04A
:1037F000FF337B617B69184607F11C07BD4680BC1F
:10380000704700BF80B485B000AF03463960FB71DC
:103810004FF0FF33FB60FB68184607F11407BD4605
:1038200080BC704780B487B000AF786039604FF0DB
:1038300000037B614FF000033B614FF00003FB602E
:103840004FF000037B6186E07B694FF0010202FAD2
:1038500003F33B613B681A683B691340FB60FA68FD
:103860003B699A4273D17B681A687B694FEA4303CC
:103870004FF0030101FA03F36FEA03031A407B6878
:103880001A607B681A683B681B7919467B694FEAA6
:10389000430301FA03F31A437B681A603B681B7900
:1038A000012B03D03B681B79022B34D17B689A68CB
:1038B0007B694FEA43034FF0030101FA03F36FEA18
:1038C00003031A407B689A607B689A683B685B795F
:1038D00019467B694FEA430301FA03F31A437B68F5
:1038E0009A607B685A687B699BB24FF0010101FACC
:1038F00003F36FEA03031A407B685A607B685A68D7
:103900003B689B7919467B699BB201FA03F39BB232
:103910001A437B685A607B68DA687B699BB24FEA1E
:1039200043034FF0030101FA03F36FEA03031A4064
:103930007B68DA607B68DA683B68DB7919467B690B
:103940004FEA430301FA03F31A437B68DA607B69A9
:1039500003F101037B617B690F2B7FF675AF07F1E4
:103960001C07BD4680BC704780B485B000AF78604E
:103970000B467B804FF00003FB737B681A697B88E2
:103980001340002B03D04FF00103FB7302E04FF014
:103990000003FB73FB7B184607F11407BD4680BC90
:1039A000704700BF80B483B000AF78600B467B8067
:1039B0007B687A881A8307F10C07BD4680BC704784
:1039C00080B483B000AF78600B467B807B687A88D8
:1039D0005A8307F10C07BD4680BC704780B485B0A0
:1039E00000AF786013460A467A807B704FF0000380
:1039F000FB604FF00003BB607A787B8803F007031D
:103A00004FEA830302FA03F3FB607B884FEAD30398
:103A10009BB21A467B884FEAD3039BB219467B6858
:103A200001F1080153F821107B8803F007034FEAE6
:103A300083034FF00F0000FA03F36FEA030319400A
:103A40007B6802F1080243F822107B884FEAD30317
:103A50009BB21A467B6802F1080253F82220FB68E9
:103A60001343BB607B884FEAD3039BB21A467B6843
:103A700002F10802B96843F8221007F11407BD46A5
:103A800080BC704780B582B000AF4FF0FF337B60E1
:103A900040F21050C2F2000003F0EAFD0346002B92
:103AA0000AD040F20C53C2F200031B78062B03D15C
:103AB0004FF000037B6002E04FF0FF337B607B68D8
:103AC000184607F10807BD4680BD00BF80B582B02B
:103AD00000AF4FF0FF337B6040F21050C2F20000A5
:103AE00003F0C6FD0346002B0AD040F20C53C2F28D
:103AF00000031B78062B03D14FF000037B6002E02C
:103B00004FF0FF337B607B68184607F10807BD461E
:103B100080BD00BF80B586B000AFF860B9601346C5
:103B2000FB714FF0FF337B614FF00003FB7440F2F9
:103B30001050C2F2000003F09BFD0346002B2DD075
:103B400040F20C53C2F200031B78062B26D1FB79FE
:103B50004FEA432340F21050C2F20000F968BA68FD
:103B600000F01AFD0346FB7440F21050C2F2000050
:103B700040F6C011C2F2000103F01CFE40F21050EA
:103B8000C2F2000003F074FD0346002B02D14FF097
:103B90000103FB74FB7C032BD9D002E04FF001033F
:103BA000FB74FB7C002B03D14FF000037B6102E030
:103BB0004FF0FF337B617B69184607F11807BD465C
:103BC00080BD00BF80B586B000AFF860B960134615
:103BD000FB714FF0FF337B614FF00003FB7440F249
:103BE0001050C2F2000003F043FD0346002B2DD01D
:103BF00040F20C53C2F200031B78062B26D1FB794E
:103C00004FEA432340F21050C2F20000F968BA684C
:103C100000F0E8FB0346FB7440F21050C2F20000D3
:103C200040F6C011C2F2000103F0C4FD40F2105092
:103C3000C2F2000003F01CFD0346002B02D14FF03E
:103C40000103FB74FB7C032BD9D002E04FF001038E
:103C5000FB74FB7C002B03D14FF000037B6102E07F
:103C60004FF0FF337B617B69184607F11807BD46AB
:103C700080BD00BF80B485B000AF03463960FB71E2
:103C80004FF00003FB60FB79032B2AD801A252F806
:103C900023F000BFDB3C0008A53C0008BB3C00084B
:103CA000CB3C000841F29833C2F200031A683B682B
:103CB0001A604FF00003FB6013E03B684FF40072A2
:103CC0001A804FF00003FB600BE03B684FF400727A
:103CD0001A604FF00003FB6003E04FF00003FB604D
:103CE00000BFFB68184607F11407BD4680BC70474B
:103CF00080B584B000AF78604FF00303BB73786881
:103D000003F0B6FC0346002B00F0A98041F2B85343
:103D1000C2F20003DB78012B02D0022B67D09CE0BB
:103D200041F2C853C2F200034FF000029A6041F220
:103D3000C853C2F200034FF000021A7341F2C85395
:103D4000C2F200034FF006029A7341F2B853C2F276
:103D5000000341F2A852C2F200029A6041F2B85345
:103D6000C2F200034FF03F029A8141F2B853C2F20F
:103D700000034FF003029A704FF01003FB730CE046
:103D8000FA7B41F2C853C2F200039B184FF00002C5
:103D9000DA73FB7B03F1FF33FB73FB7B002BEFD16B
:103DA00041F2C853C2F200034FF00002DA7341F24D
:103DB000B853C2F200034FF001021A7141F2B85336
:103DC000C2F200034FF007021A7041F2B853C2F278
:103DD00000034FF00302DA7341F2B853C2F200035A
:103DE0004FF00202DA704FF00303BB7337E041F289
:103DF000B853C2F20003DB7B002B0AD141F2B85367
:103E0000C2F200034FF00102DA704FF00003BB73FF
:103E100024E041F2B853C2F20003DB7B012B0AD14C
:103E200041F2B853C2F200034FF00102DA704FF0D2
:103E30000103BB7312E041F2B853C2F20003DB7B13
:103E4000022B0BD141F2B853C2F200034FF0010232
:103E5000DA704FF00203BB7300E000E000BFBB7BF1
:103E6000184607F11007BD4680BD00BF80B584B07D
:103E700000AF78604FF00303BB73786803F0F8FB82
:103E80000346002B00F0CF8041F2B853C2F200038A
:103E9000DB78012B02D0022B60D0C2E041F2C85384
:103EA000C2F200034FF008029A6041F2C853C2F216
:103EB00000034FF080021A7341F2C853C2F20003AC
:103EC0004FF00A029A7341F2B853C2F2000341F272
:103ED0009812C2F200029A6041F2B853C2F2000393
:103EE0004FF004029A704FF01003FB730CE0FA7B62
:103EF00041F2C853C2F200039B184FF00002DA737C
:103F0000FB7B03F1FF33FB73FB7B002BEFD141F213
:103F1000C853C2F200034FF02502DA7341F2B853DE
:103F2000C2F200034FF001021A7141F2B853C2F21B
:103F300000034FF007021A7041F2B853C2F20003B7
:103F40004FF00302DA7341F2B853C2F200034FF0AC
:103F50000202DA704FF00303BB7364E041F2B8531E
:103F6000C2F20003DB7B002B37D1324A41F29813B7
:103F7000C2F200031B7813702F4A41F29813C2F269
:103F800000035B7813702D4A41F29813C2F20003CC
:103F90009B78137041F29833C2F2000341F29812F9
:103FA000C2F20002D2781A70254A41F29813C2F286
:103FB00000039B791370234A41F29813C2F2000365
:103FC000DB79137041F2B853C2F200034FF00102E3
:103FD000DA704FF00003BB7324E041F2B853C2F231
:103FE0000003DB7B012B0AD141F2B853C2F200037C
:103FF0004FF00102DA704FF00103BB7312E041F29F
:10400000B853C2F20003DB7B022B0BD141F2B85351
:10401000C2F200034FF00102DA704FF00203BB73EB
:1040200000E000E000BFBB7B184607F11007BD466B
:1040300080BD00BF9B1300209A130020991300201D
:10404000A1130020A013002080B584B000AF7860D9
:104050004FF00303BB73786803F00AFB0346002BA1
:1040600000F0C88041F2B853C2F20003DB78012BA4
:1040700002D0022B6ED0BBE041F2C853C2F2000363
:104080004FF03F029A6041F2C853C2F200034FF072
:1040900080021A7341F2C853C2F200034FF00A02C1
:1040A0009A7341F2B853C2F2000341F29812C2F27D
:1040B00000029A6041F2B853C2F200034FF00502C9
:1040C0009A704FF01003FB730CE0FA7B41F2C85377
:1040D000C2F200039B184FF00002DA73FB7B03F17E
:1040E000FF33FB73FB7B002BEFD141F2C853C2F2CD
:1040F00000034FF01A02DA7341F2C853C2F2000310
:104100004FF03F025A7441F2C853C2F200034FF01D
:104110003F02DA7441F2B853C2F200034FF00102D9
:104120001A7141F2B853C2F200034FF007021A703D
:1041300041F2B853C2F200034FF00302DA7341F2C6
:10414000B853C2F200034FF00202DA704FF00303DB
:10415000BB734FE041F2B853C2F20003DB7B002B8C
:1041600022D141F29813C2F200039B78DBB25BB21A
:10417000002B07DA41F29833C2F200034FF001023C
:104180001A7306E041F29833C2F200034FF00002C6
:104190001A7341F2B853C2F200034FF00102DA7011
:1041A0004FF00003BB7324E041F2B853C2F20003A6
:1041B000DB7B012B0AD141F2B853C2F200034FF06E
:1041C0000102DA704FF00103BB7312E041F2B85301
:1041D000C2F20003DB7B022B0BD141F2B853C2F2D7
:1041E00000034FF00102DA704FF00203BB7300E0EE
:1041F00000E000BFBB7B184607F11007BD4680BD3D
:1042000080B584B000AF78604FF00303FB7378682B
:1042100003F02EFA0346002B00F0D68041F2B8538B
:10422000C2F20003DB78012B02D0022B78D0C9E068
:1042300041F2C853C2F200034FF03F029A6041F2CC
:10424000C853C2F200034FF080021A7341F2C85300
:10425000C2F200034FF00A029A7341F2B853C2F25D
:10426000000341F29812C2F200029A6041F2B85380
:10427000C2F200039A7841F2B853C2F200035A70B6
:1042800041F2B853C2F200034FF006029A704FF0A9
:104290001003BB730CE0BA7B41F2C853C2F20003B7
:1042A0009B184FF00002DA73BB7B03F1FF33BB7343
:1042B000BB7B002BEFD141F2C853C2F200034FF099
:1042C0000302DA7341F2C853C2F200034FF0000256
:1042D0001A7441F2C853C2F200034FF03F02DA747D
:1042E00041F2B853C2F200034FF001021A7141F2D9
:1042F000B853C2F200034FF007021A7041F2B853EC
:10430000C2F200034FF00302DA7341F2B853C2F273
:1043100000034FF00202DA704FF00303FB7353E027
:1043200041F2B853C2F20003DB7B002B26D1294AAD
:1043300041F29813C2F200031B781370264A41F22F
:104340009813C2F200035B781370244A41F2981369
:10435000C2F200039B781370214A41F29813C2F213
:104360000003DB78137041F2B853C2F200034FF040
:104370000102DA704FF00003FB7324E041F2B853FE
:10438000C2F20003DB7B012B0AD141F2B853C2F227
:1043900000034FF00102DA704FF00103FB7312E0EB
:1043A00041F2B853C2F20003DB7B022B0BD141F286
:1043B000B853C2F200034FF00102DA704FF002036B
:1043C000FB7300E000E000BFFB7B184607F110071D
:1043D000BD4680BD9F1300209E1300209D1300202A
:1043E0009C13002080B586B000AFF860B9607A6099
:1043F0003B604FF00303BB75F86803F039F90346DF
:10440000002B00F0C28041F2B853C2F20003DB7807
:10441000012B03D0022B00F08380B4E041F2C8539B
:10442000C2F200033A689A6041F2C853C2F2000334
:104430004FF000021A7341F2C853C2F200034FF06A
:104440000A029A7341F2B853C2F20003BA689A6042
:104450004FF01003FB750CE0FA7D41F2C853C2F235
:1044600000039B184FF00002DA73FB7D03F1FF336A
:10447000FB75FB7D002BEFD141F2C853C2F2000364
:104480004FF02A02DA73FA7941F2C853C2F20003FC
:104490005A74BA7941F2C853C2F200039A747A7915
:1044A00041F2C853C2F20003DA7407F104031A7828
:1044B00041F2C853C2F200031A753B684FEA532316
:1044C0009BB2BB827A7D41F2C853C2F200039A7557
:1044D00007F114031A7841F2C853C2F20003DA75E7
:1044E00041F2B853C2F200034FF001021A7141F2D7
:1044F000B853C2F200034FF007021A7041F2B853EA
:10450000C2F200034FF00302DA7341F2B853C2F271
:1045100000034FF00202DA704FF00303BB7534E082
:1045200041F2B853C2F20003DB7B002B0AD141F207
:10453000B853C2F200034FF00102DA704FF00003EB
:10454000BB7521E041F2B853C2F20003DB7B012BC3
:1045500007D141F2B853C2F200034FF00102DA7002
:1045600012E041F2B853C2F20003DB7B022B0BD105
:1045700041F2B853C2F200034FF00102DA704FF07B
:104580000203BB7500E000E000BFBB7D184607F1E9
:104590001807BD4680BD00BF80B586B000AFF8608B
:1045A000B9607A603B6040F26C03C2F200034FF0E6
:1045B00003021A70F86803F05BF80346002B00F062
:1045C000DB8041F2B853C2F20003DB78012B03D049
:1045D000022B00F08780CDE041F2C853C2F2000305
:1045E0003A689A6041F2C853C2F200034FF0800269
:1045F0001A7341F2C853C2F200034FF00A029A73D1
:1046000041F2B853C2F20003BA689A604FF0100347
:10461000FB750CE0FA7D41F2C853C2F200039B180F
:104620004FF00002DA73FB7D03F1FF33FB75FB7D76
:10463000002BEFD141F2C853C2F200034FF0280221
:10464000DA73FA7941F2C853C2F200035A74BA79A4
:1046500041F2C853C2F200039A747A7941F2C85306
:10466000C2F20003DA7407F104031A7841F2C85366
:10467000C2F200031A753B684FEA53239BB2BB8218
:104680007A7D41F2C853C2F200039A7507F1140310
:104690001A7841F2C853C2F20003DA7541F2B853F6
:1046A000C2F200034FF001021A7141F2B853C2F294
:1046B00000034FF007021A7041F2B853C2F2000330
:1046C0004FF00302DA7341F2B853C2F200034FF025
:1046D0000202DA7040F26C03C2F200034FF00302F0
:1046E0001A7049E041F2B853C2F20003DB7B002BA1
:1046F00014D1F86802F0BCFF0346002B0ED041F243
:10470000B853C2F200034FF00102DA7040F26C03BA
:10471000C2F200034FF000021A702AE041F2B853CF
:10472000C2F20003DB7B012B0DD1F86802F0A0FF81
:104730000346002B07D041F2B853C2F200034FF0FA
:104740000102DA7015E041F2B853C2F20003DB7BDC
:10475000022B10D141F2B853C2F200034FF0010214
:10476000DA7040F26C03C2F200034FF002021A70DA
:1047700001E000E000E000BF40F26C03C2F2000381
:104780001B78184607F11807BD4680BD80B500AFFD
:104790004FF46053C4F202034FF46052C4F20202B9
:1047A000126842F001021A604FF46053C4F202032F
:1047B0004FF000029A604FF46053C4F202034FF4CA
:1047C0006052C4F20202126822F0847222F4803233
:1047D0001A604FF46053C4F2020343F21002C2F2B3
:1047E00000425A604FF46053C4F202034FF4605227
:1047F000C4F20202126822F480221A604FF460535D
:10480000C4F202034FF00002DA6000F009F84FF43E
:104810006D43CEF200034FF000629A6080BD00BF8E
:1048200080B483B000AF4FF000037B604FF0000313
:104830003B604FF46053C4F202034FF46052C4F281
:104840000202126842F480321A604FF46053C4F2DC
:1048500002031B6803F400333B607B6803F1010330
:104860007B603B68002B03D17B68B3F5A06FECD174
:104870004FF46053C4F202031B6803F40033002BAF
:1048800003D04FF001033B6002E04FF000033B60B8
:104890003B68012B40F082804FF46053C4F2020366
:1048A0004FF46052C4F20202126C42F080521A6459
:1048B0004FF4E043C4F200034FF4E042C4F20002BC
:1048C000126842F480421A604FF46053C4F202034B
:1048D0004FF46052C4F2020292689A604FF460533F
:1048E000C4F202034FF46052C4F20202926842F42E
:1048F00000429A604FF46053C4F202034FF46052D6
:10490000C4F20202926842F4A0529A604FF46053DB
:10491000C4F2020345F20842C0F240725A604FF4FA
:104920006053C4F202034FF46052C4F202021268F0
:1049300042F080721A6000BF4FF46053C4F2020369
:104940001B6803F00073002BF6D04FF47053C4F2D1
:10495000020340F205621A604FF46053C4F202038E
:104960004FF46052C4F20202926822F003029A608D
:104970004FF46053C4F202034FF46052C4F20202D7
:10498000926842F002029A6000BF4FF46053C4F292
:1049900002039B6803F00C03082BF6D107F10C0708
:1049A000BD4680BC704700BF80B400AFBD4680BC30
:1049B000704700BF80B400AF40F20C53C2F2000356
:1049C0004FF001021A70BD4680BC704780B400AF42
:1049D00040F20C53C2F200034FF001021A70BD46C0
:1049E00080BC704780B400AF40F20C53C2F20003A9
:1049F0004FF001021A70BD4680BC704780B400AF12
:104A0000BD4680BC704700BF80B483B000AF034692
:104A1000FB71FB79012B09D0FB79022B06D040F208
:104A20000C53C2F200034FF002021A7007F10C0798
:104A3000BD4680BC704700BF80B483B000AF7860D3
:104A400007F10C07BD4680BC704700BF80B400AFC3
:104A5000BD4680BC704700BF80B485B000AFF86031
:104A6000B9607A6007F11407BD4680BC704700BF8B
:104A700080B483B000AF786007F10C07BD4680BCFE
:104A8000704700BF80B483B000AF786007F10C07B7
:104A9000BD4680BC704700BF80B483B000AF786073
:104AA00007F10C07BD4680BC704700BF80B400AF63
:104AB000BD4680BC704700BF80B400AF40F20C53CD
:104AC000C2F200034FF003021A70BD4680BC70476B
:104AD00080B400AF4FF001031846BD4680BC70475C
:104AE00080B400AF40F20C53C2F200034FF0050255
:104AF0001A70BD4680BC704780B400AF40F2F0230E
:104B0000C2F200031B78002B02D0012B1ED01CE048
:104B100040F20C53C2F200034FF006021A7041F249
:104B20009833C2F200031B7B012B06D140F20C53D9
:104B3000C2F200034FF004021A7040F2F023C2F2F6
:104B400000034FF001021A7001E000E000BF4FF0D7
:104B500000031846BD4680BC704700BF80B400AF5C
:104B600040F2F023C2F200034FF000021A70BD467B
:104B700080BC704780B485B000AF03463960FB80CD
:104B8000FB887F2B02D8FB88FB8130E03B68002B41
:104B900010D0FB88FF2B09D8FB88A3F1800249F6CF
:104BA000A803C0F6000333F8123001E04FF0000311
:104BB000FB811CE04FF00003FB810DE0FA8949F610
:104BC000A803C0F6000333F81230FA889A4207D0DF
:104BD000FB8903F10103FB81FB897F2BEED900E008
:104BE00000BFFB8903F180039BB2DBB2FB81FB8931
:104BF000184607F11407BD4680BC704780B485B0E5
:104C000000AF0346FB804FF00003FB6003E0FB684E
:104C100003F10103FB6049F6A813C0F60003FA682C
:104C200033F81230002B09D049F6A813C0F6000360
:104C3000FA6833F81230FA889A42E8D149F6A81394
:104C4000C0F60003FA6833F81230002B07D049F69B
:104C50008833C0F60003FA6833F8123000E0FB88AE
:104C6000184607F11407BD4680BC704780B584B074
:104C700000AF78604FF001004FF00101FDF75AFCE2
:104C80004FF4D053BB604FF003037B734FF002032C
:104C90003B734FF00003BB734FF00003FB7307F14E
:104CA00008034FF00000C4F202001946FEF7BAFDF7
:104CB0004FF00000C4F202004FF009014FF00A0269
:104CC000FEF78CFE4FF00000C4F202004FF00B0123
:104CD0004FF00A02FEF782FE4FF00000C4F202001D
:104CE0004FF00C014FF00A02FEF778FE4FF480639C
:104CF000BB604FF00103BB734FF00103FB734FF038
:104D000003037B7307F108034FF00000C4F20200B5
:104D10001946FEF787FD4FF00000C4F202004FF085
:104D20000A014FF00A02FEF759FE4FF080004FF0E3
:104D30000101FDF729FC07F11007BD4680BD00BF4A
:104D400080B584B000AF78604FF4C06003F0DAFA49
:104D50004FF043033B734FF001037B734FF00103AC
:104D6000BB734FF00103FB7307F10C03184603F00C
:104D7000DDFA07F11007BD4680BD00BF80B582B0E7
:104D800000AF78600B46FB70FB78002B08D14FF426
:104D90000060C4F202004FF00101FEF703FE07E0DD
:104DA0004FF40060C4F202004FF00101FEF708FE6C
:104DB00007F10807BD4680BD80B584B000AF7860BC
:104DC0004FF004004FF00101FDF7B4FB4FF0010379
:104DD000BB604FF003037B734FF001033B734FF055
:104DE0000003BB734FF00003FB7307F108034FF49C
:104DF0000060C4F202001946FEF714FD4FF4006093
:104E0000C4F202004FF00101FEF7CCFD4FF0C800E4
:104E100000F030F807F11007BD4680BD80B485B0C2
:104E200000AF78604FF00003BB607A6813464FEA2A
:104E300003139B1A4FEAC3031A4644F62513C2F222
:104E40009243A3FB0213D21A4FEA52029B184FEA75
:104E50009303FB6000E000BFBB6803F10103BB608C
:104E6000FA689342F7D900BF07F11407BD4680BC2A
:104E7000704700BF80B582B000AF78607B684FF4A8
:104E80007A7202FB03F31846FFF7C8FF07F1080721
:104E9000BD4680BD80B500AF40F21050C2F20000A8
:104EA00003F0B6FA80BD00BF80B483B000AF4FF00E
:104EB000FF337B607B68184607F10C07BD4680BC5A
:104EC000704700BF80B483B000AF4FF0FF337B600A
:104ED0007B68184607F10C07BD4680BC704700BFD1
:104EE00080B487B000AFF860B9601346FB714FF033
:104EF000FF337B617B69184607F11C07BD4680BC08
:104F0000704700BF80B487B000AFF860B960134647
:104F1000FB714FF0FF337B617B69184607F11C077B
:104F2000BD4680BC704700BF80B485B000AF03466B
:104F30003960FB714FF0FF33FB60FB68184607F1E7
:104F40001407BD4680BC704780B487B000AFF860DE
:104F5000B9607A60FB687B61BB683B610BE03B69D1
:104F60001A787B691A707B6903F101037B613B69E5
:104F700003F101033B617B68002B0CBF002301237D
:104F8000DBB27A6802F1FF327A60002BE7D107F1D9
:104F90001C07BD4680BC704780B487B000AFF86086
:104FA000B9607A60FB687B6107E0BB68DAB27B6955
:104FB0001A707B6903F101037B617B68002B0CBFD6
:104FC00000230123DBB27A6802F1FF327A60002B02
:104FD000EBD107F11C07BD4680BC704780B489B097
:104FE00000AFF860B9607A60FB68FB61BB68BB61C9
:104FF0004FF000037B6100BF7B68002B0CBF0023D8
:105000000123DBB27A6802F1FF327A60002B16D0FE
:10501000FB691B781A46BB691B78D31A7B617B69D5
:10502000002B14BF00230123DBB2FA6902F1010255
:10503000FA61BA6902F10102BA61002BDCD17B6925
:10504000184607F12407BD4680BC704780B483B082
:1050500000AF7860396003E07B6803F101037B6097
:105060007B681B78002B05D07B681B781A463B6851
:105070009A42F1D17B681B78184607F10C07BD46B0
:1050800080BC704780B584B000AF78607B681B79C6
:10509000002B41D07B681B6BFB607B685A787B6878
:1050A00003F1340310461946FA684FF00103FDF787
:1050B00037F80346002B02D04FF001032EE07B6847
:1050C0004FF000021A717B685A6AFB689A4223D833
:1050D0007B685A6A7B68DB69D218FB689A421BD9E5
:1050E0007B68DB78BB6014E07B68DB69FA68D31807
:1050F000FB607B685A787B6803F1340310461946DD
:10510000FA684FF00103FDF70BF8BB6803F1FF33BA
:10511000BB60BB68012BE7D84FF00003184607F1CE
:105120001007BD4680BD00BF80B582B000AF78607B
:1051300039607B681A6B3B689A421DD07868FFF72C
:10514000A1FF0346002B02D04FF0010316E07B685D
:105150005A787B6803F13403104619463A684FF0D9
:105160000103FCF78DFF0346002B02D04FF0010333
:1051700004E07B683A681A634FF00003184607F1B1
:105180000807BD4680BD00BF80B584B000AF786021
:105190007868FFF777FF0346FB73FB7B002B40F03B
:1051A000AB807B681B78032B40F097807B685B7932
:1051B000002B00F092807B684FF000021A637B683E
:1051C00003F1340318464FF000014FF40072FFF76B
:1051D000E3FE7B684FF0550283F832227B684FF084
:1051E000AA0283F833227B684FF0520283F83420FE
:1051F0007B684FF0520283F835207B684FF06102E4
:1052000083F836207B684FF0410283F837207B68B3
:105210004FF0720283F818227B684FF0720283F815
:1052200019227B684FF0410283F81A227B684FF005
:10523000610283F81B227B681B69DAB27B6883F802
:105240001C227B681B699BB24FEA13239BB2DAB224
:105250007B6883F81D227B681B694FEA1343DAB22F
:105260007B6883F81E227B681B694FEA1363DAB2FE
:105270007B6883F81F227B68DB68DAB27B6883F87F
:1052800020227B68DB689BB24FEA13239BB2DAB221
:105290007B6883F821227B68DB684FEA1343DAB22C
:1052A0007B6883F822227B68DB684FEA1363DAB2FB
:1052B0007B6883F823227B6859787B6803F134028A
:1052C0007B685B69084611461A464FF00103FCF7FC
:1052D00027FF7B684FF000025A717B685B781846A5
:1052E0004FF000014FF00002FCF76AFF0346002B6D
:1052F00002D04FF00103FB73FB7B184607F1100748
:10530000BD4680BD80B483B000AF786039603B6833
:10531000A3F102033B607B689B69A3F102023B6837
:105320009A4202D84FF0000307E07B689B783A6806
:1053300002FB03F27B68DB6AD318184607F10C07FF
:10534000BD4680BC704700BF80B586B000AF7860B6
:1053500039603B68012B04D97B689A693B689A42A3
:1053600002D84FF00103BCE07B681B78022B52D0BF
:10537000032B78D0012B40F0B2803B687B617B69C6
:105380004FEA53037A69D3187B617B685A6A7B6959
:105390004FEA5323D31878681946FFF7C5FE034632
:1053A000002B40F095807B694FEAC3534FEAD353FB
:1053B0007A68D31893F834303B617B6903F10103B9
:1053C0007B617B685A6A7B694FEA5323D3187868FC
:1053D0001946FFF7A9FE0346002B7BD17B694FEAF4
:1053E000C3534FEAD3537A68D31893F834304FEA53
:1053F00003233A6913433B613B6803F00103002B2D
:1054000003D03B694FEA131304E03B694FEA0353AF
:105410004FEA135365E07B685A6A3B684FEA1323EF
:10542000D31878681946FFF77FFE0346002B53D147
:105430003B684FEA43034FEAC3534FEAD35303F1A8
:1054400030037A68D31803F10403FB60FB6803F1AF
:1054500001031B784FEA03239AB2FB681B781343BE
:105460009BB29BB23DE07B685A6A3B684FEAD3131C
:10547000D31878681946FFF757FE0346002B2DD145
:105480003B684FEA83034FEAC3534FEAD35303F118
:1054900030037A68D31803F10403FB60FB6803F15F
:1054A00003031B784FEA0362FB6803F102031B78D6
:1054B0004FEA03431A43FB6803F101031B784FEAE9
:1054C00003231A43FB681B78134323F0704308E05F
:1054D00000BF04E000BF02E000BF00E000BF4FF0EB
:1054E000FF33184607F11807BD4680BD80B588B068
:1054F00000AFF860B9607A60BB68012B04D9FB6823
:105500009A69BB689A4203D84FF00203FB771AE10D
:10551000FB681B78022B00F08380032B00F0AC802B
:10552000012B40F00181BB68BB61BB694FEA5303AB
:10553000BA69D318BB61FB685A6ABB694FEA532347
:10554000D318F8681946FFF7EFFD0346FB77FB7F9A
:10555000002B40F0ED80BB694FEAC3534FEAD353B1
:1055600003F13003FA68D31803F104037B61BB68CD
:1055700003F00103002B0ED07B691B78DBB203F034
:105580000F03DAB27B68DBB24FEA0313DBB21343DB
:10559000DBB2DBB201E07B68DBB27A691370BB6916
:1055A00003F10103BB61FB684FF001021A71FB6854
:1055B0005A6ABB694FEA5323D318F8681946FFF7B4
:1055C000B3FD0346FB77FB7F002B40F0B380BB6944
:1055D0004FEAC3534FEAD35303F13003FA68D318A9
:1055E00003F104037B61BB6803F00103002B04D0CB
:1055F0007B684FEA1313DBB20FE07B691B78DBB2E9
:1056000023F00F03DAB27B684FEA1323DBB203F017
:105610000F03DBB21343DBB2DBB27A6913708EE0A7
:10562000FB685A6ABB684FEA1323D318F868194617
:10563000FFF77AFD0346FB77FB7F002B7CD1BB682D
:105640004FEA43034FEAC3534FEAD35303F1300306
:10565000FA68D31803F104037B617B68DAB27B69D3
:105660001A707B6903F101037A6892B24FEA122241
:1056700092B2D2B21A7062E0FB685A6ABB684FEA13
:10568000D313D318F8681946FFF74EFD0346FB778E
:10569000FB7F002B52D1BB684FEA83034FEAC35311
:1056A0004FEAD35303F13003FA68D31803F104032C
:1056B0007B617B6903F103031B784FEA03627B691B
:1056C00003F102031B784FEA03431A437B6903F19A
:1056D00001031B784FEA03231A437B691B781343AA
:1056E00003F070437A6813437B607B68DAB27B69AE
:1056F0001A707B6903F101037A6892B24FEA1222B1
:1057000092B2D2B21A707B6903F102037A684FEA4F
:105710001242D2B21A707B6903F103037A684FEA2E
:105720001262D2B21A700AE04FF00203FB7706E071
:1057300000BF04E000BF02E000BF00E000BFFB6864
:105740004FF001021A71FB7F184607F12007BD4692
:1057500080BD00BF80B584B000AF786039603B6821
:10576000012B04D97B689A693B689A4203D84FF0B1
:105770000203FB733FE04FF00003FB7332E07868F5
:105780003968FFF7E1FDB860BB68002B30D0BB681B
:10579000012B03D14FF00203FB732CE0BB68B3F184
:1057A000FF3F03D14FF00103FB7324E078683968B1
:1057B0004FF00002FFF79AFE0346FB73FB7B002BC2
:1057C00018D17B681B69B3F1FF3F09D07B681B6967
:1057D00003F101027B681A617B684FF001025A7184
:1057E000BB683B607B689A693B689A42C7D802E015
:1057F00000BF00E000BFFB7B184607F11007BD4665
:1058000080BD00BF80B586B000AF786039603B686E
:10581000002B0ED17B68DB683B613B69002B04D019
:105820007B689A693B699A4217D84FF001033B6144
:1058300013E078683968FFF787FDB860BB68012B13
:1058400002D84FF001036DE07B689A69BB689A4209
:1058500001D9BB6866E03B683B613B697B6100E066
:1058600000BF7B6903F101037B617B689A697B69F7
:105870009A4209D84FF002037B617A693B699A42E8
:1058800002D94FF000034DE078687969FFF75CFDBD
:10589000B860BB68002B0FD0BB68B3F1FF3F02D0EC
:1058A000BB68012B01D1BB683CE07A693B699A4235
:1058B000D6D14FF0000335E000BF786879696FF00A
:1058C0007042FFF713FE0346FB73FB7B002B09D1ED
:1058D0003B68002B06D0786839687A69FFF706FEC6
:1058E0000346FB73FB7B002B12D17B687A69DA607D
:1058F0007B681B69B3F1FF3F13D07B681B6903F121
:10590000FF327B681A617B684FF001025A7108E030
:10591000FB7B012B02D14FF0FF3301E04FF001037D
:105920007B617B69184607F11807BD4680BD00BF43
:1059300080B584B000AF78600B467B807B687A8846
:10594000DA807B689B68FB60FB68012B05D07B6875
:105950001B689A69FB689A4202D84FF002036FE015
:10596000FB68002B08D17B681B681B78032B03D1D5
:105970007B681B689B6AFB60FB68002B16D17B6809
:10598000FA68DA607B681B681B897A889A4202D3BE
:105990004FF0020354E07B681B689A6A7B884FEAE9
:1059A00013139BB2D2187B681A6139E07B681B68BD
:1059B0009B784FEA03137B811DE07B681B681846C8
:1059C000F968FFF7C1FCF860FB68B3F1FF3F02D153
:1059D0004FF0010334E0FB68012B05D97B681B689D
:1059E0009A69FB689A4202D84FF0020328E07A884D
:1059F0007B89D31A7B807A887B899A42DDD27B6847
:105A0000FA68DA607B681B681846F968FFF77AFC69
:105A100002467B884FEA13139BB2D2187B681A6147
:105A20007B681A687B8803F00F034FEA431303F186
:105A30003003D31803F104027B685A614FF000036E
:105A4000184607F11007BD4680BD00BF90B585B070
:105A500000AF786039607B68DB8803F101033B812C
:105A60003B89002B03D07B681B69002B02D14FF0D0
:105A70000403D1E03B8903F00F039BB2002B40F0FD
:105A8000B8807B681B6903F101027B681A617B683F
:105A9000DB68002B09D17B681B681B893A899A4215
:105AA000C0F0A7804FF00403B6E03B894FEA131320
:105AB0009BB21A467B681B689B7803F1FF33134047
:105AC000002B40F096807B681A687B68DB68104684
:105AD0001946FFF739FCF860FB68012B02D84FF03C
