:020000040800F2
:10000000942A00207D200008E9200008E92000084B
:10001000E9200008E9200008E920000800000000AD
:10002000000000000000000000000000E9200008BF
:10003000E920000800000000E9200008E92000088D
:10004000E9200008E9200008E9200008E92000086C
:10005000E9200008E9200008E9200008E92000085C
:10006000E9200008E9200008E9200008E92000084C
:10007000E9200008E9200008E9200008E92000083C
:10008000E9200008E9200008E9200008E92000082C
:10009000E9200008E9200008E9200008E92000081C
:1000A000E9200008E9200008E9200008E92000080C
:1000B000E9200008E9200008E9200008E9200008FC
:1000C000E9200008E9200008E9200008E9200008EC
:1000D000E9200008E9200008E9200008E9200008DC
:1000E000E9200008E9200008E9200008E9200008CC
:1000F000E9200008E9200008E9200008E9200008BC
:10010000E9200008E9200008E9200008E9200008AB
:10011000E9200008E9200008E9200008E92000089B
:10012000E9200008E9200008E9200008E92000088B
:10013000E9200008E9200008E9200008E92000087B
:10014000E9200008E9200008E9200008F152000831
:10015000E9200008E9200008E9200008E92000085B
:10016000E9200008E9200008E9200008E92000084B
:10017000E9200008E9200008E9200008E92000083B
:10018000E9200008E920000880B485B000AF78605D
:100190004FF00003FB607B68DB684FF0FF325A6072
:1001A0007B68DB684FF0FF325A61FB6843F0004325
:1001B000FB60FB6843F40063FB607B68DB68FA6804
:1001C0009A6107F11407BD4680BC704780B586B0C0
:1001D00000AF78604FF00003FB744FF000037B61C9
:1001E0004FF00003FB604FF0030005F045F87B681B
:1001F000DB681B69FB607B6903F101037B617A6942
:100200004FF45463C0F203039A4202D94FF0000343
:100210002AE0FB6803F00043002BE4D04FF000031A
:100220007B61FB6843F00103FB607B68DB68FA6875
:100230001A617B68DB681B69FB607B6903F1010362
:100240007B617A694FF45463C0F203039A4205D884
:10025000FB6803F00103002BEBD100E000BF4FF07F
:10026000030005F009F8FB7C184607F11807BD46A6
:1002700080BD00BF80B489B000AFF860B960FA718A
:10028000BB804FF00003FB76FB68DB78002B2CD1A2
:100290004FF000037B614FF00003FB61BB8803F16B
:1002A0000303002B01DA03F103034FEAA3037B618D
:1002B000FB79FA6803F132034FEA8303D3189B6892
:1002C0003B614FF00003FB610BE0BB681A683B69C0
:1002D0001A60FB6903F10103FB61BB6803F10403CE
:1002E000BB60FA697B699A42EFD3FB7E184607F13F
:1002F0002407BD4680BC704780B489B000AFF86069
:10030000B9601346FB804FF00003FB61FB8803F1EB
:100310000303002B01DA03F103034FEAA303BB61DC
:10032000FB68D3F8D0307B614FF00003FB610BE03A
:100330007B691A68BB681A60FB6903F10103FB6102
:10034000BB6803F10403BB60FA69BB699A42EFD34F
:10035000BB68184607F12407BD4680BC704700BF44
:1003600080B487B000AF78600B46FB704FF000039D
:100370003B614FF00003FB737B684FF00002DA70C3
:100380007B684FF001029A707B684FF040029A80C0
:10039000FB78012B17D14FF0A0433B617B684FF0F6
:1003A0000102DA727B684FF008021A707B684FF026
:1003B00004025A707B684FF4A072DA807B684FF0B9
:1003C00002021A7217E0FB78002B14D14FF00003E1
:1003D000C4F204033B617B684FF00002DA727B6871
:1003E0004FF00C021A707B684FF006025A707B685F
:1003F0004FF4A062DA803A697B68DA603B6903F502
:1004000000631A467B681A614FF000037B6123E0AA
:100410007B694FEA43123B69D31803F510631A4610
:1004200079687B6903F104034FEA8303CB189A6070
:100430007B694FEA43123B69D31803F530631A46D0
:1004400079687B6903F114034FEA8303CB185A6080
:100450007B6903F101037B617B685B781A467B69EA
:100460009A42D5D83B6903F580631A467B685A6186
:100470003B6903F588631A467B68C3F8CC204FF0CC
:1004800000037B6113E07B694FEA43123B69D31899
:1004900003F5A0631A4679687B6903F122034FEAEA
:1004A0008303CB189A607B6903F101037B617B684E
:1004B0001B781A467B699A42E5D84FF000037B61AE
:1004C00013E07B694FEA03323B69D31803F580538D
:1004D0001A4679687B6903F132034FEA8303CB182C
:1004E0009A607B6903F101037B617B681B781A4684
:1004F0007B699A42E5D83B6903F560631A467B68DD
:10050000C3F80C21FB7B184607F11C07BD4680BCD5
:10051000704700BF80B588B000AF78604FF000032F
:10052000FB774FF00003BB614FF000037B614FF09E
:100530000003FB607B681B7A012B51D17B68DB6871
:100540009B6B7B617B696FF310437B617B685B7A9C
:10055000002B03D07B6943F480137B617B68DB68ED
:100560007A699A634FF00003BB617B68DB68DB68E4
:10057000BB61BB696FF38613BB61BB696FF39653B5
:10058000BB61BB6943F01003BB61BB696FF3C3037D
:10059000BB61BB696FF3C713BB61BB696FF35143A9
:1005A000BB61BB696FF3D343BB617B68DB68BA692E
:1005B000DA607868FFF70AFE7B68DB78012B40F091
:1005C0008980FB684FF0050262F34403FB60FB681F
:1005D00043F02003FB607B68DB68FA689A6079E08F
:1005E0007B68DB68DB68BB61BB6943F04003BB61D0
:1005F0007B68DB68BA69DA607868FFF7E7FD4FF07F
:1006000000037B617B6943F480337B617B681B7AE9
:10061000032B03D17B6943F400337B617B6943F493
:1006200080237B617B6943F400237B617B6943F416
:1006300000137B617B685B7A002B03D07B6943F4FA
:1006400080137B617B68DB687A699A634FF01400E2
:1006500004F03EFE7B68DB68DB68BB617B681B7A6D
:10066000032B03D1BB6943F48033BB617B68DB6838
:10067000BA69DA607B681B7A032B2BD17B68DB6855
:100680001B6B3B613B694FF0010262F39B633B6173
:100690003B696FF3D7533B613B6943F080533B6148
:1006A0003B694FF02D0262F316433B617B68DB68C8
:1006B0003A691A634FF0C80004F00AFE3B6943F43C
:1006C00000033B617B68DB683A691A634FF0C8003E
:1006D00004F0FEFD7B68DB78012B11D17B68DB68C1
:1006E0009B68FB60FB684FF0050262F34403FB600C
:1006F000FB6843F02003FB607B68DB68FA689A6064
:10070000FB7F184607F12007BD4680BD80B485B049
:1007100000AF78604FF00003FB734FF00003BB6045
:10072000BB6843F00103BB607B68DB687A68D26812
:100730009168BA680A439A60FB7B184607F1140770
:10074000BD4680BC704700BF80B485B000AF786004
:100750004FF00003FB734FF00003BB60BB6843F036
:100760000103BB607B68DB687A68D2689168BA680D
:100770006FEA02020A409A60FB7B184607F11407F1
:10078000BD4680BC704700BF80B586B000AF7860C2
:1007900039604FF00003FB744FF000037B614FF0B2
:1007A0000003FB60FB6843F02003FB603B68DBB2A7
:1007B00003F01F03DAB2FB6862F38A13FB607B6805
:1007C000DB68FA681A617B68DB681B69FB607B6920
:1007D00003F101037B617A694FF45463C0F20303B0
:1007E0009A4205D8FB6803F02003002BEBD100E010
:1007F00000BF4FF0030004F03FFDFB7C184607F1FB
:100800001807BD4680BD00BF80B586B000AF7860D8
:100810004FF00003FB744FF000037B614FF00003C7
:10082000FB60FB6843F01003FB607B68DB68FA68E1
:100830001A617B68DB681B69FB607B6903F101035C
:100840007B617A694FF45463C0F203039A4205D87E
:10085000FB6803F01003002BEBD100E000BF4FF06A
:10086000030004F009FDFB7C184607F11807BD469C
:1008700080BD00BF80B584B000AF78600B46FB70D0
:100880004FF00003FB737B68DB68DB68BB60BB6811
:100890006FF35D73BB60BB686FF39E73BB60FB78E7
:1008A000012B04D1BB6843F00053BB6006E0FB782A
:1008B000002B03D1BB6843F08043BB607B68DB68DF
:1008C000BA68DA604FF0320004F002FDFB7B184694
:1008D00007F11007BD4680BD80B483B000AF7860DB
:1008E0007B68DB685B6903F00103184607F10C07BE
:1008F000BD4680BC704700BF80B582B000AF786055
:100900007868FFF7E9FF0346012B14BF002301239A
:10091000DBB2184607F10807BD4680BD80B485B03C
:1009200000AF78604FF00003FB607B68DB685B69B9
:10093000FB607B68DB689B69FA681340FB60FB68BF
:10094000184607F11407BD4680BC704780B588B0D3
:1009500000AF78604FF00003FB764FF00003FB61BF
:100960004FF000037B614FF000033B614FF0000349
:10097000FB60786804F04EFC7B68D3F80C314FF0D4
:1009800000021A6078684FF0010100F00BF97B68F3
:100990005B691B68FB603B7B6FF382033B737B6887
:1009A0005B69FA681A607B68DB7A012B25D17B686A
:1009B000DB684FF080025A627B694FF0800262F37D
:1009C0000F037B617B694FF0600262F31F437B6121
:1009D0007B68DB687A699A623B694FF0E00262F3F8
:1009E0000F033B613B694FF0600262F31F433B61C1
:1009F0007B68DB683A69C3F8002178684FF0100122
:100A0000FFF7C2FE7868FFF7FFFE4FF00003FB61BF
:100A100019E07A68FB6903F122034FEA8303D318D4
:100A20009B684FF0FF329A607A68FB6903F12203FA
:100A30004FEA8303D3189B684FF00002DA60FB692A
:100A400003F10103FB617B681B781A46FB699A423C
:100A5000DFD878684FF0010100F01EF8786800F0E8
:100A60005BF8FB7E184607F12007BD4680BD00BF3E
:100A700080B483B000AF78607B685B699B6803F0EB
:100A80000103002B14BF00230123DBB2184607F13A
:100A90000C07BD4680BC704780B584B000AF78605D
:100AA0000B46FB704FF00003FB60FB78786819463B
:100AB00004F092FB786800F091F80346FB607B7BC2
:100AC00003F01003DBB2002B0BD1FB78012B08D114
:100AD000FB6843F48053FB607B68D3F8CC30FA6842
:100AE0001A607B7B03F01003DBB2002B0BD0FB788A
:100AF000002B08D1FB686FF30C33FB607B68D3F8E5
:100B0000CC30FA681A604FF0C80004F0E1FB07F13E
:100B10001007BD4680BD00BF80B584B000AF7860CF
:100B20004FF00003FB734FF00003BB607B68DB6892
:100B30004FF000029A617B68DB684FF0FF325A6128
:100B40007868FFF721FB7B68DB78002B03D1BB685B
:100B500043F01003BB60BB6843F08073BB60BB68AD
:100B600043F00073BB60BB6843F00053BB60BB68DD
:100B700043F00803BB60BB6843F40013BB607B68B1
:100B8000DB687A68D2689169BA686FEA020211403C
:100B9000BA680A439A61FB7B184607F11007BD4605
:100BA00080BD00BF80B485B000AF78600B46FB709D
:100BB0007B685B691B68FB60FB7803F00303DAB2B8
:100BC0003B7B62F301033B737B685B69FA681A60E5
:100BD00007F11407BD4680BC704700BF80B485B0E4
:100BE00000AF78607B68D3F8CC301B68FB60FB6893
:100BF0006FF38203FB60FB686FF34103FB60FB68EC
:100C00006FF3C303FB60FB686FF34513FB60FB6886
:100C1000184607F11407BD4680BC704780B483B006
:100C200000AF78607B685B695B69184607F10C0769
:100C3000BD4680BC704700BF80B584B000AF78600F
:100C40007868FFF7CBFF0346FB60FB6843F48073D3
:100C5000FB607B68D3F8CC30FA681A604FF00A006A
:100C600004F036FBFB686FF30823FB607B68D3F866
:100C7000CC30FA681A604FF0140004F029FB4FF0F2
:100C80000103184607F11007BD4680BD80B489B046
:100C900000AF78600B46FB704FF00003FB774FF01E
:100CA0000003BB614FF000033B614FF000037B6129
:100CB0004FF00003FB604FF0FF33BB60FB787A68B6
:100CC00003F122034FEA8303D3189B68BA689A6042
:100CD0004FF000037B617B68DB78012B03D17B69DC
:100CE00043F004037B61FB787A684FEA4313D3181F
:100CF00003F52A735B7A032B00F28D8001A252F870
:100D000023F000BF150D0008CF0D0008150D0008D9
:100D1000810D00087B6943F001037B617B6943F02F
:100D200008037B617B6943F080037B617B6943F44B
:100D300080637B617B6943F010037B61FB787A6899
:100D40004FEA4313D31803F52A739B79002B04D081
:100D50007B6943F480737B6158E07B6943F0400317
:100D60007B61FB787A684FEA4313D31803F52A7343
:100D70001B7A002B4AD07B6943F020037B6145E05E
:100D80007B6943F001037B617B6943F010037B6166
:100D90007B6943F008037B617B6943F080037B61DF
:100DA0007B6943F480637B617B6943F400737B61FF
:100DB000FB787A684FEA4313D31803F52A739B79BB
:100DC000002B25D07B6943F480737B6120E07B6935
:100DD00043F001037B617B6943F400737B617B69B2
:100DE00043F020037B61FB787A684FEA4313D31802
:100DF00003F52A739B79002B0CD07B6943F08003A9
:100E00007B617B6943F480737B6103E000BF02E098
:100E100000BF00E000BFFB787A6803F122034FEACD
:100E20008303D3189B687A69DA60FB784FF001027C
:100E300002FA03F3BB617B685B697A685269916966
:100E4000BA690A439A613B6943F000733B617B686E
:100E5000DB687A68D26891693A690A439A614FF00F
:100E60000003FB60FB787A684FEA4313D31803F55D
:100E70002A731B7903F07F03DAB2FB6862F39C5399
:100E8000FB60FB787A684FEA4313D31803F52A73A3
:100E90005B7903F00F03DAB2FB6862F3CE23FB60E9
:100EA000FB787A684FEA4313D31803F52A739B79CA
:100EB00003F00103DAB2FB6862F3CF33FB60FB7827
:100EC0007A684FEA4313D31803F52A73DB79022BB0
:100ED00014BF00230123DAB2FB6862F35143FB60C5
:100EE000FB787A684FEA4313D31803F52A735B7AC9
:100EF00003F00303DAB2FB6862F39343FB60FB7811
:100F00007A684FEA4313D31803F52A735B894FEAD3
:100F100043534FEA53539AB2FB6862F30A03FB60F0
:100F2000FB787A684FEA4313D31803F52A735B7A88
:100F3000032B03D1FB6843F00053FB60FB787A6816
:100F400003F122034FEA8303D3189B68FA681A60FF
:100F5000FB7F184607F12407BD4680BC704700BFE1
:100F600080B58AB000AF78600B46FB704FF000038D
:100F700087F825304FF000037B844FF480733B8467
:100F80004FF00003BB614FF00003FB614FF0000323
:100F9000FB60FB787A684FEA4313D31803F52F738D
:100FA0001B68002B37D0FB787A684FEA4313D318BD
:100FB00003F52F731A68FB7879684FEA4313CB184F
:100FC00003F52A735B89D31803F1FF32FB78796844
:100FD0004FEA4313CB1803F52A735B89B2FBF3F393
:100FE000FB84FA8C3B8C9A4218D93B8CFB84FB78AF
:100FF000FA8CF97878684FEA4111411801F52A71A5
:10100000498901FB02F279684FEA4313CB1803F5D3
:101010002F731A6002E04FF00103FB84FB787A68BB
:101020004FEA4313D31803F52A739B79002B12D090
:10103000FB78FA8CF97878684FEA4111411801F58C
:101040002A71498901FB02F279684FEA4313CB18F0
:1010500003F52F731A60FB787A684FEA4313D318AD
:1010600003F52F731B6823F07F4222F47802BB69DB
:1010700062F31203BB61FB8C4FEA83534FEA935335
:101080009AB2BB6962F3DC43BB61FB787A6803F117
:101090000D034FEA4313D31803F588731B7903F04C
:1010A0000303DAB2BB6962F35E73BB61FB787A68F3
:1010B00003F122034FEA8303D3189B68BA691A61CC
:1010C0007B68DB78012B12D1FB787A6803F122036D
:1010D0004FEA8303D3189B68FA78796802F10D020E
:1010E0004FEA42128A1802F58C7212685A61FB7834
:1010F0007A6803F122034FEA8303D3189B681B68C5
:10110000FB617868FFF7B4FC034603F00103DAB231
:10111000FB6962F35D73FB61FB6943F00043FB61B4
:10112000FB696FF39E73FB61FB787A6803F122031E
:101130004FEA8303D3189B68FA691A607B68DB78EF
:10114000002B40F08980FB787A684FEA4313D3186C
:1011500003F52A739B79002B7ED1FB787A684FEADE
:101160004313D31803F52F731B68002B74D0FB783F
:101170007A684FEA4313D31803F52A735B7A032B7B
:101180004ED801A252F823F099110008DD11000891
:1011900099110008DD1100087B68DB68DB6A7B6160
:1011A000FB787A684FEA4313D31803F52F731B6853
:1011B00003F103034FEA93037B84BB8A7A8C9A4240
:1011C00030D9FB6843F02003FB607B68DB687A68FA
:1011D000D2689169FA680A439A6123E07B685B6987
:1011E0001B693B61FB787A684FEA4313D31803F518
:1011F0002F731B6803F103034FEA93037B843B8A3D
:101200007A8C9A4210D9FB6843F08063FB607B685C
:10121000DB687A68D2689169FA680A439A6103E0E8
:1012200000BF02E000BF00E000BFFB787A6803F176
:101230000D034FEA4313D31803F58C731968FB7839
:101240007A684FEA4313D31803F52F731B689BB2D8
:10125000FA787868FFF70EF897F82530184607F106
:101260002807BD4680BD00BF80B487B000AF78605E
:101270000B46FB704FF00003FB754FF000033B6122
:101280004FF00003FB60FB787A6803F122034FEA1A
:101290008303D3189B681B68BB60BB6843F00043A3
:1012A000BB60BB6843F08043BB60BB7A03F00C03B8
:1012B000DBB2002B05D0BB7A03F00C03DBB2082BAA
:1012C0000BD17B68DB68DB6A3B61BB7C002B0FD1F9
:1012D000BB686FF3DF73BB600AE07B685B691B6907
:1012E000FB60BB7B002B03D1BB686FF3DF73BB607C
:1012F000FB787A6803F122034FEA8303D3189B68D3
:10130000BA681A60FB7D184607F11C07BD4680BC11
:10131000704700BF80B487B000AF78600B46FB70A9
:101320004FF00003FB754FF00003FB60FB6843F0D8
:101330000043FB60FB684FF0010262F3DC43FB609B
:10134000FB787A6803F122034FEA8303D3189B6882
:10135000FA681A61FB787A6803F122034FEA830383
:10136000D3189B681B683B613B6943F000433B61BA
:101370003B696FF39E733B61FB787A6803F122034C
:101380004FEA8303D3189B683A691A60FB7D1846BD
:1013900007F11C07BD4680BC704700BF80B582B016
:1013A00002AF40F6B853C2F200034FF001021A70C8
:1013B00040F27003C2F20003009340F6BC50C2F248
:1013C00000004FF0010141F26C22C2F2000240F233
:1013D0005003C2F2000301F073FDBD4680BD00BFA3
:1013E00080B500AF40F6B853C2F200031B78032B60
:1013F00009D040F6BC50C2F2000041F26C21C2F2AA
:10140000000101F0D5FD40F6B853C2F200031B788D
:10141000184680BD80B582B000AF7860F970BA70B0
:101420007B70F878FB787A6803F511734FEA430311
:10143000D3189B88DBB203F07F03DAB279684FEAF6
:101440004013CB1803F52A735A71F878FB787A6841
:1014500003F511734FEA4303D3189B8803F080030D
:10146000002B0CBF00230123DBB21A4679684FEA38
:101470004013CB1803F52A739A71FB787A684FEA08
:101480004313D31803F52A73BA781A71FB787A6874
:101490004FEA4313D31803F52A733A7C5A72FB7848
:1014A0007A684FEA4313D31803F52A73BA8A5A812C
:1014B000FB787A684FEA4313D31803F52A737A78D6
:1014C000DA71FB787A6803F116034FEA4313D318F5
:1014D0004FF000021A71FB787A6803F116034FEAA5
:1014E0004313D3184FF000025A717B78002B09D1B7
:1014F000FB787A684FEA4313D31803F52A734FF049
:1015000001021A72FB7878681946FFF7BFFB4FF0AB
:101510000003184607F10807BD4680BD80B582B0BC
:1015200000AF7860F970BA707B70BB78002B08D080
:10153000FB787A684FEA4313D31803F52A73BA7815
:101540001A71FB787A684FEA4313D31803F52A73AC
:101550005B89BA8A9A420BD0BB8A002B08D0FB78F1
:101560007A684FEA4313D31803F52A73BA8A5A816B
:10157000FB787A684FEA4313D31803F52A73DB79B3
:101580007A789A420BD07B78002B08D0FB787A6867
:101590004FEA4313D31803F52A737A78DA71FB788C
:1015A00078681946FFF772FB4FF00003184607F101
:1015B0000807BD4680BD00BF80B584B000AF78602D
:1015C0000B46FB70786800F065F80346FB81FA89EA
:1015D0004FF6FF739A420ED0F889FB789BB26FEA00
:1015E00043436FEA53439AB2796800F511734FEAA7
:1015F0004303CB189A80FB89DBB2184607F110072A
:10160000BD4680BD80B483B000AF78600B46FB70F0
:10161000FB78072B14D8F878FB787A6803F51173F8
:101620004FEA4303D3189B884FEA43434FEA53439F
:101630009AB2796800F511734FEA4303CB189A8088
:101640004FF00003184607F10C07BD4680BC7047F9
:1016500080B485B000AF78604FF00203FB730DE0FB
:10166000FB7B7A6803F511734FEA4303D3184FF0FD
:1016700000029A80FB7B03F10103FB73FB7B072BCA
:10168000EED94FF00003184607F11407BD4680BCA1
:10169000704700BF80B485B000AF78604FF00003A2
:1016A000FB734FF00003FB7312E0FB7B7A6803F5DA
:1016B00011734FEA4303D3189B889BB21BB2002BD4
:1016C00002DBFB7B9BB208E0FB7B03F10103FB73B6
:1016D000FB7B072BE9D94FF6FF73184607F1140778
:1016E000BD4680BC704700BF80B588B002AFF860CF
:1016F000B9601346FB71FB6803F58872FB799BB2F6
:1017000000920193F868B9684FF000024FF48073BB
:1017100000F076F80346FB75FB7D002B0CD1BB680F
:1017200003F12201FB6803F58872FB799BB208463E
:1017300011461A4600F02AF9FB7D184607F11807F2
:10174000BD4680BD90B589B002AFF860B960134660
:10175000FB80FB6803F588730093FB880193F868AE
:10176000B9684FF000024FF4007300F049F80346E7
:10177000FB75FB7D002B0FD1BB6803F13400BB6808
:1017800003F13E01BB6803F15002FB6803F5887367
:10179000FC88009400F072F9FB7D184607F11C07E5
:1017A000BD4690BD80B588B002AFF860B9603B60BF
:1017B0001346FB71FB799BB243F440739BB2FA680A
:1017C00002F5887200923A8C0192F868B9684FF07D
:1017D000000200F015F80346FB75FB7D002B08D1D5
:1017E000FB6803F588723B8C104639681A4600F096
:1017F00051FAFB7D184607F11807BD4680BD00BFB2
:1018000080B584B000AFF860B960FA71BB80FB7935
:1018100063F07F03DAB2BB681A75BB684FF006024B
:101820005A75BB68BA88DA82BB8803F47F43B3F584
:10183000407F04D1BB6840F209421A8303E0BB68D1
:101840004FF000021A83BB68BA8B5A83BB8BF868CF
:10185000B968BA6907F08CFF0346184607F110070C
:10186000BD4680BD80B584B000AFF860B960134656
:10187000FB71BB684FF000021A75BB684FF00502A0
:101880005A75FB799AB2BB68DA82BB684FF00002E6
:101890001A83BB684FF000025A83F868B9684FF0AA
:1018A00000024FF0000307F063FF0346184607F1FC
:1018B0001007BD4680BD00BF80B584B000AFF860A2
:1018C000B9601346FB80BB684FF000021A75BB6815
:1018D0004FF009025A75BB68FA88DA82BB684FF08C
:1018E00000021A83BB684FF000025A83F868B96897
:1018F0004FF000024FF0000307F03AFF034618468E
:1019000007F11007BD4680BD80B584B000AFF86018
:10191000B960FA71BB71BB684FF002021A75BB68FF
:101920004FF001025A75BB684FF00002DA82FB7972
:101930009AB2BB681A83BB684FF000025A83FB79E6
:101940005BB2002B0ADABB79FA6803F116034FEA9F
:101950004313D3184FF000021A7109E0BB79FA68FB
:1019600003F116034FEA4313D3184FF000025A71E4
:10197000F868B9684FF000024FF0000307F0F8FE76
:101980000346184607F11007BD4680BD80B485B0F8
:1019900000AFF860B9601346FB80BB681A78FB683B
:1019A0001A70BB685A78FB685A70BB6803F102036F
:1019B0001B781A46BB6803F103031B784FEA032325
:1019C0009BB2D3189AB2FB685A80BB681A79FB683D
:1019D0001A71BB685A79FB685A71BB689A79FB68BF
:1019E0009A71BB68DA79FB68DA71FB88082B3FD9FA
:1019F000BB6803F108031B781A46BB6803F10903AF
:101A00001B784FEA03239BB2D3189AB2FB681A8162
:101A1000BB6803F10A031B781A46BB6803F10B038A
:101A20001B784FEA03239BB2D3189AB2FB685A8102
:101A3000BB6803F10C031B781A46BB6803F10D0366
:101A40001B784FEA03239BB2D3189AB2FB689A81A2
:101A5000BB689A7BFB689A73BB68DA7BFB68DA73B6
:101A6000BB681A7CFB681A74BB685A7CFB685A74A2
:101A700007F11407BD4680BC704700BF80B58AB02F
:101A800000AFF860B9607A603B603B687B623B689E
:101A90007B623B681A78FB681A703B685A78FB686F
:101AA0005A703B6803F102031B781A463B6803F146
:101AB00003031B784FEA03239BB2D3189AB2FB6847
:101AC0005A803B681A79FB681A713B685A79FB683F
:101AD0005A713B689A79FB689A713B68DA79FB68BE
:101AE000DA713B681A7AFB681A723B8E092B71D93E
:101AF0004FF00903FB82FB681B79022B6AD84FF079
:101B0000000387F823304FF00003FB61FB681B796B
:101B1000022B5FD858E007F11603786A194600F0E7
:101B2000F3F878627B6A5B78042B46D197F923201F
:101B300013464FEAC3039B18BA68D318FB61F869D0
:101B4000796A00F04BF84FF0000387F82230FB6908
:101B50001B79022B2AD823E007F11603786A19466D
:101B600000F0D2F878627B6A5B78052B11D197F987
:101B700022304FEAC3037A68D318BB61B869796A27
:101B800000F05AF897F8223003F1010387F8223069
:101B900006E07B6A1B781A46FB8AD3189BB2FB824D
:101BA00097F92220FB691B799A42D5DB97F82330FD
:101BB00003F1010387F8233006E07B6A1B781A469D
:101BC000FB8AD3189BB2FB8297F92320FB681B7911
:101BD0009A42A0DB07F12807BD4680BD80B483B0E0
:101BE00000AF786039603B681A787B681A703B6890
:101BF0005A787B685A703B689A787B689A703B6821
:101C0000DA787B68DA703B681A797B681A713B680E
:101C10005A797B685A713B689A797B689A713B68FC
:101C2000DA797B68DA713B681A7A7B681A7207F195
:101C30000C07BD4680BC704780B483B000AF7860AD
:101C400039603B681A787B681A703B685A787B6801
:101C50005A703B689A787B689A703B68DA787B6840
:101C6000DA703B6803F104031B781A463B6803F102
:101C700005031B784FEA03239BB2D3189AB27B6803
:101C80009A803B689A797B689A7107F10C07BD4688
:101C900080BC704780B487B000AFF860B96013466D
:101CA000FB80FB6803F101031B78032B26D1FB6843
:101CB0001B78A3F10202FB889A42B8BF1346BB828D
:101CC000FB6803F10203FB604FF00003FB820DE0B1
:101CD000FB8AFA68D3181A78BB681A70BB6803F1DC
:101CE0000103BB60FB8A03F10203FB82FA8ABB8A11
:101CF0009A42EDD3BB684FF000021A7007F11C073F
:101D0000BD4680BC704700BF80B485B000AF78602E
:101D100039603B681A887B681B78D3189AB23B6895
:101D20001A807B681B787A68D318FB60FB681846BA
:101D300007F11407BD4680BC704700BF80B483B074
:101D400000AF4FF000037B6011E041F6F013C2F2E8
:101D500000037A689B181A7841F2F023C2F200035C
:101D600079685B181A707B6803F101037B607A68FD
:101D700040F2FF339A42E8DD07F10C07BD4680BC14
:101D8000704700BF80B584B000AF0346FB71FB799C
:101D9000012B13D0022B02D0002B1ED02CE003F01D
:101DA000D3FBB860BB68002B03D14FF00003FB737B
:101DB00002E04FF00103FB73FB7B1FE001F0DAFD53
:101DC000B860BB68002B03D14FF00003FB7302E047
:101DD0004FF00103FB73FB7B10E001F04BFFB86099
:101DE000BB68002B03D14FF00003FB7302E04FF000
:101DF0000103FB73FB7B01E04FF00103184607F181
:101E00001007BD4680BD00BF80B584B000AF03465B
:101E1000FB71FB79012B13D0022B02D0002B1ED0BB
:101E20002CE003F09FFBB860BB68002B03D14FF0A0
:101E30000003FB7302E04FF00303FB73FB7B1FE027
:101E400001F0A6FDB860BB68002B03D14FF0000382
:101E5000FB7302E04FF00303FB73FB7B10E001F028
:101E60002DFFB860BB68002B03D14FF00003FB735C
:101E700002E04FF00303FB73FB7B01E04FF0010333
:101E8000184607F11007BD4680BD00BF80B586B07B
:101E900000AFB9607A600246FA73BB73FB7B012B1B
:101EA00017D0022B02D0002B26D038E0BB7BB868BD
:101EB00079681A4603F064FB38613B69002B03D153
:101EC0004FF00003FB7502E04FF00103FB75FB7D53
:101ED00027E0BB7BB86879681A4601F067FD386176
:101EE0003B69002B03D14FF00003FB7502E04FF07C
:101EF0000103FB75FB7D14E0BB7BB86879681A466B
:101F000001F000FF38613B69002B03D14FF0000363
:101F1000FB7502E04FF00103FB75FB7D01E04FF024
:101F20000403184607F11807BD4680BD80B586B08A
:101F300000AFB9607A600246FA73BB73FB7B012B7A
:101F400017D0022B02D0002B26D038E0BB7BB8681C
:101F500079681A4603F026FB38613B69002B03D1F0
:101F60004FF00003FB7502E04FF00103FB75FB7DB2
:101F700027E0BB7BB86879681A4601F029FD386113
:101F80003B69002B03D14FF00003FB7502E04FF0DB
:101F90000103FB75FB7D14E0BB7BB86879681A46CA
:101FA00001F008FF38613B69002B03D14FF00003BB
:101FB000FB7502E04FF00103FB75FB7D01E04FF084
:101FC0000403184607F11807BD4680BD80B400AF72
:101FD0004BF2C033C3F249431846BD4680BC70473C
:101FE00080B584B000AF0B463A600246FA71BB710F
:101FF000FB79012B16D0022B02D0002B24D035E028
:10200000BB791846396803F0DFFAB860BB68002B6B
:1020100003D14FF00003FB7302E04FF00103FB73A9
:10202000FB7B25E0BB791846396801F0E3FCB8601A
:10203000BB68002B03D14FF00003FB7302E04FF0AD
:102040000103FB73FB7B13E0BB791846396801F091
:1020500009FFB860BB68002B03D14FF00003FB738E
:1020600002E04FF00103FB73FB7B01E04FF0040340
:10207000184607F11007BD4680BD00BF80B582B08D
:1020800000AF41F21873C0F601037B6040F2000319
:10209000C2F200033B600BE07B681A683B681A6081
:1020A0003B6803F104033B607B6803F104037B603E
:1020B0003A6840F62C13C2F200039A42ECD3084867
:1020C00008494FF000028842B8BF40F8042BFFF6E1
:1020D000FAAF00F0D3F807F10807BD4680BD000055
:1020E0002C0900209822002080B400AFFEE700BF3A
:1020F00080B584B000AF4FF00003FB7362E0F97B62
:1021000040F20002C2F200020B464FEA83035B1862
:102110004FEA8303D31803F10C031B6818464FF0F2
:10212000010100F0BDF9F97B40F20002C2F20002A9
:102130000B464FEA83035B184FEA8303D31803F17E
:1021400008031B887B604FF001033B724FF00003D4
:10215000BB724FF00103FB724FF002037B72F97BFD
:1021600040F20002C2F200020B464FEA83035B1802
:102170004FEA8303D31803F104031A6807F1040339
:102180001046194601F046FCF97B40F20002C2F20B
:1021900000020B464FEA83035B184FEA8303D31810
:1021A00003F110031B78002B04D1FB7B184600F0D1
:1021B00011F803E0FB7B184600F036F8FB7B03F1D7
:1021C0000103FB73FB7B032B99D907F11007BD4675
:1021D00080BD00BF80B483B000AF0346FB71F979C6
:1021E00040F20002C2F200020B464FEA83035B1882
:1021F0004FEA8303D31803F104031868F97940F216
:102200000002C2F200020B464FEA83035B184FEA5A
:102210008303D31803F108031B88438307F10C07DA
:10222000BD4680BC704700BF80B483B000AF03469A
:10223000FB71F97940F20002C2F200020B464FEA4C
:1022400083035B184FEA8303D31803F10403186870
:10225000F97940F20002C2F200020B464FEA830312
:102260005B184FEA8303D31803F108031B88038329
:1022700007F10C07BD4680BC704700BF80B500AFBA
:1022800000F040FD4FF00003184680BD80B586B0D9
:1022900000AF0346FB714FF00203FB754FF01303D1
:1022A000BB75FB79002B09D14FF0000040F62C11D3
:1022B000C2F2000105F0BCFC0346BB75BB7D002BE0
:1022C0001BD1FB79002B0DD107F1100207F10C0394
:1022D00040F65C60C0F6010011461A4606F0F6FAB8
:1022E0000346BB75BB7D002B03D14FF00003FB758C
:1022F00006E04FF00303FB7502E04FF00203FB75AD
:10230000FB7D184607F11807BD4680BD80B584B037
:1023100000AF0346FB714FF00203FB734FF0130352
:10232000BB73FB79002B07D14FF000004FF0000189
:1023300005F07EFC0346BB73BB7B002B03D14FF043
:102340000003FB7302E04FF00203FB73FB7B1846B4
:1023500007F11007BD4680BD80B586B000AFF860BC
:10236000B9601346FB714FF00503FB754FF0130383
:10237000BB75FB79002B07D1F868B9684FF00102F3
:1023800005F088FC0346BB75FB79012B07D1F86883
:10239000B9684FF0020205F07DFC0346BB75FB797E
:1023A000022B07D1F868B9684FF0120205F072FCF1
:1023B0000346BB75FB79032B07D1F868B9684FF06A
:1023C0000A0205F067FC0346BB75BB7D002B17D1E5
:1023D0004FF00003FB75FB79012B02D0FB79022B38
:1023E00011D1FB68DB68F868194606F041F803462E
:1023F000BB75BB7D002B06D04FF00803FB7502E0D8
:102400004FF00503FB75FB7D184607F11807BD4625
:1024100080BD00BF80B584B000AF78604FF0060388
:10242000FB734FF01303BB73786806F00BF8034699
:10243000BB73BB7B002B03D14FF00003FB7302E0A7
:102440004FF00603FB73FB7B184607F11007BD46F0
:1024500080BD00BF80B584B000AF786039604FF0B8
:102460000703FB734FF00003BB603868796806F020
:10247000F7FBB860BB68002B08DB4FF00003FB7371
:102480004FF00A00796806F0C1FB02E04FF0070345
:10249000FB73FB7B184607F11007BD4680BD00BFEC
:1024A00080B483B000AF78600B46FB70FB78002BE4
:1024B0000CD04FF46053C4F202034FF46052C4F2E4
:1024C0000202116B7A680A431A630DE04FF46053FD
:1024D000C4F202034FF46052C4F20202116B7A6834
:1024E0006FEA02020A401A6307F10C07BD4680BC7E
:1024F000704700BF80B483B000AF78600B46FB70BC
:10250000FB78002B0CD04FF46053C4F202034FF45D
:102510006052C4F20202516B7A680A435A630DE0BA
:102520004FF46053C4F202034FF46052C4F202024B
:10253000516B7A686FEA02020A405A6307F10C078E
:10254000BD4680BC704700BF80B582B000AF4FF081
:1025500001004FF00101FFF7A3FF4FF000033B71B3
:102560004FF00003FB714FF001033B603B464FF01F
:102570000000C4F20200194601F04CFA07F1080706
:10258000BD4680BD90B587B002AF786039603B68CA
:10259000FB60FB6893F84330082B40F0A780FB6892
:1025A00093F84530502B40F0A180FB6893F85230EF
:1025B000DBB25BB2002B10DAFB6893F8522041F6D5
:1025C000F053C2F20003DA70FB68B3F8542041F60E
:1025D000F053C2F200039A800FE0FB6893F8522098
:1025E00041F6F053C2F200039A70FB68B3F854202E
:1025F00041F6F053C2F20003DA80FB6893F85A30D8
:10260000DBB25BB2002B10DAFB6893F85A2041F67C
:10261000F053C2F20003DA70FB68B3F85C2041F6B5
:10262000F053C2F200039A800FE0FB6893F85A203F
:1026300041F6F053C2F200039A70FB68B3F85C20D5
:1026400041F6F053C2F20003DA8041F6F053C2F2D1
:1026500000039B7878681946FEF7AEFF03461A46DA
:1026600041F6F053C2F200035A7041F6F053C2F241
:102670000003DB7878681946FEF79EFF03461A468A
:1026800041F6F053C2F200031A7041F6F053C2F261
:1026900000035978FB6893F82020FB6893F82140E9
:1026A00041F6F053C2F20003DB884FF002000090C5
:1026B000019378682346FEF7ADFE41F6F053C2F26F
:1026C00000031978FB6893F82020FB6893F82140F9
:1026D00041F6F053C2F200039B884FF002000090D5
:1026E000019378682346FEF795FE04E0FB68D3F873
:1026F00080301B6C98474FF00003184607F1140711
:10270000BD4690BD80B582B000AF7860396041F6BB
:10271000F053C2F200035B78002B18D041F6F0535F
:10272000C2F200035B7878681946FEF79DFD41F61A
:10273000F053C2F200035B7878681946FEF762FF37
:1027400041F6F053C2F200034FF000025A7041F616
:10275000F053C2F200031B78002B18D041F6F0535F
:10276000C2F200031B7878681946FEF77DFD41F63A
:10277000F053C2F200031B7878681946FEF742FF57
:1027800041F6F053C2F200034FF000021A7007F155
:102790000807BD4680BD00BF80B485B000AF78603B
:1027A00039604FF00003FB7342F26423C2F200036E
:1027B0004FF000021A70FB7B184607F11407BD4664
:1027C00080BC704780B586B000AF786039603B68E8
:1027D0003B614FF00103FB754FF00303FB734FF0B8
:1027E0000003BB73786806F0D9FA0346002B00F0AB
:1027F0005D8142F26423C2F200031B780A2B00F2CF
:102800004C8101A252F823F0352800084B2800081B
:102810009128000867290008A5290008E329000875
:10282000212A0008572A0008612A000825290008E3
:10283000932A0008786806F017FB42F26423C2F27C
:1028400000034FF001021A7030E17868396800F037
:1028500033F90346FB75FB7D002B06D142F264235E
:10286000C2F200034FF002021A70FB7D032B40F00E
:10287000168142F26423C2F200034FF002025A7042
:1028800042F26423C2F200034FF009021A7006E11B
:102890007868396800F038F90346FB75FB7D002B3A
:1028A0002DD141F6F053C2F200031A7A41F6F053EB
:1028B000C2F2000383F8482041F6F053C2F200034D
:1028C00093F84830002B13D040F66133C2F2000376
:1028D0001B78002B0CD140F66133C2F200034FF09D
:1028E00001021A703B69D3F880301B6C9847DDE019
:1028F00042F26423C2F200034FF003021A70FB7D20
:10290000032B40F0CE8042F26423C2F200034FF06A
:1029100003025A7042F26423C2F200034FF009022C
:102920001A70BEE03B695B79786839684FF0000245
:10293000FEF7EAFF0346FB75FB7D002B40F0B380FA
:1029400041F6F053C2F200034FF0000283F8482032
:1029500042F26423C2F200035A7842F26423C2F2C4
:1029600000031A709FE0786801F0BAFA0346FB731F
:10297000FB7B002B11D142F26423C2F200034FF023
:1029800004021A7040F66033C2F200034FF00002F6
:102990001A704FF00003FB7588E0FB7B184600F0CF
:1029A000DBF883E0786801F059FB0346FB73FB7B9F
:1029B000002B11D142F26423C2F200034FF0050252
:1029C0001A7040F66033C2F200034FF000021A7032
:1029D0004FF00003FB7569E0FB7B184600F0BCF884
:1029E00064E0786801F028FC0346FB73FB7B002B56
:1029F00011D142F26423C2F200034FF008021A70B0
:102A000040F66033C2F200034FF000021A704FF03C
:102A10000003FB754AE0FB7B184600F09DF845E09B
:102A2000786801F0E5FC0346FB73FB7B002B0DD1BE
:102A300042F26423C2F200035A7842F26423C2F2E3
:102A400000031A704FF00003FB752FE0FB7B184664
:102A500000F082F82AE07868396806F041FA25E04B
:102A60003B69D3F88030DB6B98470346BB73BB7B75
:102A7000002B07D142F26423C2F200034FF0080298
:102A80001A7012E0BB7B012B0FD14FF00603FB75D0
:102A90000BE04FF00403FB7508E000BF06E000BF49
:102AA00004E000BF02E000BF00E000BFFB7D18466D
:102AB00007F11807BD4680BD80B582B000AF7860D1
:102AC00039603B684FF021021A753B684FF0FF02F6
:102AD0005A753B684FF00002DA823B684FF0000203
:102AE0001A833B684FF000025A83786839684FF0C8
:102AF00000024FF0000306F03BFE0346184607F1C4
:102B00000807BD4680BD00BF80B582B000AF7860C9
:102B100039603B684FF0A1021A753B684FF0FE0226
:102B20005A753B684FF00002DA823B684FF00002B2
:102B30001A833B684FF001025A8378683968054A66
:102B40004FF0010306F014FE0346184607F108078C
:102B5000BD4680BDF81D002080B483B000AF0346A1
:102B6000FB71FB79012B2AD140F66033C2F20003DE
:102B70001B7803F10103DAB240F66033C2F20003BE
:102B80001A7040F66033C2F200031B78092B0ED88E
:102B900042F26423C2F200034FF006021A7042F2BE
:102BA0006423C2F200034FF00102DA7011E042F236
:102BB0006423C2F200034FF00A021A7009E0FB79A5
:102BC000022B06D142F26423C2F200034FF00A0244
:102BD0001A7007F10C07BD4680BC704780B596B0EF
:102BE00000AF4FF0000387F8573040F66063C0F63F
:102BF0000103FB6401F0CAFFFFF77AFAFEF7CEFB90
:102C000041F2F063C2F20003FB634FF400733B64D4
:102C10004FF000033B656AE0FEF7E2FB0346062B3C
:102C200059D14FF00000FFF7FFFA4FF00200FFF715
:102C3000D1FA97F85730002B43D14FF0010387F8B2
:102C400057304FF00100FFF7EFFA4FF00000FFF7A9
:102C50001DFB0346002B30D13B461846F96C05F0AE
:102C600073FD034687F84B3097F84B30002B20D18B
:102C70003A4607F124031046194605F0D5FD0346F0
:102C800087F84B3097F84B30002B12D197F82D3046
:102C9000002B0ED0FB6B1B78002B01D0FB6B03E0ED
:102CA00007F1240303F109037B64786C05F0F0FE5F
:102CB000DEE74FF00000FFF729FB4FF00100FFF7C0
:102CC00089FA4FF00300FFF7AFFA44F64133C0F240
:102CD0004C033B650BE04FF00000FFF77BFA4FF031
:102CE0000200FFF7A1FA3B6D03F101033B653A6D6A
:102CF00044F63F33C0F24C039A428DD907F158078E
:102D0000BD4680BD80B582B000AF01F03FFFFFF748
:102D1000EFF9FFF719FC00E000BF4FF00000FFF7EC
:102D200059FA4FF00200FFF755FA4FF00100FFF794
:102D300051FA4FF00300FFF74DFA4FF000037B60AC
:102D400045E07B6803F101037B607B68012B07D1C1
:102D50004FF00000FFF768FA4FF00300FFF73AFA70
:102D60007A6842F2A053C0F226039A4207D14FF08C
:102D70000100FFF759FA4FF00000FFF72BFA7A68CD
:102D800044F64033C0F24C039A4207D14FF00200A0
:102D9000FFF74AFA4FF00100FFF71CFA7A6847F292
:102DA000E003C0F272039A4207D14FF00300FFF72D
:102DB0003BFA4FF00200FFF70DFA7A6849F28063A0
:102DC000C0F298039A4202D14FF000037B604FF0AB
:102DD0000000C4F202004FF0010100F0BDFE034606
:102DE000002BAED04FF00000FFF7F4F94FF00200D7
:102DF000FFF7F0F94FF00100FFF7ECF94FF0030097
:102E0000FFF7E8F97A6842F29F53C0F226039A422C
:102E100002D806F011FC7FE77A6844F63F33C0F22F
:102E20004C039A4202D8FFF7D9FE75E77A6847F259
:102E3000DF03C0F272039A4204D801F09FFDFEF74F
:102E40007DFF69E77A6849F27F63C0F298039A428E
:102E50003FF662AF02F056FAFEF770FF5CE700BF84
:102E600080B485B000AF78607B68FB60FB68D3F806
:102E7000AC344FF001021A72FB68D3F8AC344FF057
:102E800000029A7207F11407BD4680BC704700BF6C
:102E900080B485B000AF78607B68FB60FB68D3F8D6
:102EA000AC344FF001025A72FB68D3F8AC344FF0E7
:102EB0000002DA7207F11407BD4680BC704700BFFC
:102EC00080B584B000AFF8607A603B600B46FB725F
:102ED000F86802F0F9F84FF0000002F09BF9F8688A
:102EE000796800F02BF87B683A68DA677B68BA6922
:102EF000C3F88020FA6840F26003C2F20003C2F80F
:102F0000AC34FB68D3F8AC344FF000021A72FB68A3
:102F1000D3F8AC344FF000025A72FB7AF8681946C5
:102F200005F0C6FE7B68D3F880301B689847F868C8
:102F300002F034F907F11007BD4680BD80B582B0BC
:102F400000AF786039603B684FF000021A703B6850
:102F50004FF000025A703B684FF000029A703B68D5
:102F60004FF00102DA703B684FF001021A773B68BC
:102F70004FF040029A713B684FF0000283F8202026
:102F80003B684FF0010283F821203B681B79786889
:102F90001946FEF737FB3B685B7978681946FEF700
:102FA00031FB4FF00003184607F10807BD4680BD0E
:102FB00090B587B002AF786039604FF00203FB73C1
:102FC0003B681B780C2B00F2058101A252F823F01C
:102FD0001D300008053000083B300008D5310008DE
:102FE000D5310008D53100080931000857310008F3
:102FF00087310008A53100082B310008D5310008C1
:10300000AF310008786805F0BBFE0346002B40F0A6
:10301000E3803B684FF000021A70DDE0786805F04D
:10302000BDFE0346002B00F0D9807868FEF710FB48
:103030003B684FF002021A70D0E03B68D3F8803052
:103040009B6898477B68D3F8AC344FF000025A7203
:103050007B68D3F8AC344FF001029A7278684FF075
:103060000001FEF7A9FA03461A463B685A717868D0
:103070004FF08001FEF7A0FA03461A463B681A712A
:10308000786805F07DFE0346002B40F0A9803B6880
:10309000D3F88030DB689847786805F05DFE03461A
:1030A000DAB23B6883F821203B684FF006021A70C1
:1030B0003B68D3F880309B693A6892F8212010462B
:1030C00098473B6819793B6893F820203B6893F850
:1030D0002130386880794FF00004009401907868BE
:1030E000FEF798F93B6859793B6893F820203B68D4
:1030F00093F82130386880794FF0000400940190F3
:103100007868FEF787F96BE07868396800F0C0F8F6
:103110000346002B66D13B68D3F880305B6B984741
:103120003B684FF00A021A705CE03B68D3F88030CD
:103130009B6B98470346012B56D13B68DB6F1B689E
:103140007868396898470346002B4DD13B684FF0AB
:1031500007021A7048E03B68DB6F9B687868396843
:1031600098470346FB73FB7BDBB2002B04D13B6823
:103170004FF008021A7038E0FB7BDBB23868194662
:1031800000F060F831E03B68DB6FDB687868396835
:1031900098470346FB73FB7BDBB23868194600F0A7
:1031A00051F822E07868396800F00EFA1DE078687E
:1031B0003968FFF7C3FE3B68D3F880305B689847F7
:1031C0003B68DB6F5B683A6802F120027868114661
:1031D00098470AE000BF08E000BF06E000BF04E037
:1031E00000BF02E000BF00E000BF786805F0D6FD38
:1031F0000346002B22D17B68D3F8AC34DB7A002B5A
:103200001CD13B68D3F880301B6998477B68D3F8A2
:10321000AC344FF00102DA7278683968FFF78EFE3D
:103220003B68D3F880305B6898473B68DB6F5B682E
:103230003A6802F1200278681146984707F11407AE
:10324000BD4690BD80B582B000AF78600B46FB7084
:10325000FB78052B02D0FB78042B09D17B68D3F8CF
:1032600080305B6C98477B684FF00C021A700BE063
:10327000FB78062B08D17B684FF00C021A707B6834
:10328000D3F880301B68984707F10807BD4680BD1A
:1032900080B596B002AF786039604FF0010387F8CF
:1032A0004F303B689B78092B00F2748101A252F8E1
:1032B00023F000BFDD3200084B3300087B330008E9
:1032C000F5330008133400084F340008AF34000809
:1032D0000D3500086B3500088B35000878683968B3
:1032E0004FF00802FEF700FA0346002B40F054812D
:1032F0003B6893F829203B689A71786805F040FD97
:103300003B684FF001029A703B685B793A689279AA
:103310004FF0000100910192786819464FF00002C9
:103320004FF00003FEF7FAF83B681B793A68927990
:103330004FF0000100910192786819464FF00002A9
:103340004FF00003FEF7EAF826E1786839684FF09D
:103350001202FEF7C9F90346002B40F01F813B68BB
:10336000D3F88030DB693A6802F1220210469847B0
:103370003B684FF002029A7010E1786839684FF0AC
:103380000102FEF76FFA0346002B40F009813B680B
:103390004FF0010283F820203B68D3F880301B6A8D
:1033A00098473B684FF003029A703B681A793B6874
:1033B00093F820304FF0000100914FF0000101918F
:1033C000786811461A464FF00003FEF7A7F83B68ED
:1033D0005A793B6893F820304FF0000100914FF08C
:1033E00000010191786811461A464FF00003FEF77C
:1033F00095F8D5E0786839684FF00902FEF7A2F930
:103400000346002B40F0CE803B684FF004029A70D8
:10341000C8E03B68DB8E786839681A46FEF792F997
:103420000346002B40F0C0803B68D3F880305B6AD5
:103430003A6802F134003A6802F13E013A6802F15A
:10344000500298473B684FF005029A70ACE03B6829
:1034500093F83030002B1CD03B6893F8302007F1F4
:103460000C034FF0FF01009178683968FEF79AF974
:103470000346002B40F09A803B68D3F880309B6A6B
:1034800007F10C02104698473B684FF006029A700D
:103490008CE03B68D3F880309B6A40F66460C0F6ED
:1034A000010098473B684FF006029A707EE03B6847
:1034B00093F83130002B1BD03B6893F8312007F193
:1034C0000C034FF0FF01009178683968FEF76AF944
:1034D0000346002B6CD13B68D3F88030DB6A07F1E0
:1034E0000C02104698473B684FF007029A705FE065
:1034F0003B68D3F88030DB6A40F66460C0F60100B8
:1035000098473B684FF007029A7051E03B6893F888
:103510003230002B1BD03B6893F8322007F10C03AC
:103520004FF0FF01009178683968FEF73BF90346D8
:10353000002B3FD13B68D3F880301B6B07F10C02A6
:10354000104698473B684FF008029A7032E03B689B
:10355000D3F880301B6B40F66460C0F601009847DA
:103560003B684FF008029A7024E03B6893F83930CA
:10357000786839681A46FEF79FF90346002B1BD17D
:103580003B684FF009029A7016E04FF0000387F88D
:103590004F3012E000BF10E000BF0EE000BF0CE0B3
:1035A00000BF0AE000BF08E000BF06E000BF04E083
:1035B00000BF02E000BF00E000BF97F84F301846A0
:1035C00007F15007BD4680BD80B584B000AF78607C
:1035D00039604FF00003FB734FF00003BB733B688F
:1035E0004FF000029A743B681B7F03F1FF330A2BF4
:1035F00000F2AF8101A252F823F000BF2936000883
:1036000047360008E7360008053700086B37000822
:10361000B33700080538000821380008953800083D
:10362000DB3800081B3900083B6803F114023B68D3
:103630005B79786811461A4606F0EEF83B684FF061
:1036400002021A7790E13B685B797868194605F0C9
:10365000C5FB0346BB73BB7B012B37D13B681B7D8E
:1036600023F07F037B733B685B8B002B13D040F60A
:103670006233C2F2000341F288321A807B7B802BD6
:1036800004D13B684FF003021A7717E03B684FF014
:1036900005021A7712E040F66233C2F200034FF0DF
:1036A00032021A807B7B802B04D13B684FF00902E9
:1036B0001A7703E03B684FF007021A77786805F045
:1036C0007BFB03469AB23B681A8244E1BB7B032B27
:1036D00040F041813B684FF00B021A773B684FF096
:1036E00005029A7437E13B6899683B689B89DAB2B6
:1036F0003B681B79786806F02FF93B684FF00402AD
:103700001A7731E13B681B797868194605F066FB4A
:103710000346BB73BB7B012B03D13B684FF009020F
:103720001A77BB7B042B04D13B685A783B681A702C
:1037300013E1BB7B032B04D13B684FF00B021A77DC
:103740000BE1786805F038FB02463B681B8AD21A09
:1037500040F66233C2F200031B889A4240F2FD80B9
:103760003B684FF00B021A77F7E03B685B793A68E9
:103770005279796802F116024FEA42128A18527998
:1037800082F00102D2B2796803F116034FEA4313C3
:10379000CB185A713B6899683B689B89DAB23B68E1
:1037A0005B79786806F076F83B684FF006021A7786
:1037B000DAE03B685B797868194605F00FFB034651
:1037C000BB73BB7B012B04D13B684FF007021A7718
:1037D000C5E0BB7B042B04D13B685A783B681A7068
:1037E000BDE0BB7B022B04D13B684FF005021A778A
:1037F000B5E0BB7B032B40F0B2803B684FF00B027F
:103800001A77ACE03B681B7978684FF000014FF005
:10381000000206F0A1F83B684FF008021A77A3E017
:103820003B681B797868194605F0D8FA0346BB73E4
:10383000BB7B012B04D13B685A783B681A7090E03F
:10384000BB7B032B04D13B684FF00B021A7788E057
:10385000786805F0B1FA02463B681B8AD21A40F636
:103860006233C2F200031B889A4204D93B684FF0CE
:103870000B021A7775E0BB7B042B72D13B685A7838
:103880003B681A703B684FF004029A744FF00303D0
:10389000FB7366E03B685B793A685279796802F1BC
:1038A00016024FEA42128A18527982F00102D2B20D
:1038B000796803F116034FEA4313CB185A713B683A
:1038C0005B7978684FF000014FF0000205F0E2FFED
:1038D0003B684FF00A021A7746E03B685B797868EC
:1038E000194605F07BFA0346BB73BB7B012B04D161
:1038F0003B685A783B681A7035E0BB7B022B04D1D9
:103900003B684FF009021A772DE0BB7B032B2AD1CD
:103910003B684FF00B021A7725E03B689B7B03F175
:103920000103DAB23B689A733B689B7B022B04D895
:103930003B684FF001021A7716E03B684FF008022F
:103940009A743B685A783B681A704FF00203FB7315
:103950000AE000BF08E000BF06E000BF04E000BFCF
:1039600002E000BF00E000BFFB7B184607F1100734
:10397000BD4680BD80B483B000AF4FF0FF337B60A5
:103980007B68184607F10C07BD4680BC704700BF36
:1039900080B483B000AF4FF0FF337B607B68184684
:1039A00007F10C07BD4680BC704700BF80B487B0EC
:1039B00000AFF860B9601346FB714FF0FF337B61D5
:1039C0007B69184607F11C07BD4680BC704700BFE5
:1039D00080B487B000AFF860B9601346FB714FF058
:1039E000FF337B617B69184607F11C07BD4680BC2D
:1039F000704700BF80B485B000AF03463960FB71EB
:103A00004FF0FF33FB60FB68184607F11407BD4613
:103A100080BC704780B487B000AF786039604FF0E9
:103A200000037B614FF000033B614FF00003FB603C
:103A30004FF000037B6186E07B694FF0010202FAE0
:103A400003F33B613B681A683B691340FB60FA680B
:103A50003B699A4273D17B681A687B694FEA4303DA
:103A60004FF0030101FA03F36FEA03031A407B6886
:103A70001A607B681A683B681B7919467B694FEAB4
:103A8000430301FA03F31A437B681A603B681B790E
:103A9000012B03D03B681B79022B34D17B689A68D9
:103AA0007B694FEA43034FF0030101FA03F36FEA26
:103AB00003031A407B689A607B689A683B685B796D
:103AC00019467B694FEA430301FA03F31A437B6803
:103AD0009A607B685A687B699BB24FF0010101FADA
:103AE00003F36FEA03031A407B685A607B685A68E5
:103AF0003B689B7919467B699BB201FA03F39BB241
:103B00001A437B685A607B68DA687B699BB24FEA2C
:103B100043034FF0030101FA03F36FEA03031A4072
:103B20007B68DA607B68DA683B68DB7919467B6919
:103B30004FEA430301FA03F31A437B68DA607B69B7
:103B400003F101037B617B690F2B7FF675AF07F1F2
:103B50001C07BD4680BC704780B485B000AF78605C
:103B60000B467B804FF00003FB737B681A697B88F0
:103B70001340002B03D04FF00103FB7302E04FF022
:103B80000003FB73FB7B184607F11407BD4680BC9E
:103B9000704700BF80B483B000AF78600B467B8075
:103BA0007B687A881A8307F10C07BD4680BC704792
:103BB00080B483B000AF78600B467B807B687A88E6
:103BC0005A8307F10C07BD4680BC704780B485B0AE
:103BD00000AF786013460A467A807B704FF000038E
:103BE000FB604FF00003BB607A787B8803F007032B
:103BF0004FEA830302FA03F3FB607B884FEAD303A7
:103C00009BB21A467B884FEAD3039BB219467B6866
:103C100001F1080153F821107B8803F007034FEAF4
:103C200083034FF00F0000FA03F36FEA0303194018
:103C30007B6802F1080243F822107B884FEAD30325
:103C40009BB21A467B6802F1080253F82220FB68F7
:103C50001343BB607B884FEAD3039BB21A467B6851
:103C600002F10802B96843F8221007F11407BD46B3
:103C700080BC704780B582B000AF4FF0FF337B60EF
:103C800040F6BC50C2F2000005F088F80346002B55
:103C90000AD040F6B853C2F200031B78062B03D1BA
:103CA0004FF000037B6002E04FF0FF337B607B68E6
:103CB000184607F10807BD4680BD00BF80B582B039
:103CC00000AF4FF0FF337B6040F6BC50C2F2000003
:103CD00005F064F80346002B0AD040F6B853C2F250
:103CE00000031B78062B03D14FF000037B6002E03A
:103CF0004FF0FF337B607B68184607F10807BD462D
:103D000080BD00BF80B586B000AFF860B9601346D3
:103D1000FB714FF0FF337B614FF00003FB7440F603
:103D2000BC50C2F2000005F039F80346002B2DD03C
:103D300040F6B853C2F200031B78062B26D1FB795C
:103D40004FEA432340F6BC50C2F20000F968BA685B
:103D500000F01AFD0346FB7440F6BC50C2F20000AE
:103D600041F26C21C2F2000105F0BAF840F6BC50F5
:103D7000C2F2000005F012F80346002B02D14FF00A
:103D80000103FB74FB7C032BD9D002E04FF001034D
:103D9000FB74FB7C002B03D14FF000037B6102E03E
:103DA0004FF0FF337B617B69184607F11807BD466A
:103DB00080BD00BF80B586B000AFF860B960134623
:103DC000FB714FF0FF337B614FF00003FB7440F653
:103DD000BC50C2F2000004F0E1FF0346002B2DD0DE
:103DE00040F6B853C2F200031B78062B26D1FB79AC
:103DF0004FEA432340F6BC50C2F20000F968BA68AB
:103E000000F0E8FB0346FB7440F6BC50C2F2000031
:103E100041F26C21C2F2000105F062F840F6BC509C
:103E2000C2F2000004F0BAFF0346002B02D14FF0AB
:103E30000103FB74FB7C032BD9D002E04FF001039C
:103E4000FB74FB7C002B03D14FF000037B6102E08D
:103E50004FF0FF337B617B69184607F11807BD46B9
:103E600080BD00BF80B485B000AF03463960FB71F0
:103E70004FF00003FB60FB79032B2AD801A252F814
:103E800023F000BFCB3E0008953E0008AB3E000883
:103E9000BB3E000842F24403C2F200031A683B68CA
:103EA0001A604FF00003FB6013E03B684FF40072B0
:103EB0001A804FF00003FB600BE03B684FF4007288
:103EC0001A604FF00003FB6003E04FF00003FB605B
:103ED00000BFFB68184607F11407BD4680BC704759
:103EE00080B584B000AF78604FF00303BB7378688F
:103EF00004F054FF0346002B00F0A98042F2642333
:103F0000C2F20003DB78012B02D0022B67D09CE0C9
:103F100042F27423C2F200034FF000029A6042F2B0
:103F20007423C2F200034FF000021A7342F27423AA
:103F3000C2F200034FF006029A7342F26423C2F207
:103F4000000342F25422C2F200029A6042F2642359
:103F5000C2F200034FF03F029A8142F26423C2F2A0
:103F600000034FF003029A704FF01003FB730CE054
:103F7000FA7B42F27423C2F200039B184FF0000256
:103F8000DA73FB7B03F1FF33FB73FB7B002BEFD179
:103F900042F27423C2F200034FF00002DA7342F2DD
:103FA0006423C2F200034FF001021A7142F264234B
:103FB000C2F200034FF007021A7042F26423C2F209
:103FC00000034FF00302DA7342F26423C2F20003EB
:103FD0004FF00202DA704FF00303BB7337E042F296
:103FE0006423C2F20003DB7B002B0AD142F264237C
:103FF000C2F200034FF00102DA704FF00003BB730E
:1040000024E042F26423C2F20003DB7B012B0AD1DD
:1040100042F26423C2F200034FF00102DA704FF063
:104020000103BB7312E042F26423C2F20003DB7BA4
:10403000022B0BD142F26423C2F200034FF00102C3
:10404000DA704FF00203BB7300E000E000BFBB7BFF
:10405000184607F11007BD4680BD00BF80B584B08B
:1040600000AF78604FF00303BB73786804F096FEEE
:104070000346002B00F0CF8042F26423C2F200031B
:10408000DB78012B02D0022B60D0C2E042F2742315
:10409000C2F200034FF008029A6042F27423C2F2A7
:1040A00000034FF080021A7342F27423C2F200033D
:1040B0004FF00A029A7342F26423C2F2000341F6FF
:1040C0004462C2F200029A6042F26423C2F2000328
:1040D0004FF004029A704FF01003FB730CE0FA7B70
:1040E00042F27423C2F200039B184FF00002DA730D
:1040F000FB7B03F1FF33FB73FB7B002BEFD142F221
:104100007423C2F200034FF02502DA7342F26423F3
:10411000C2F200034FF001021A7142F26423C2F2AC
:1041200000034FF007021A7042F26423C2F2000348
:104130004FF00302DA7342F26423C2F200034FF03D
:104140000202DA704FF00303BB7364E042F26423AF
:10415000C2F20003DB7B002B37D1324A41F64463C5
:10416000C2F200031B7813702F4A41F64463C2F277
:1041700000035B7813702D4A41F64463C2F20003DA
:104180009B78137042F24403C2F2000341F644628A
:10419000C2F20002D2781A70254A41F64463C2F294
:1041A00000039B791370234A41F64463C2F2000373
:1041B000DB79137042F26423C2F200034FF0010274
:1041C000DA704FF00003BB7324E042F26423C2F2C2
:1041D0000003DB7B012B0AD142F26423C2F200030D
:1041E0004FF00102DA704FF00103BB7312E042F2AC
:1041F0006423C2F20003DB7B022B0BD142F2642367
:10420000C2F200034FF00102DA704FF00203BB73F9
:1042100000E000E000BFBB7B184607F11007BD4679
:1042200080BD00BF47200020462000204520002000
:104230004D2000204C20002080B584B000AF786075
:104240004FF00303BB73786804F0A8FD0346002B0E
:1042500000F0C88042F26423C2F20003DB78012B35
:1042600002D0022B6ED0BBE042F27423C2F20003F4
:104270004FF03F029A6042F27423C2F200034FF003
:1042800080021A7342F27423C2F200034FF00A0252
:104290009A7342F26423C2F2000341F64462C2F20E
:1042A00000029A6042F26423C2F200034FF005025A
:1042B0009A704FF01003FB730CE0FA7B42F2742308
:1042C000C2F200039B184FF00002DA73FB7B03F18C
:1042D000FF33FB73FB7B002BEFD142F27423C2F25E
:1042E00000034FF01A02DA7342F27423C2F20003A1
:1042F0004FF03F025A7442F27423C2F200034FF0AF
:104300003F02DA7442F26423C2F200034FF001026A
:104310001A7142F26423C2F200034FF007021A70CE
:1043200042F26423C2F200034FF00302DA7342F256
:104330006423C2F200034FF00202DA704FF003036D
:10434000BB734FE042F26423C2F20003DB7B002B1D
:1043500022D141F64463C2F200039B78DBB25BB228
:10436000002B07DA42F24403C2F200034FF00102CD
:104370001A7306E042F24403C2F200034FF0000257
:104380001A7342F26423C2F200034FF00102DA70A2
:104390004FF00003BB7324E042F26423C2F2000337
:1043A000DB7B012B0AD142F26423C2F200034FF0FF
:1043B0000102DA704FF00103BB7312E042F2642392
:1043C000C2F20003DB7B022B0BD142F26423C2F268
:1043D00000034FF00102DA704FF00203BB7300E0FC
:1043E00000E000BFBB7B184607F11007BD4680BD4B
:1043F00080B584B000AF78604FF00303FB7378683A
:1044000004F0CCFC0346002B00F0D68042F264237B
:10441000C2F20003DB78012B02D0022B78D0C9E076
:1044200042F27423C2F200034FF03F029A6042F25C
:104430007423C2F200034FF080021A7342F2742315
:10444000C2F200034FF00A029A7342F26423C2F2EE
:10445000000341F64462C2F200029A6042F2642311
:10446000C2F200039A7842F26423C2F200035A7047
:1044700042F26423C2F200034FF006029A704FF03A
:104480001003BB730CE0BA7B42F27423C2F2000348
:104490009B184FF00002DA73BB7B03F1FF33BB7351
:1044A000BB7B002BEFD142F27423C2F200034FF02A
:1044B0000302DA7342F27423C2F200034FF00002E7
:1044C0001A7442F27423C2F200034FF03F02DA740E
:1044D00042F26423C2F200034FF001021A7142F269
:1044E0006423C2F200034FF007021A7042F2642301
:1044F000C2F200034FF00302DA7342F26423C2F205
:1045000000034FF00202DA704FF00303FB7353E035
:1045100042F26423C2F20003DB7B002B26D1294A3E
:1045200041F64463C2F200031B781370264A41F639
:104530004463C2F200035B781370244A41F644637B
:10454000C2F200039B781370214A41F64463C2F221
:104550000003DB78137042F26423C2F200034FF0D1
:104560000102DA704FF00003FB7324E042F264238F
:10457000C2F20003DB7B012B0AD142F26423C2F2B8
:1045800000034FF00102DA704FF00103FB7312E0F9
:1045900042F26423C2F20003DB7B022B0BD142F216
:1045A0006423C2F200034FF00102DA704FF00203FD
:1045B000FB7300E000E000BFFB7B184607F110072B
:1045C000BD4680BD4B2000204A200020492000200D
:1045D0004820002080B586B000AFF860B9607A60EE
:1045E0003B604FF00303BB75F86804F0D7FB03464C
:1045F000002B00F0C28042F26423C2F20003DB7899
:10460000012B03D0022B00F08380B4E042F274232C
:10461000C2F200033A689A6042F27423C2F20003C5
:104620004FF000021A7342F27423C2F200034FF0FB
:104630000A029A7342F26423C2F20003BA689A60D3
:104640004FF01003FB750CE0FA7D42F27423C2F2C6
:1046500000039B184FF00002DA73FB7D03F1FF3378
:10466000FB75FB7D002BEFD142F27423C2F20003F5
:104670004FF02A02DA73FA7942F27423C2F200038D
:104680005A74BA7942F27423C2F200039A747A79A6
:1046900042F27423C2F20003DA7407F104031A78B9
:1046A00042F27423C2F200031A753B684FEA5323A7
:1046B0009BB2BB827A7D42F27423C2F200039A75E8
:1046C00007F114031A7842F27423C2F20003DA7578
:1046D00042F26423C2F200034FF001021A7142F267
:1046E0006423C2F200034FF007021A7042F26423FF
:1046F000C2F200034FF00302DA7342F26423C2F203
:1047000000034FF00202DA704FF00303BB7534E090
:1047100042F26423C2F20003DB7B002B0AD142F297
:104720006423C2F200034FF00102DA704FF000037D
:10473000BB7521E042F26423C2F20003DB7B012B54
:1047400007D142F26423C2F200034FF00102DA7093
:1047500012E042F26423C2F20003DB7B022B0BD196
:1047600042F26423C2F200034FF00102DA704FF00C
:104770000203BB7500E000E000BFBB7D184607F1F7
:104780001807BD4680BD00BF80B586B000AFF86099
:10479000B9607A603B6040F26C03C2F200034FF0F4
:1047A00003021A70F86804F0F9FA0346002B00F0CF
:1047B000DB8042F26423C2F20003DB78012B03D0DA
:1047C000022B00F08780CDE042F27423C2F2000396
:1047D0003A689A6042F27423C2F200034FF08002FA
:1047E0001A7342F27423C2F200034FF00A029A7362
:1047F00042F26423C2F20003BA689A604FF01003D9
:10480000FB750CE0FA7D42F27423C2F200039B18A0
:104810004FF00002DA73FB7D03F1FF33FB75FB7D84
:10482000002BEFD142F27423C2F200034FF02802B2
:10483000DA73FA7942F27423C2F200035A74BA7935
:1048400042F27423C2F200039A747A7942F274231A
:10485000C2F20003DA7407F104031A7842F27423F7
:10486000C2F200031A753B684FEA53239BB2BB8226
:104870007A7D42F27423C2F200039A7507F11403A1
:104880001A7842F27423C2F20003DA7542F264230A
:10489000C2F200034FF001021A7142F26423C2F225
:1048A00000034FF007021A7042F26423C2F20003C1
:1048B0004FF00302DA7342F26423C2F200034FF0B6
:1048C0000202DA7040F26C03C2F200034FF00302FE
:1048D0001A7049E042F26423C2F20003DB7B002B32
:1048E00014D1F86804F05AFA0346002B0ED042F2B5
:1048F0006423C2F200034FF00102DA7040F26C034D
:10490000C2F200034FF000021A702AE042F2642360
:10491000C2F20003DB7B012B0DD1F86804F03EFAF4
:104920000346002B07D042F26423C2F200034FF08B
:104930000102DA7015E042F26423C2F20003DB7B6D
:10494000022B10D142F26423C2F200034FF00102A5
:10495000DA7040F26C03C2F200034FF002021A70E8
:1049600001E000E000E000BF40F26C03C2F200038F
:104970001B78184607F11807BD4680BD80B5ADF518
:10498000227D02AF4FF0000387F87F3240F6686364
:10499000C0F60103C7F8743200F0F8F8FDF7A8FB81
:1049A000FCF7FCFC41F2F063C2F20003C7F864328A
:1049B0004FF40073C7F868324FF00003C7F878323D
:1049C000D7E0FCF70DFD0346062B40F0C4804FF006
:1049D0000000FDF729FC4FF00200FDF7FBFB97F804
:1049E0007F32002B40F0AC804FF0010387F87F321C
:1049F0004FF00100FDF718FC4FF00000FDF746FCFA
:104A00000346002B40F0988007F10403184640F657
:104A10006C61C0F601014FF00302FDF79DFC0346F7
:104A2000002B40F0858007F10403184640F68061B2
:104A3000C0F60101FDF70EFD07F10403184640F62C
:104A4000B861C0F60101FDF705FD07F10403184642
:104A500040F6D861C0F60101FDF7FCFC07F1040344
:104A6000184640F6F861C0F60101FDF7F3FC07F5C2
:104A70000A731846D7F8741203F066FE034687F8E7
:104A8000733297F87332002B4DD100E000BF07F569
:104A90000A7207F513731046194603F0C5FE034664
:104AA00087F8733297F87332002B33D197F8553269
:104AB000002B2FD0D7F864321B78002B02D0D7F808
:104AC000643203E007F5137303F10903C7F86C328E
:104AD00097F8543203F01003002BD7D1D7F84C329B
:104AE000009341F6F000C2F2000040F62471C0F6D7
:104AF0000101D7F87422D7F86C3206F001FB41F2BD
:104B0000F020C2F2000041F6F001C2F2000106F00E
:104B10001FFBBBE707F10403184641F2F021C2F284
:104B20000001FDF797FC07F104031846FDF772FC3E
:104B30004FF00000FDF7EAFB4FF00100FDF74AFBE4
:104B40004FF00300FDF770FB44F64133C0F24C0315
:104B5000C7F878320DE04FF00000FDF73BFB4FF057
:104B60000200FDF761FBD7F8783203F10103C7F8C3
:104B70007832D7F8782244F63F33C0F24C039A4299
:104B80007FF61FAF07F52077BD4680BD80B500AF2B
:104B90004FF46053C4F202034FF46052C4F20202B5
:104BA000126842F001021A604FF46053C4F202032B
:104BB0004FF000029A604FF46053C4F202034FF4C6
:104BC0006052C4F20202126822F0847222F480322F
:104BD0001A604FF46053C4F2020343F21002C2F2AF
:104BE00000425A604FF46053C4F202034FF4605223
:104BF000C4F20202126822F480221A604FF4605359
:104C0000C4F202034FF00002DA6000F009F84FF43A
:104C10006D43CEF200034FF000629A6080BD00BF8A
:104C200080B483B000AF4FF000037B604FF000030F
:104C30003B604FF46053C4F202034FF46052C4F27D
:104C40000202126842F480321A604FF46053C4F2D8
:104C500002031B6803F400333B607B6803F101032C
:104C60007B603B68002B03D17B68B3F5A06FECD170
:104C70004FF46053C4F202031B6803F40033002BAB
:104C800003D04FF001033B6002E04FF000033B60B4
:104C90003B68012B40F082804FF46053C4F2020362
:104CA0004FF46052C4F20202126C42F080521A6455
:104CB0004FF4E043C4F200034FF4E042C4F20002B8
:104CC000126842F480421A604FF46053C4F2020347
:104CD0004FF46052C4F2020292689A604FF460533B
:104CE000C4F202034FF46052C4F20202926842F42A
:104CF00000429A604FF46053C4F202034FF46052D2
:104D0000C4F20202926842F4A0529A604FF46053D7
:104D1000C4F2020345F20842C0F240725A604FF4F6
:104D20006053C4F202034FF46052C4F202021268EC
:104D300042F080721A6000BF4FF46053C4F2020365
:104D40001B6803F00073002BF6D04FF47053C4F2CD
:104D5000020340F205621A604FF46053C4F202038A
:104D60004FF46052C4F20202926822F003029A6089
:104D70004FF46053C4F202034FF46052C4F20202D3
:104D8000926842F002029A6000BF4FF46053C4F28E
:104D900002039B6803F00C03082BF6D107F10C0704
:104DA000BD4680BC704700BF80B485B000AF78605E
:104DB00040F66433C2F200031B68002B08D140F6B2
:104DC0006433C2F2000342F69822C2F200021A6073
:104DD00040F66433C2F200031B68FB6040F66433A4
:104DE000C2F200031A687B68D21840F66433C2F23C
:104DF00000031A60FB68184607F11407BD4680BC23
:104E0000704700BF80B400AFBD4680BC704700BF94
:104E100080B400AF40F6B853C2F200034FF0010275
:104E20001A70BD4680BC704780B400AF40F6B853DE
:104E3000C2F200034FF001021A70BD4680BC7047F9
:104E400080B400AF40F6B853C2F200034FF0010245
:104E50001A70BD4680BC704780B400AFBD4680BCB0
:104E6000704700BF80B483B000AF0346FB71FB798D
:104E7000012B09D0FB79022B06D040F6B853C2F2C1
:104E800000034FF002021A7007F10C07BD4680BC08
:104E9000704700BF80B483B000AF786007F10C07A3
:104EA000BD4680BC704700BF80B400AFBD4680BC2B
:104EB000704700BF80B485B000AFF860B9607A6019
:104EC00007F11407BD4680BC704700BF80B483B0B3
:104ED00000AF786007F10C07BD4680BC704700BF8B
:104EE00080B483B000AF786007F10C07BD4680BC8A
:104EF000704700BF80B483B000AF786007F10C0743
:104F0000BD4680BC704700BF80B400AFBD4680BCCA
:104F1000704700BF80B400AF40F6B853C2F2000340
:104F20004FF003021A70BD4680BC704780B400AFDA
:104F30004FF001031846BD4680BC704780B400AFF7
:104F400040F6B853C2F200034FF005021A70BD4696
:104F500080BC704780B400AF40F66833C2F20003F3
:104F60001B78002B02D0012B1ED01CE040F6B8535A
:104F7000C2F200034FF006021A7042F24403C2F27A
:104F800000031B7B012B06D140F6B853C2F200038D
:104F90004FF004021A7040F66833C2F200034FF07B
:104FA00001021A7001E000E000BF4FF00003184654
:104FB000BD4680BC704700BF80B400AF40F6683388
:104FC000C2F200034FF000021A70BD4680BC704769
:104FD00080B485B000AF03463960FB80FB887F2B2F
:104FE00002D8FB88FB8130E03B68002B10D0FB88A7
:104FF000FF2B09D8FB88A3F1800240F63473C0F67A
:10500000010333F8123001E04FF00003FB811CE094
:105010004FF00003FB810DE0FA8940F63473C0F6CF
:10502000010333F81230FA889A4207D0FB8903F162
:105030000103FB81FB897F2BEED900E000BFFB89D8
:1050400003F180039BB2DBB2FB81FB89184607F1B9
:105050001407BD4680BC704780B485B000AF0346DE
:10506000FB804FF00003FB6003E0FB6803F10103EA
:10507000FB6041F23403C0F60103FA6833F81230E2
:10508000002B09D041F23403C0F60103FA6833F86B
:105090001230FA889A42E8D141F23403C0F6010393
:1050A000FA6833F81230002B07D041F21423C0F60F
:1050B0000103FA6833F8123000E0FB88184607F164
:1050C0001407BD4680BC704780B584B000AF7860DF
:1050D0004FF001004FF00101FDF7E2F94FF4D0531A
:1050E000BB604FF003037B734FF002033B734FF041
:1050F0000003BB734FF00003FB7307F108034FF08D
:105100000000C4F202001946FEF784FC4FF00000D4
:10511000C4F202004FF009014FF00A02FEF756FDFB
:105120004FF00000C4F202004FF00B014FF00A02F2
:10513000FEF74CFD4FF00000C4F202004FF00C01EE
:105140004FF00A02FEF742FD4FF48063BB604FF060
:105150000103BB734FF00103FB734FF003037B7339
:1051600007F108034FF00000C4F202001946FEF7F1
:1051700051FC4FF00000C4F202004FF00A014FF062
:105180000A02FEF723FD4FF080004FF00101FDF70A
:10519000B1F907F11007BD4680BD00BF80B584B0EE
:1051A00000AF78604FF4C06004F0DEFC4FF04303C2
:1051B0003B734FF001037B734FF00103BB734FF060
:1051C0000103FB7307F10C03184604F0E1FC07F13F
:1051D0001007BD4680BD00BF80B582B000AF7860CB
:1051E0000B46FB70FB78002B08D14FF40060C4F233
:1051F00002004FF00101FEF7CDFC07E04FF4006024
:10520000C4F202004FF00101FEF7D2FC07F10807DB
:10521000BD4680BD80B584B000AF78604FF004001B
:105220004FF00101FDF73CF94FF00103BB604FF077
:1052300003037B734FF001033B734FF00003BB7319
:105240004FF00003FB7307F108034FF40060C4F252
:1052500002001946FEF7DEFB4FF40060C4F20200C4
:105260004FF00101FEF796FC4FF0C80000F030F857
:1052700007F11007BD4680BD80B485B000AF7860EF
:105280004FF00003BB607A6813464FEA03139B1A82
:105290004FEAC3031A4644F62513C2F29243A3FB16
:1052A0000213D21A4FEA52029B184FEA9303FB6093
:1052B00000E000BFBB6803F10103BB60FA689342E2
:1052C000F7D900BF07F11407BD4680BC704700BF87
:1052D00080B582B000AF78607B684FF47A7202FBD1
:1052E00003F31846FFF7C8FF07F10807BD4680BD66
:1052F00080B500AF40F6BC50C2F2000004F0BAFC2A
:1053000080BD00BF80B5ADF5227D02AF4FF0000338
:1053100087F87F3241F2F433C0F60103C7F87432E4
:10532000FFF734FCFCF7E4FEFCF738F841F2F063D9
:10533000C2F20003C7F864324FF40073C7F8683252
:105340004FF00003C7F87832F1E0FCF749F8034664
:10535000062B40F0DE804FF00000FCF765FF4FF0B9
:105360000200FCF737FF97F87F32002B40F0C68031
:105370004FF0010387F87F324FF00100FCF754FF34
:105380004FF00000FCF782FF0346002B40F0B28094
:1053900007F10403184641F2F831C0F601014FF05D
:1053A0000302FCF7D9FF0346002B40F09F8007F172
:1053B0000403184641F21441C0F60101FDF74AF812
:1053C00007F10403184641F24C41C0F60101FDF714
:1053D00041F807F10403184641F26C41C0F601019F
:1053E000FDF738F807F10403184641F29841C0F67A
:1053F0000101FDF72FF807F50A731846D7F8741264
:1054000003F0A2F9034687F8733297F87332002B42
:1054100067D107F50A7207F513731046194603F0B2
:1054200003FA034687F8733297F87332002B4FD193
:1054300097F85532002B4BD0D7F864321B78002BED
:1054400002D0D7F8643203E007F5137303F10903C0
:10545000C7F86C3297F8543203F01003002B1BD1BD
:10546000D7F84C32009341F6F000C2F2000041F24E
:10547000C441C0F60101D7F87422D7F86C3205F0A8
:105480003FFE41F2F020C2F2000041F6F001C2F20C
:10549000000105F05DFEBCE7D7F84C32009341F601
:1054A000F000C2F2000041F2D441C0F60101D7F889
:1054B0007422D7F86C3205F023FE41F2F020C2F2DC
:1054C000000041F6F001C2F2000105F041FEA0E744
:1054D00007F10403184641F2F021C2F20001FCF783
:1054E000B9FF07F104031846FCF794FF4FF00000E2
:1054F000FCF70CFF4FF00100FCF76CFE4FF00300CF
:10550000FCF792FE44F64133C0F24C03C7F8783200
:105510000DE04FF00000FCF75DFE4FF00200FCF7DD
:1055200083FED7F8783203F10103C7F87832D7F851
:10553000782244F63F33C0F24C039A427FF605AF1F
:1055400007F52077BD4680BD80B483B000AF4FF033
:10555000FF337B607B68184607F10C07BD4680BCB3
:10556000704700BF80B483B000AF4FF0FF337B6063
:105570007B68184607F10C07BD4680BC704700BF2A
:1055800080B487B000AFF860B9601346FB714FF08C
:10559000FF337B617B69184607F11C07BD4680BC61
:1055A000704700BF80B487B000AFF860B9601346A1
:1055B000FB714FF0FF337B617B69184607F11C07D5
:1055C000BD4680BC704700BF80B485B000AF0346C5
:1055D0003960FB714FF0FF33FB60FB68184607F141
:1055E0001407BD4680BC704780B487B000AFF86038
:1055F000B9607A60FB687B61BB683B610BE03B692B
:105600001A787B691A707B6903F101037B613B693E
:1056100003F101033B617B68002B0CBF00230123D6
:10562000DBB27A6802F1FF327A60002BE7D107F132
:105630001C07BD4680BC704780B487B000AFF860DF
:10564000B9607A60FB687B6107E0BB68DAB27B69AE
:105650001A707B6903F101037B617B68002B0CBF2F
:1056600000230123DBB27A6802F1FF327A60002B5B
:10567000EBD107F11C07BD4680BC704780B489B0F0
:1056800000AFF860B9607A60FB68FB61BB68BB6122
:105690004FF000037B6100BF7B68002B0CBF002331
:1056A0000123DBB27A6802F1FF327A60002B16D058
:1056B000FB691B781A46BB691B78D31A7B617B692F
:1056C000002B14BF00230123DBB2FA6902F10102AF
:1056D000FA61BA6902F10102BA61002BDCD17B697F
:1056E000184607F12407BD4680BC704780B483B0DC
:1056F00000AF7860396003E07B6803F101037B60F1
:105700007B681B78002B05D07B681B781A463B68AA
:105710009A42F1D17B681B78184607F10C07BD4609
:1057200080BC704780B584B000AF78607B681B791F
:10573000002B41D07B681B6BFB607B685A787B68D1
:1057400003F1340310461946FA684FF00103FCF7E1
:10575000EDFB0346002B02D04FF001032EE07B68E7
:105760004FF000021A717B685A6AFB689A4223D88C
:105770007B685A6A7B68DB69D218FB689A421BD93E
:105780007B68DB78BB6014E07B68DB69FA68D31860
:10579000FB607B685A787B6803F134031046194636
:1057A000FA684FF00103FCF7C1FBBB6803F1FF335C
:1057B000BB60BB68012BE7D84FF00003184607F128
:1057C0001007BD4680BD00BF80B582B000AF7860D5
:1057D00039607B681A6B3B689A421DD07868FFF786
:1057E000A1FF0346002B02D04FF0010316E07B68B7
:1057F0005A787B6803F13403104619463A684FF033
:105800000103FCF743FB0346002B02D04FF00103DA
:1058100004E07B683A681A634FF00003184607F10A
:105820000807BD4680BD00BF80B584B000AF78607A
:105830007868FFF777FF0346FB73FB7B002B40F094
:10584000AB807B681B78032B40F097807B685B798B
:10585000002B00F092807B684FF000021A637B6897
:1058600003F1340318464FF000014FF40072FFF7C4
:10587000E3FE7B684FF0550283F832227B684FF0DD
:10588000AA0283F833227B684FF0520283F8342057
:105890007B684FF0520283F835207B684FF061023D
:1058A00083F836207B684FF0410283F837207B680D
:1058B0004FF0720283F818227B684FF0720283F86F
:1058C00019227B684FF0410283F81A227B684FF05F
:1058D000610283F81B227B681B69DAB27B6883F85C
:1058E0001C227B681B699BB24FEA13239BB2DAB27E
:1058F0007B6883F81D227B681B694FEA1343DAB289
:105900007B6883F81E227B681B694FEA1363DAB257
:105910007B6883F81F227B68DB68DAB27B6883F8D8
:1059200020227B68DB689BB24FEA13239BB2DAB27A
:105930007B6883F821227B68DB684FEA1343DAB285
:105940007B6883F822227B68DB684FEA1363DAB254
:105950007B6883F823227B6859787B6803F13402E3
:105960007B685B69084611461A464FF00103FCF755
:10597000DDFA7B684FF000025A717B685B7818464D
:105980004FF000014FF00002FCF72AFB0346002B0A
:1059900002D04FF00103FB73FB7B184607F11007A1
:1059A000BD4680BD80B483B000AF786039603B688D
:1059B000A3F102033B607B689B69A3F102023B6891
:1059C0009A4202D84FF0000307E07B689B783A6860
:1059D00002FB03F27B68DB6AD318184607F10C0759
:1059E000BD4680BC704700BF80B586B000AF786010
:1059F00039603B68012B04D97B689A693B689A42FD
:105A000002D84FF00103BCE07B681B78022B52D018
:105A1000032B78D0012B40F0B2803B687B617B691F
:105A20004FEA53037A69D3187B617B685A6A7B69B2
:105A30004FEA5323D31878681946FFF7C5FE03468B
:105A4000002B40F095807B694FEAC3534FEAD35354
:105A50007A68D31893F834303B617B6903F1010312
:105A60007B617B685A6A7B694FEA5323D318786855
:105A70001946FFF7A9FE0346002B7BD17B694FEA4D
:105A8000C3534FEAD3537A68D31893F834304FEAAC
:105A900003233A6913433B613B6803F00103002B86
:105AA00003D03B694FEA131304E03B694FEA035309
:105AB0004FEA135365E07B685A6A3B684FEA132349
:105AC000D31878681946FFF77FFE0346002B53D1A1
:105AD0003B684FEA43034FEAC3534FEAD35303F102
