:020000040800F2
:10000000B820002021200008AD200008AD20000805
:10001000AD200008AD200008AD2000080000000061
:10002000000000000000000000000000AD200008FB
:10003000AD20000800000000AD200008AD20000841
:10004000AD200008AD200008AD200008AD2000085C
:10005000AD200008AD200008AD200008AD2000084C
:10006000AD200008AD200008AD200008AD2000083C
:10007000AD200008AD200008AD200008AD2000082C
:10008000AD200008AD200008AD200008AD2000081C
:10009000AD200008AD200008AD200008AD2000080C
:1000A000AD200008AD200008AD200008AD200008FC
:1000B000AD200008AD200008AD200008AD200008EC
:1000C000AD200008AD200008AD200008AD200008DC
:1000D000AD200008AD200008AD200008AD200008CC
:1000E000AD200008AD200008AD200008AD200008BC
:1000F000AD200008AD200008AD200008AD200008AC
:10010000AD200008AD200008AD200008AD2000089B
:10011000AD200008AD200008AD200008AD2000088B
:10012000AD200008AD200008AD200008AD2000087B
:10013000AD200008AD200008AD200008AD2000086B
:10014000AD200008AD200008AD200008294D0008B2
:10015000AD200008AD200008AD200008AD2000084B
:10016000AD200008AD200008AD200008AD2000083B
:10017000AD200008AD200008AD200008AD2000082B
:10018000AD200008AD20000880B485B000AF7860D5
:100190004FF00003FB607B68DB684FF0FF325A6072
:1001A0007B68DB684FF0FF325A61FB6843F0004325
:1001B000FB60FB6843F40063FB607B68DB68FA6804
:1001C0009A6107F11407BD4680BC704780B586B0C0
:1001D00000AF78604FF00003FB744FF000037B61C9
:1001E0004FF00003FB604FF0030004F061FD7B68FB
:1001F000DB681B69FB607B6903F101037B617A6942
:100200004FF45463C0F203039A4202D94FF0000343
:100210002AE0FB6803F00043002BE4D04FF000031A
:100220007B61FB6843F00103FB607B68DB68FA6875
:100230001A617B68DB681B69FB607B6903F1010362
:100240007B617A694FF45463C0F203039A4205D884
:10025000FB6803F00103002BEBD100E000BF4FF07F
:10026000030004F025FDFB7C184607F11807BD4686
:1002700080BD00BF80B489B000AFF860B960FA718A
:10028000BB804FF00003FB76FB68DB78002B2CD1A2
:100290004FF000037B614FF00003FB61BB8803F16B
:1002A0000303002B01DA03F103034FEAA3037B618D
:1002B000FB79FA6803F132034FEA8303D3189B6892
:1002C0003B614FF00003FB610BE0BB681A683B69C0
:1002D0001A60FB6903F10103FB61BB6803F10403CE
:1002E000BB60FA697B699A42EFD3FB7E184607F13F
:1002F0002407BD4680BC704780B489B000AFF86069
:10030000B9601346FB804FF00003FB61FB8803F1EB
:100310000303002B01DA03F103034FEAA303BB61DC
:10032000FB68D3F8D0307B614FF00003FB610BE03A
:100330007B691A68BB681A60FB6903F10103FB6102
:10034000BB6803F10403BB60FA69BB699A42EFD34F
:10035000BB68184607F12407BD4680BC704700BF44
:1003600080B487B000AF78600B46FB704FF000039D
:100370003B614FF00003FB737B684FF00002DA70C3
:100380007B684FF001029A707B684FF040029A80C0
:10039000FB78012B17D14FF0A0433B617B684FF0F6
:1003A0000102DA727B684FF008021A707B684FF026
:1003B00004025A707B684FF4A072DA807B684FF0B9
:1003C00002021A7217E0FB78002B14D14FF00003E1
:1003D000C4F204033B617B684FF00002DA727B6871
:1003E0004FF00C021A707B684FF006025A707B685F
:1003F0004FF4A062DA803A697B68DA603B6903F502
:1004000000631A467B681A614FF000037B6123E0AA
:100410007B694FEA43123B69D31803F510631A4610
:1004200079687B6903F104034FEA8303CB189A6070
:100430007B694FEA43123B69D31803F530631A46D0
:1004400079687B6903F114034FEA8303CB185A6080
:100450007B6903F101037B617B685B781A467B69EA
:100460009A42D5D83B6903F580631A467B685A6186
:100470003B6903F588631A467B68C3F8CC204FF0CC
:1004800000037B6113E07B694FEA43123B69D31899
:1004900003F5A0631A4679687B6903F122034FEAEA
:1004A0008303CB189A607B6903F101037B617B684E
:1004B0001B781A467B699A42E5D84FF000037B61AE
:1004C00013E07B694FEA03323B69D31803F580538D
:1004D0001A4679687B6903F132034FEA8303CB182C
:1004E0009A607B6903F101037B617B681B781A4684
:1004F0007B699A42E5D83B6903F560631A467B68DD
:10050000C3F80C21FB7B184607F11C07BD4680BCD5
:10051000704700BF80B588B000AF78604FF000032F
:10052000FB774FF00003BB614FF000037B614FF09E
:100530000003FB607B681B7A012B51D17B68DB6871
:100540009B6B7B617B696FF310437B617B685B7A9C
:10055000002B03D07B6943F480137B617B68DB68ED
:100560007A699A634FF00003BB617B68DB68DB68E4
:10057000BB61BB696FF38613BB61BB696FF39653B5
:10058000BB61BB6943F01003BB61BB696FF3C3037D
:10059000BB61BB696FF3C713BB61BB696FF35143A9
:1005A000BB61BB696FF3D343BB617B68DB68BA692E
:1005B000DA607868FFF70AFE7B68DB78012B40F091
:1005C0008980FB684FF0050262F34403FB60FB681F
:1005D00043F02003FB607B68DB68FA689A6079E08F
:1005E0007B68DB68DB68BB61BB6943F04003BB61D0
:1005F0007B68DB68BA69DA607868FFF7E7FD4FF07F
:1006000000037B617B6943F480337B617B681B7AE9
:10061000032B03D17B6943F400337B617B6943F493
:1006200080237B617B6943F400237B617B6943F416
:1006300000137B617B685B7A002B03D07B6943F4FA
:1006400080137B617B68DB687A699A634FF01400E2
:1006500004F05AFB7B68DB68DB68BB617B681B7A54
:10066000032B03D1BB6943F48033BB617B68DB6838
:10067000BA69DA607B681B7A032B2BD17B68DB6855
:100680001B6B3B613B694FF0010262F39B633B6173
:100690003B696FF3D7533B613B6943F080533B6148
:1006A0003B694FF02D0262F316433B617B68DB68C8
:1006B0003A691A634FF0C80004F026FB3B6943F423
:1006C00000033B617B68DB683A691A634FF0C8003E
:1006D00004F01AFB7B68DB78012B11D17B68DB68A7
:1006E0009B68FB60FB684FF0050262F34403FB600C
:1006F000FB6843F02003FB607B68DB68FA689A6064
:10070000FB7F184607F12007BD4680BD80B485B049
:1007100000AF78604FF00003FB734FF00003BB6045
:10072000BB6843F00103BB607B68DB687A68D26812
:100730009168BA680A439A60FB7B184607F1140770
:10074000BD4680BC704700BF80B485B000AF786004
:100750004FF00003FB734FF00003BB60BB6843F036
:100760000103BB607B68DB687A68D2689168BA680D
:100770006FEA02020A409A60FB7B184607F11407F1
:10078000BD4680BC704700BF80B586B000AF7860C2
:1007900039604FF00003FB744FF000037B614FF0B2
:1007A0000003FB60FB6843F02003FB603B68DBB2A7
:1007B00003F01F03DAB2FB6862F38A13FB607B6805
:1007C000DB68FA681A617B68DB681B69FB607B6920
:1007D00003F101037B617A694FF45463C0F20303B0
:1007E0009A4205D8FB6803F02003002BEBD100E010
:1007F00000BF4FF0030004F05BFAFB7C184607F1E2
:100800001807BD4680BD00BF80B586B000AF7860D8
:100810004FF00003FB744FF000037B614FF00003C7
:10082000FB60FB6843F01003FB607B68DB68FA68E1
:100830001A617B68DB681B69FB607B6903F101035C
:100840007B617A694FF45463C0F203039A4205D87E
:10085000FB6803F01003002BEBD100E000BF4FF06A
:10086000030004F025FAFB7C184607F11807BD4683
:1008700080BD00BF80B584B000AF78600B46FB70D0
:100880004FF00003FB737B68DB68DB68BB60BB6811
:100890006FF35D73BB60BB686FF39E73BB60FB78E7
:1008A000012B04D1BB6843F00053BB6006E0FB782A
:1008B000002B03D1BB6843F08043BB607B68DB68DF
:1008C000BA68DA604FF0320004F01EFAFB7B18467B
:1008D00007F11007BD4680BD80B483B000AF7860DB
:1008E0007B68DB685B6903F00103184607F10C07BE
:1008F000BD4680BC704700BF80B582B000AF786055
:100900007868FFF7E9FF0346012B14BF002301239A
:10091000DBB2184607F10807BD4680BD80B485B03C
:1009200000AF78604FF00003FB607B68DB685B69B9
:10093000FB607B68DB689B69FA681340FB60FB68BF
:10094000184607F11407BD4680BC704780B588B0D3
:1009500000AF78604FF00003FB764FF00003FB61BF
:100960004FF000037B614FF000033B614FF0000349
:10097000FB60786804F06AF97B68D3F80C314FF0BB
:1009800000021A6078684FF0010100F00BF97B68F3
:100990005B691B68FB603B7B6FF382033B737B6887
:1009A0005B69FA681A607B68DB7A012B25D17B686A
:1009B000DB684FF080025A627B694FF0800262F37D
:1009C0000F037B617B694FF0600262F31F437B6121
:1009D0007B68DB687A699A623B694FF0E00262F3F8
:1009E0000F033B613B694FF0600262F31F433B61C1
:1009F0007B68DB683A69C3F8002178684FF0100122
:100A0000FFF7C2FE7868FFF7FFFE4FF00003FB61BF
:100A100019E07A68FB6903F122034FEA8303D318D4
:100A20009B684FF0FF329A607A68FB6903F12203FA
:100A30004FEA8303D3189B684FF00002DA60FB692A
:100A400003F10103FB617B681B781A46FB699A423C
:100A5000DFD878684FF0010100F01EF8786800F0E8
:100A60005BF8FB7E184607F12007BD4680BD00BF3E
:100A700080B483B000AF78607B685B699B6803F0EB
:100A80000103002B14BF00230123DBB2184607F13A
:100A90000C07BD4680BC704780B584B000AF78605D
:100AA0000B46FB704FF00003FB60FB78786819463B
:100AB00004F0AEF8786800F091F80346FB607B7BA9
:100AC00003F01003DBB2002B0BD1FB78012B08D114
:100AD000FB6843F48053FB607B68D3F8CC30FA6842
:100AE0001A607B7B03F01003DBB2002B0BD0FB788A
:100AF000002B08D1FB686FF30C33FB607B68D3F8E5
:100B0000CC30FA681A604FF0C80004F0FDF807F125
:100B10001007BD4680BD00BF80B584B000AF7860CF
:100B20004FF00003FB734FF00003BB607B68DB6892
:100B30004FF000029A617B68DB684FF0FF325A6128
:100B40007868FFF721FB7B68DB78002B03D1BB685B
:100B500043F01003BB60BB6843F08073BB60BB68AD
:100B600043F00073BB60BB6843F00053BB60BB68DD
:100B700043F00803BB60BB6843F40013BB607B68B1
:100B8000DB687A68D2689169BA686FEA020211403C
:100B9000BA680A439A61FB7B184607F11007BD4605
:100BA00080BD00BF80B485B000AF78600B46FB709D
:100BB0007B685B691B68FB60FB7803F00303DAB2B8
:100BC0003B7B62F301033B737B685B69FA681A60E5
:100BD00007F11407BD4680BC704700BF80B485B0E4
:100BE00000AF78607B68D3F8CC301B68FB60FB6893
:100BF0006FF38203FB60FB686FF34103FB60FB68EC
:100C00006FF3C303FB60FB686FF34513FB60FB6886
:100C1000184607F11407BD4680BC704780B483B006
:100C200000AF78607B685B695B69184607F10C0769
:100C3000BD4680BC704700BF80B584B000AF78600F
:100C40007868FFF7CBFF0346FB60FB6843F48073D3
:100C5000FB607B68D3F8CC30FA681A604FF00A006A
:100C600004F052F8FB686FF30823FB607B68D3F84D
:100C7000CC30FA681A604FF0140004F045F84FF0D9
:100C80000103184607F11007BD4680BD80B489B046
:100C900000AF78600B46FB704FF00003FB774FF01E
:100CA0000003BB614FF000033B614FF000037B6129
:100CB0004FF00003FB604FF0FF33BB60FB787A68B6
:100CC00003F122034FEA8303D3189B68BA689A6042
:100CD0004FF000037B617B68DB78012B03D17B69DC
:100CE00043F004037B61FB787A684FEA4313D3181F
:100CF00003F52A735B7A032B00F28D8001A252F870
:100D000023F000BF150D0008CF0D0008150D0008D9
:100D1000810D00087B6943F001037B617B6943F02F
:100D200008037B617B6943F080037B617B6943F44B
:100D300080637B617B6943F010037B61FB787A6899
:100D40004FEA4313D31803F52A739B79002B04D081
:100D50007B6943F480737B6158E07B6943F0400317
:100D60007B61FB787A684FEA4313D31803F52A7343
:100D70001B7A002B4AD07B6943F020037B6145E05E
:100D80007B6943F001037B617B6943F010037B6166
:100D90007B6943F008037B617B6943F080037B61DF
:100DA0007B6943F480637B617B6943F400737B61FF
:100DB000FB787A684FEA4313D31803F52A739B79BB
:100DC000002B25D07B6943F480737B6120E07B6935
:100DD00043F001037B617B6943F400737B617B69B2
:100DE00043F020037B61FB787A684FEA4313D31802
:100DF00003F52A739B79002B0CD07B6943F08003A9
:100E00007B617B6943F480737B6103E000BF02E098
:100E100000BF00E000BFFB787A6803F122034FEACD
:100E20008303D3189B687A69DA60FB784FF001027C
:100E300002FA03F3BB617B685B697A685269916966
:100E4000BA690A439A613B6943F000733B617B686E
:100E5000DB687A68D26891693A690A439A614FF00F
:100E60000003FB60FB787A684FEA4313D31803F55D
:100E70002A731B7903F07F03DAB2FB6862F39C5399
:100E8000FB60FB787A684FEA4313D31803F52A73A3
:100E90005B7903F00F03DAB2FB6862F3CE23FB60E9
:100EA000FB787A684FEA4313D31803F52A739B79CA
:100EB00003F00103DAB2FB6862F3CF33FB60FB7827
:100EC0007A684FEA4313D31803F52A73DB79022BB0
:100ED00014BF00230123DAB2FB6862F35143FB60C5
:100EE000FB787A684FEA4313D31803F52A735B7AC9
:100EF00003F00303DAB2FB6862F39343FB60FB7811
:100F00007A684FEA4313D31803F52A735B894FEAD3
:100F100043534FEA53539AB2FB6862F30A03FB60F0
:100F2000FB787A684FEA4313D31803F52A735B7A88
:100F3000032B03D1FB6843F00053FB60FB787A6816
:100F400003F122034FEA8303D3189B68FA681A60FF
:100F5000FB7F184607F12407BD4680BC704700BFE1
:100F600080B58AB000AF78600B46FB704FF000038D
:100F700087F825304FF000037B844FF480733B8467
:100F80004FF00003BB614FF00003FB614FF0000323
:100F9000FB60FB787A684FEA4313D31803F52F738D
:100FA0001B68002B37D0FB787A684FEA4313D318BD
:100FB00003F52F731A68FB7879684FEA4313CB184F
:100FC00003F52A735B89D31803F1FF32FB78796844
:100FD0004FEA4313CB1803F52A735B89B2FBF3F393
:100FE000FB84FA8C3B8C9A4218D93B8CFB84FB78AF
:100FF000FA8CF97878684FEA4111411801F52A71A5
:10100000498901FB02F279684FEA4313CB1803F5D3
:101010002F731A6002E04FF00103FB84FB787A68BB
:101020004FEA4313D31803F52A739B79002B12D090
:10103000FB78FA8CF97878684FEA4111411801F58C
:101040002A71498901FB02F279684FEA4313CB18F0
:1010500003F52F731A60FB787A684FEA4313D318AD
:1010600003F52F731B6823F07F4222F47802BB69DB
:1010700062F31203BB61FB8C4FEA83534FEA935335
:101080009AB2BB6962F3DC43BB61FB787A6803F117
:101090000D034FEA4313D31803F588731B7903F04C
:1010A0000303DAB2BB6962F35E73BB61FB787A68F3
:1010B00003F122034FEA8303D3189B68BA691A61CC
:1010C0007B68DB78012B12D1FB787A6803F122036D
:1010D0004FEA8303D3189B68FA78796802F10D020E
:1010E0004FEA42128A1802F58C7212685A61FB7834
:1010F0007A6803F122034FEA8303D3189B681B68C5
:10110000FB617868FFF7B4FC034603F00103DAB231
:10111000FB6962F35D73FB61FB6943F00043FB61B4
:10112000FB696FF39E73FB61FB787A6803F122031E
:101130004FEA8303D3189B68FA691A607B68DB78EF
:10114000002B40F08980FB787A684FEA4313D3186C
:1011500003F52A739B79002B7ED1FB787A684FEADE
:101160004313D31803F52F731B68002B74D0FB783F
:101170007A684FEA4313D31803F52A735B7A032B7B
:101180004ED801A252F823F099110008DD11000891
:1011900099110008DD1100087B68DB68DB6A7B6160
:1011A000FB787A684FEA4313D31803F52F731B6853
:1011B00003F103034FEA93037B84BB8A7A8C9A4240
:1011C00030D9FB6843F02003FB607B68DB687A68FA
:1011D000D2689169FA680A439A6123E07B685B6987
:1011E0001B693B61FB787A684FEA4313D31803F518
:1011F0002F731B6803F103034FEA93037B843B8A3D
:101200007A8C9A4210D9FB6843F08063FB607B685C
:10121000DB687A68D2689169FA680A439A6103E0E8
:1012200000BF02E000BF00E000BFFB787A6803F176
:101230000D034FEA4313D31803F58C731968FB7839
:101240007A684FEA4313D31803F52F731B689BB2D8
:10125000FA787868FFF70EF897F82530184607F106
:101260002807BD4680BD00BF80B487B000AF78605E
:101270000B46FB704FF00003FB754FF000033B6122
:101280004FF00003FB60FB787A6803F122034FEA1A
:101290008303D3189B681B68BB60BB6843F00043A3
:1012A000BB60BB6843F08043BB60BB7A03F00C03B8
:1012B000DBB2002B05D0BB7A03F00C03DBB2082BAA
:1012C0000BD17B68DB68DB6A3B61BB7C002B0FD1F9
:1012D000BB686FF3DF73BB600AE07B685B691B6907
:1012E000FB60BB7B002B03D1BB686FF3DF73BB607C
:1012F000FB787A6803F122034FEA8303D3189B68D3
:10130000BA681A60FB7D184607F11C07BD4680BC11
:10131000704700BF80B487B000AF78600B46FB70A9
:101320004FF00003FB754FF00003FB60FB6843F0D8
:101330000043FB60FB684FF0010262F3DC43FB609B
:10134000FB787A6803F122034FEA8303D3189B6882
:10135000FA681A61FB787A6803F122034FEA830383
:10136000D3189B681B683B613B6943F000433B61BA
:101370003B696FF39E733B61FB787A6803F122034C
:101380004FEA8303D3189B683A691A60FB7D1846BD
:1013900007F11C07BD4680BC704700BF80B582B016
:1013A00002AF42F20C53C2F201034FF001021A7075
:1013B00040F27003C2F20003009342F21050C2F2F6
:1013C00001004FF0010142F6C012C2F2010240F2E8
:1013D0005003C2F2000301F0E3FBBD4680BD00BF35
:1013E00080B500AF42F20C53C2F201031B78032B0D
:1013F00009D042F21050C2F2010042F6C011C2F20E
:10140000010101F045FC42F20C53C2F201031B78CA
:10141000184680BD80B582B000AF7860F970BA70B0
:101420007B70F878FB787A6803F511734FEA430311
:10143000D3189B88DBB203F07F03DAB279684FEAF6
:101440004013CB1803F52A735A71F878FB787A6841
:1014500003F511734FEA4303D3189B8803F080030D
:10146000002B0CBF00230123DBB21A4679684FEA38
:101470004013CB1803F52A739A71FB787A684FEA08
:101480004313D31803F52A73BA781A71FB787A6874
:101490004FEA4313D31803F52A733A7C5A72FB7848
:1014A0007A684FEA4313D31803F52A73BA8A5A812C
:1014B000FB787A684FEA4313D31803F52A737A78D6
:1014C000DA71FB787A6803F116034FEA4313D318F5
:1014D0004FF000021A71FB787A6803F116034FEAA5
:1014E0004313D3184FF000025A717B78002B09D1B7
:1014F000FB787A684FEA4313D31803F52A734FF049
:1015000001021A72FB7878681946FFF7BFFB4FF0AB
:101510000003184607F10807BD4680BD80B582B0BC
:1015200000AF7860F970BA707B70BB78002B08D080
:10153000FB787A684FEA4313D31803F52A73BA7815
:101540001A71FB787A684FEA4313D31803F52A73AC
:101550005B89BA8A9A420BD0BB8A002B08D0FB78F1
:101560007A684FEA4313D31803F52A73BA8A5A816B
:10157000FB787A684FEA4313D31803F52A73DB79B3
:101580007A789A420BD07B78002B08D0FB787A6867
:101590004FEA4313D31803F52A737A78DA71FB788C
:1015A00078681946FFF772FB4FF00003184607F101
:1015B0000807BD4680BD00BF80B584B000AF78602D
:1015C0000B46FB70786800F065F80346FB81FA89EA
:1015D0004FF6FF739A420ED0F889FB789BB26FEA00
:1015E00043436FEA53439AB2796800F511734FEAA7
:1015F0004303CB189A80FB89DBB2184607F110072A
:10160000BD4680BD80B483B000AF78600B46FB70F0
:10161000FB78072B14D8F878FB787A6803F51173F8
:101620004FEA4303D3189B884FEA43434FEA53439F
:101630009AB2796800F511734FEA4303CB189A8088
:101640004FF00003184607F10C07BD4680BC7047F9
:1016500080B485B000AF78604FF00203FB730DE0FB
:10166000FB7B7A6803F511734FEA4303D3184FF0FD
:1016700000029A80FB7B03F10103FB73FB7B072BCA
:10168000EED94FF00003184607F11407BD4680BCA1
:10169000704700BF80B485B000AF78604FF00003A2
:1016A000FB734FF00003FB7312E0FB7B7A6803F5DA
:1016B00011734FEA4303D3189B889BB21BB2002BD4
:1016C00002DBFB7B9BB208E0FB7B03F10103FB73B6
:1016D000FB7B072BE9D94FF6FF73184607F1140778
:1016E000BD4680BC704700BF80B588B002AFF860CF
:1016F000B9601346FB71FB6803F58872FB799BB2F6
:1017000000920193F868B9684FF000024FF48073BB
:1017100000F076F80346FB75FB7D002B0CD1BB680F
:1017200003F12201FB6803F58872FB799BB208463E
:1017300011461A4600F02AF9FB7D184607F11807F2
:10174000BD4680BD90B589B002AFF860B960134660
:10175000FB80FB6803F588730093FB880193F868AE
:10176000B9684FF000024FF4007300F049F80346E7
:10177000FB75FB7D002B0FD1BB6803F13400BB6808
:1017800003F13E01BB6803F15002FB6803F5887367
:10179000FC88009400F072F9FB7D184607F11C07E5
:1017A000BD4690BD80B588B002AFF860B9603B60BF
:1017B0001346FB71FB799BB243F440739BB2FA680A
:1017C00002F5887200923A8C0192F868B9684FF07D
:1017D000000200F015F80346FB75FB7D002B08D1D5
:1017E000FB6803F588723B8C104639681A4600F096
:1017F00051FAFB7D184607F11807BD4680BD00BFB2
:1018000080B584B000AFF860B960FA71BB80FB7935
:1018100063F07F03DAB2BB681A75BB684FF006024B
:101820005A75BB68BA88DA82BB8803F47F43B3F584
:10183000407F04D1BB6840F209421A8303E0BB68D1
:101840004FF000021A83BB68BA8B5A83BB8BF868CF
:10185000B968BA6906F0A4FA0346184607F11007FA
:10186000BD4680BD80B584B000AFF860B960134656
:10187000FB71BB684FF000021A75BB684FF00502A0
:101880005A75FB799AB2BB68DA82BB684FF00002E6
:101890001A83BB684FF000025A83F868B9684FF0AA
:1018A00000024FF0000306F07BFA0346184607F1EA
:1018B0001007BD4680BD00BF80B584B000AFF860A2
:1018C000B9601346FB80BB684FF000021A75BB6815
:1018D0004FF009025A75BB68FA88DA82BB684FF08C
:1018E00000021A83BB684FF000025A83F868B96897
:1018F0004FF000024FF0000306F052FA034618467C
:1019000007F11007BD4680BD80B584B000AFF86018
:10191000B960FA71BB71BB684FF002021A75BB68FF
:101920004FF001025A75BB684FF00002DA82FB7972
:101930009AB2BB681A83BB684FF000025A83FB79E6
:101940005BB2002B0ADABB79FA6803F116034FEA9F
:101950004313D3184FF000021A7109E0BB79FA68FB
:1019600003F116034FEA4313D3184FF000025A71E4
:10197000F868B9684FF000024FF0000306F010FA63
:101980000346184607F11007BD4680BD80B485B0F8
:1019900000AFF860B9601346FB80BB681A78FB683B
:1019A0001A70BB685A78FB685A70BB6803F102036F
:1019B0001B781A46BB6803F103031B784FEA032325
:1019C0009BB2D3189AB2FB685A80BB681A79FB683D
:1019D0001A71BB685A79FB685A71BB689A79FB68BF
:1019E0009A71BB68DA79FB68DA71FB88082B3FD9FA
:1019F000BB6803F108031B781A46BB6803F10903AF
:101A00001B784FEA03239BB2D3189AB2FB681A8162
:101A1000BB6803F10A031B781A46BB6803F10B038A
:101A20001B784FEA03239BB2D3189AB2FB685A8102
:101A3000BB6803F10C031B781A46BB6803F10D0366
:101A40001B784FEA03239BB2D3189AB2FB689A81A2
:101A5000BB689A7BFB689A73BB68DA7BFB68DA73B6
:101A6000BB681A7CFB681A74BB685A7CFB685A74A2
:101A700007F11407BD4680BC704700BF80B58AB02F
:101A800000AFF860B9607A603B603B687B623B689E
:101A90007B623B681A78FB681A703B685A78FB686F
:101AA0005A703B6803F102031B781A463B6803F146
:101AB00003031B784FEA03239BB2D3189AB2FB6847
:101AC0005A803B681A79FB681A713B685A79FB683F
:101AD0005A713B689A79FB689A713B68DA79FB68BE
:101AE000DA713B681A7AFB681A723B8E092B71D93E
:101AF0004FF00903FB82FB681B79022B6AD84FF079
:101B0000000387F823304FF00003FB61FB681B796B
:101B1000022B5FD858E007F11603786A194600F0E7
:101B2000F3F878627B6A5B78042B46D197F923201F
:101B300013464FEAC3039B18BA68D318FB61F869D0
:101B4000796A00F04BF84FF0000387F82230FB6908
:101B50001B79022B2AD823E007F11603786A19466D
:101B600000F0D2F878627B6A5B78052B11D197F987
:101B700022304FEAC3037A68D318BB61B869796A27
:101B800000F05AF897F8223003F1010387F8223069
:101B900006E07B6A1B781A46FB8AD3189BB2FB824D
:101BA00097F92220FB691B799A42D5DB97F82330FD
:101BB00003F1010387F8233006E07B6A1B781A469D
:101BC000FB8AD3189BB2FB8297F92320FB681B7911
:101BD0009A42A0DB07F12807BD4680BD80B483B0E0
:101BE00000AF786039603B681A787B681A703B6890
:101BF0005A787B685A703B689A787B689A703B6821
:101C0000DA787B68DA703B681A797B681A713B680E
:101C10005A797B685A713B689A797B689A713B68FC
:101C2000DA797B68DA713B681A7A7B681A7207F195
:101C30000C07BD4680BC704780B483B000AF7860AD
:101C400039603B681A787B681A703B685A787B6801
:101C50005A703B689A787B689A703B68DA787B6840
:101C6000DA703B6803F104031B781A463B6803F102
:101C700005031B784FEA03239BB2D3189AB27B6803
:101C80009A803B689A797B689A7107F10C07BD4688
:101C900080BC704780B487B000AFF860B96013466D
:101CA000FB80FB6803F101031B78032B26D1FB6843
:101CB0001B78A3F10202FB889A42B8BF1346BB828D
:101CC000FB6803F10203FB604FF00003FB820DE0B1
:101CD000FB8AFA68D3181A78BB681A70BB6803F1DC
:101CE0000103BB60FB8A03F10203FB82FA8ABB8A11
:101CF0009A42EDD3BB684FF000021A7007F11C073F
:101D0000BD4680BC704700BF80B485B000AF78602E
:101D100039603B681A887B681B78D3189AB23B6895
:101D20001A807B681B787A68D318FB60FB681846BA
:101D300007F11407BD4680BC704700BF80B584B072
:101D400000AF0346FB71FB79012B13D0022B02D0AD
:101D5000002B1ED02CE002F0F1FFB860BB68002B16
:101D600003D14FF00003FB7302E04FF00103FB735C
:101D7000FB7B1FE001F06EFCB860BB68002B03D159
:101D80004FF00003FB7302E04FF00103FB73FB7B9A
:101D900010E001F0C1FDB860BB68002B03D14FF02B
:101DA0000003FB7302E04FF00103FB73FB7B01E0D8
:101DB0004FF00103184607F11007BD4680BD00BF74
:101DC00080B584B000AF0346FB71FB79012B13D0C3
:101DD000022B02D0002B1ED02CE002F0BDFFB86019
:101DE000BB68002B03D14FF00003FB7302E04FF000
:101DF0000303FB73FB7B1FE001F03AFCB860BB6898
:101E0000002B03D14FF00003FB7302E04FF00303FC
:101E1000FB73FB7B10E001F0A3FDB860BB68002BF7
:101E200003D14FF00003FB7302E04FF00303FB7399
:101E3000FB7B01E04FF00103184607F11007BD4698
:101E400080BD00BF80B586B000AFB9607A60024641
:101E5000FA73BB73FB7B012B17D0022B02D0002B34
:101E600026D038E0BB7BB86879681A4602F082FF5A
:101E700038613B69002B03D14FF00003FB7502E092
:101E80004FF00103FB75FB7D27E0BB7BB8687968E9
:101E90001A4601F0FBFB38613B69002B03D14FF080
:101EA0000003FB7502E04FF00103FB75FB7D14E0BE
:101EB000BB7BB86879681A4601F076FD38613B69EA
:101EC000002B03D14FF00003FB7502E04FF001033C
:101ED000FB75FB7D01E04FF00403184607F118077E
:101EE000BD4680BD80B586B000AFB9607A6002465D
:101EF000FA73BB73FB7B012B17D0022B02D0002B94
:101F000026D038E0BB7BB86879681A4602F044FFF7
:101F100038613B69002B03D14FF00003FB7502E0F1
:101F20004FF00103FB75FB7D27E0BB7BB868796848
:101F30001A4601F0BDFB38613B69002B03D14FF01D
:101F40000003FB7502E04FF00103FB75FB7D14E01D
:101F5000BB7BB86879681A4601F07EFD38613B6941
:101F6000002B03D14FF00003FB7502E04FF001039B
:101F7000FB75FB7D01E04FF00403184607F11807DD
:101F8000BD4680BD80B584B000AF0B463A600246C6
:101F9000FA71BB71FB79012B16D0022B02D0002BFA
:101FA00024D035E0BB791846396802F007FFB860E5
:101FB000BB68002B03D14FF00003FB7302E04FF02E
:101FC0000103FB73FB7B25E0BB791846396801F000
:101FD00081FBB860BB68002B03D14FF00003FB739B
:101FE00002E04FF00103FB73FB7B13E0BB79184663
:101FF000396801F089FDB860BB68002B03D14FF050
:102000000003FB7302E04FF00103FB73FB7B01E075
:102010004FF00403184607F11007BD4680BD00BF0E
:1020200080B582B000AF42F2B803C2F200034FF0B5
:10203000FF321A6049F6A043C0F600037B6040F20D
:102040000003C2F200033B600BE07B681A683B6848
:102050001A603B6803F104033B607B6803F10403EF
:102060007B603A6840F2B803C2F200039A42ECD3B4
:102070000B480C494FF000028842B8BF40F8042BCF
:10208000FFF6FAAFDFF82000016841F4700101604B
:1020900002F0C6FA00F068F907F10807BD4680BDF6
:1020A000B8200120E82E012088ED00E080B400AFC8
:1020B000FEE700BF80B584B000AF4FF00003FB73B4
:1020C00062E0F97B40F20002C2F200020B464FEAE6
:1020D00083035B184FEA8303D31803F10C031B68D7
:1020E00018464FF0010100F0ABF9F97B40F2000215
:1020F000C2F200020B464FEA83035B184FEA8303E8
:10210000D31803F108031B887B604FF001033B7277
:102110004FF00003BB724FF00103FB724FF002035C
:102120007B72F97B40F20002C2F200020B464FEADA
:1021300083035B184FEA8303D31803F104031A687F
:1021400007F104031046194601F0D4FAF97B40F276
:102150000002C2F200020B464FEA83035B184FEA0B
:102160008303D31803F110031B78002B04D1FB7BEE
:10217000184600F011F803E0FB7B184600F036F833
:10218000FB7B03F10103FB73FB7B032B99D907F165
:102190001007BD4680BD00BF80B483B000AF0346CA
:1021A000FB71F97940F20002C2F200020B464FEADD
:1021B00083035B184FEA8303D31803F10403186801
:1021C000F97940F20002C2F200020B464FEA8303A3
:1021D0005B184FEA8303D31803F108031B8843837A
:1021E00007F10C07BD4680BC704700BF80B483B0C8
:1021F00000AF0346FB71F97940F20002C2F200021F
:102200000B464FEA83035B184FEA8303D31803F1AD
:1022100004031868F97940F20002C2F200020B468A
:102220004FEA83035B184FEA8303D31803F10803D3
:102230001B88038307F10C07BD4680BC704700BFB5
:1022400080B5ADF5167D00AF4FF0000387F857322B
:1022500049F23073C0F60003C7F8503202F0E0F9DB
:10226000FFF728FFFFF79AF807F10403C7F8403299
:102270004FF40073C7F84432FFF7B2F80346062B59
:1022800069D14FF00000FFF7B1FF4FF00200FFF7F8
:1022900083FF97F85732002B58D14FF0010387F88E
:1022A00057324FF00100FFF7A1FF4FF0000000F0A0
:1022B00061F80346002B45D107F501731846D7F89E
:1022C000501204F047FE034687F84F3297F84F321A
:1022D000002B33D100E000BF07F5017207F50A7348
:1022E0001046194604F0A6FE034687F84F3297F8C9
:1022F0004F32002B22D197F83132002B1ED097F8A5
:1023000031322E2B18D0D7F840321B78002B02D058
:10231000D7F8403203E007F50A7303F10903C7F861
:10232000483297F8303203F01003002BD3D1D7F89E
:10233000480204F0B3FFCEE700BFCCE74FF0000047
:1023400000F058F84FF00100FFF726FF4FF00300B0
:10235000FFF74CFFFEE74FF00000FFF71DFF4FF0C7
:102360000200FFF743FF87E780B500AFFFF768FF84
:10237000184680BD80B586B000AF0346FB714FF0B4
:102380000203FB754FF01303BB75FB79002B09D1DA
:102390004FF0000042F2B801C2F2010104F0A8FDC2
:1023A0000346BB75BB7D002B1BD1FB79002B0DD1E8
:1023B00007F1100207F10C0349F23470C0F6000077
:1023C00011461A4604F088FE0346BB75BB7D002B00
:1023D00003D14FF00003FB7506E04FF00303FB75DC
:1023E00002E04FF00203FB75FB7D184607F118076A
:1023F000BD4680BD80B584B000AF0346FB714FF091
:102400000203FB734FF01303BB73FB79002B07D15F
:102410004FF000004FF0000104F06AFD0346BB736B
:10242000BB7B002B03D14FF00003FB7302E04FF0A6
:102430000203FB73FB7B184607F11007BD4680BD06
:1024400080B483B000AF78600B46FB70FB78002B44
:102450000CD04FF46053C4F202034FF46052C4F244
:102460000202116B7A680A431A630DE04FF460535D
:10247000C4F202034FF46052C4F20202116B7A6894
:102480006FEA02020A401A6307F10C07BD4680BCDE
:10249000704700BF80B483B000AF78600B46FB701C
:1024A000FB78002B0CD04FF46053C4F202034FF4BE
:1024B0006052C4F20202516B7A680A435A630DE01B
:1024C0004FF46053C4F202034FF46052C4F20202AC
:1024D000516B7A686FEA02020A405A6307F10C07EF
:1024E000BD4680BC704700BF90B587B002AF786032
:1024F00039603B68FB60FB6893F84330082B40F081
:10250000A780FB6893F84530502B40F0A180FB6812
:1025100093F85230DBB25BB2002B10DAFB6893F811
:10252000522042F64423C2F20103DA70FB68B3F88A
:10253000542042F64423C2F201039A800FE0FB6864
:1025400093F8522042F64423C2F201039A70FB68CA
:10255000B3F8542042F64423C2F20103DA80FB6848
:1025600093F85A30DBB25BB2002B10DAFB6893F8B9
:102570005A2042F64423C2F20103DA70FB68B3F832
:102580005C2042F64423C2F201039A800FE0FB680C
:1025900093F85A2042F64423C2F201039A70FB6872
:1025A000B3F85C2042F64423C2F20103DA8042F61B
:1025B0004423C2F201039B7878681946FEF7FCFFBA
:1025C00003461A4642F64423C2F201035A7042F609
:1025D0004423C2F20103DB7878681946FEF7ECFF6A
:1025E00003461A4642F64423C2F201031A7042F629
:1025F0004423C2F201035978FB6893F82020FB685A
:1026000093F8214042F64423C2F20103DB884FF0E5
:1026100002000090019378682346FEF7FBFE42F625
:102620004423C2F201031978FB6893F82020FB6869
:1026300093F8214042F64423C2F201039B884FF0F5
:1026400002000090019378682346FEF7E3FE04E061
:10265000FB68D3F880301B6C98474FF00003184696
:1026600007F11407BD4690BD80B582B000AF786019
:10267000396042F64423C2F201035B78002B18D084
:1026800042F64423C2F201035B7878681946FEF7EC
:10269000EBFD42F64423C2F201035B7878681946E9
:1026A000FEF7B0FF42F64423C2F201034FF00002EE
:1026B0005A7042F64423C2F201031B78002B18D053
:1026C00042F64423C2F201031B7878681946FEF7EC
:1026D000CBFD42F64423C2F201031B787868194609
:1026E000FEF790FF42F64423C2F201034FF00002CE
:1026F0001A7007F10807BD4680BD00BF80B485B0E1
:1027000000AF786039604FF00003FB7342F6B863A6
:10271000C2F201034FF000021A70FB7B184607F16A
:102720001407BD4680BC704780B586B000AF7860A6
:1027300039603B683B614FF00103FB754FF00303C9
:10274000FB734FF00003BB73786804F0DBFE0346B5
:10275000002B00F05D8142F6B863C2F201031B78E2
:102760000A2B00F24C8101A252F823F099270008AD
:10277000AF270008F5270008CB2800080929000822
:102780004729000885290008BB290008C529000839
:1027900089280008F7290008786804F019FF42F634
:1027A000B863C2F201034FF001021A7030E1786899
:1027B000396800F033F90346FB75FB7D002B06D129
:1027C00042F6B863C2F201034FF002021A70FB7DB9
:1027D000032B40F0168142F6B863C2F201034FF0BA
:1027E00002025A7042F6B863C2F201034FF00902C6
:1027F0001A7006E17868396800F038F90346FB750D
:10280000FB7D002B2DD142F64423C2F201031A7A3C
:1028100042F64423C2F2010383F8482042F64423DF
:10282000C2F2010393F84830002B13D042F2ED239B
:10283000C2F201031B78002B0CD142F2ED23C2F24D
:1028400001034FF001021A703B69D3F880301B6C12
:102850009847DDE042F6B863C2F201034FF003028D
:102860001A70FB7D032B40F0CE8042F6B863C2F2B3
:1028700001034FF003025A7042F6B863C2F201033B
:102880004FF009021A70BEE03B695B7978683968DD
:102890004FF00002FFF738F80346FB75FB7D002B75
:1028A00040F0B38042F64423C2F201034FF000022D
:1028B00083F8482042F6B863C2F201035A7842F620
:1028C000B863C2F201031A709FE0786801F05AF908
:1028D0000346FB73FB7B002B11D142F6B863C2F2B7
:1028E00001034FF004021A7042F2EC23C2F201031A
:1028F0004FF000021A704FF00003FB7588E0FB7B7D
:10290000184600F0DBF883E0786801F0F9F9034637
:10291000FB73FB7B002B11D142F6B863C2F20103BB
:102920004FF005021A7042F2EC23C2F201034FF09D
:1029300000021A704FF00003FB7569E0FB7B18463C
:1029400000F0BCF864E0786801F0C8FA0346FB7355
:10295000FB7B002B11D142F6B863C2F201034FF0AA
:1029600008021A7042F2EC23C2F201034FF0000297
:102970001A704FF00003FB754AE0FB7B184600F02D
:102980009DF845E0786801F085FB0346FB73FB7B0F
:10299000002B0DD142F6B863C2F201035A7842F619
:1029A000B863C2F201031A704FF00003FB752FE009
:1029B000FB7B184600F082F82AE07868396804F05A
:1029C00043FE25E03B69D3F88030DB6B9847034634
:1029D000BB73BB7B002B07D142F6B863C2F2010385
:1029E0004FF008021A7012E0BB7B012B0FD14FF0A1
:1029F0000603FB750BE04FF00403FB7508E000BF16
:102A000006E000BF04E000BF02E000BF00E000BF3E
:102A1000FB7D184607F11807BD4680BD80B582B022
:102A200000AF786039603B684FF021021A753B684F
:102A30004FF0FF025A753B684FF00002DA823B68A4
:102A40004FF000021A833B684FF000025A83786807
:102A500039684FF000024FF0000305F0A1F903467A
:102A6000184607F10807BD4680BD00BF80B582B09B
:102A700000AF786039603B684FF0A1021A753B687F
:102A80004FF0FE025A753B684FF00002DA823B6855
:102A90004FF000021A833B684FF001025A837868B6
:102AA0003968054A4FF0010305F07AF903461846E4
:102AB00007F10807BD4680BD4C2A012080B483B0D1
:102AC00000AF0346FB71FB79012B2AD142F2EC23C4
:102AD000C2F201031B7803F10103DAB242F2EC23E4
:102AE000C2F201031A7042F2EC23C2F201031B7816
:102AF000092B0ED842F6B863C2F201034FF006026A
:102B00001A7042F6B863C2F201034FF00102DA70A4
:102B100011E042F6B863C2F201034FF00A021A70E4
:102B200009E0FB79022B06D142F6B863C2F2010339
:102B30004FF00A021A7007F10C07BD4680BC7047BF
:102B400080B485B000AF78607B68FB60FB68D3F829
:102B5000AC344FF001021A72FB68D3F8AC344FF07A
:102B600000029A7207F11407BD4680BC704700BF8F
:102B700080B485B000AF78607B68FB60FB68D3F8F9
:102B8000AC344FF001025A72FB68D3F8AC344FF00A
:102B90000002DA7207F11407BD4680BC704700BF1F
:102BA00080B584B000AFF8607A603B600B46FB7282
:102BB000F86801F0A5FF4FF0000002F047F8F86850
:102BC000796800F02BF87B683A68DA677B68BA6945
:102BD000C3F88020FA6840F26003C2F20003C2F832
:102BE000AC34FB68D3F8AC344FF000021A72FB68C7
:102BF000D3F8AC344FF000025A72FB7AF8681946E9
:102C000004F00AFC7B68D3F880301B689847F868AA
:102C100001F0E0FF07F11007BD4680BD80B582B02E
:102C200000AF786039603B684FF000021A703B6873
:102C30004FF000025A703B684FF000029A703B68F8
:102C40004FF00102DA703B684FF001021A773B68DF
:102C50004FF040029A713B684FF0000283F8202049
:102C60003B684FF0010283F821203B681B797868AC
:102C70001946FEF7C7FC3B685B7978681946FEF792
:102C8000C1FC4FF00003184607F10807BD4680BDA0
:102C900090B587B002AF786039604FF00203FB73E4
:102CA0003B681B780C2B00F2058101A252F823F03F
:102CB000FD2C0008E52C00081B2D0008B52E00088F
:102CC000B52E0008B52E0008E92D0008372E0008A3
:102CD000672E0008852E00080B2E0008B52E000870
:102CE0008F2E0008786804F0FFFB0346002B40F0AD
:102CF000E3803B684FF000021A70DDE0786804F072
:102D000001FC0346002B00F0D9807868FEF7A0FC98
:102D10003B684FF002021A70D0E03B68D3F8803075
:102D20009B6898477B68D3F8AC344FF000025A7226
:102D30007B68D3F8AC344FF001029A7278684FF098
:102D40000001FEF739FC03461A463B685A71786861
:102D50004FF08001FEF730FC03461A463B681A71BB
:102D6000786804F0C1FB0346002B40F0A9803B6863
:102D7000D3F88030DB689847786804F0A1FB0346FD
:102D8000DAB23B6883F821203B684FF006021A70E4
:102D90003B68D3F880309B693A6892F8212010464E
:102DA00098473B6819793B6893F820203B6893F873
:102DB0002130386880794FF00004009401907868E1
:102DC000FEF728FB3B6859793B6893F820203B6865
:102DD00093F82130386880794FF000040094019016
:102DE0007868FEF717FB6BE07868396800F0C0F888
:102DF0000346002B66D13B68D3F880305B6B984765
:102E00003B684FF00A021A705CE03B68D3F88030F0
:102E10009B6B98470346012B56D13B68DB6F1B68C1
:102E20007868396898470346002B4DD13B684FF0CE
:102E300007021A7048E03B68DB6F9B687868396866
:102E400098470346FB73FB7BDBB2002B04D13B6846
:102E50004FF008021A7038E0FB7BDBB23868194685
:102E600000F060F831E03B68DB6FDB687868396858
:102E700098470346FB73FB7BDBB23868194600F0CA
:102E800051F822E07868396800F00EFA1DE07868A1
:102E90003968FFF7C3FE3B68D3F880305B6898471A
:102EA0003B68DB6F5B683A6802F120027868114684
:102EB00098470AE000BF08E000BF06E000BF04E05A
:102EC00000BF02E000BF00E000BF786804F01AFB1A
:102ED0000346002B22D17B68D3F8AC34DB7A002B7D
:102EE0001CD13B68D3F880301B6998477B68D3F8C6
:102EF000AC344FF00102DA7278683968FFF78EFE61
:102F00003B68D3F880305B6898473B68DB6F5B6851
:102F10003A6802F1200278681146984707F11407D1
:102F2000BD4690BD80B582B000AF78600B46FB70A7
:102F3000FB78052B02D0FB78042B09D17B68D3F8F2
:102F400080305B6C98477B684FF00C021A700BE086
:102F5000FB78062B08D17B684FF00C021A707B6857
:102F6000D3F880301B68984707F10807BD4680BD3D
:102F700080B596B002AF786039604FF0010387F8F2
:102F80004F303B689B78092B00F2748101A252F804
:102F900023F000BFBD2F00082B3000085B30000875
:102FA000D5300008F33000082F3100088F310008B9
:102FB000ED3100084B3200086B3200087868396840
:102FC0004FF00802FEF790FB0346002B40F05481BF
:102FD0003B6893F829203B689A71786804F084FA7A
:102FE0003B684FF001029A703B685B793A689279CE
:102FF0004FF0000100910192786819464FF00002ED
:103000004FF00003FEF78AFA3B681B793A68927921
:103010004FF0000100910192786819464FF00002CC
:103020004FF00003FEF77AFA26E1786839684FF02E
:103030001202FEF759FB0346002B40F01F813B684C
:10304000D3F88030DB693A6802F1220210469847D3
:103050003B684FF002029A7010E1786839684FF0CF
:103060000102FEF7FFFB0346002B40F009813B689D
:103070004FF0010283F820203B68D3F880301B6AB0
:1030800098473B684FF003029A703B681A793B6897
:1030900093F820304FF0000100914FF000010191B2
:1030A000786811461A464FF00003FEF737FA3B687E
:1030B0005A793B6893F820304FF0000100914FF0AF
:1030C00000010191786811461A464FF00003FEF79F
:1030D00025FAD5E0786839684FF00902FEF732FB2F
:1030E0000346002B40F0CE803B684FF004029A70FC
:1030F000C8E03B68DB8E786839681A46FEF722FB29
:103100000346002B40F0C0803B68D3F880305B6AF8
:103110003A6802F134003A6802F13E013A6802F17D
:10312000500298473B684FF005029A70ACE03B684C
:1031300093F83030002B1CD03B6893F8302007F117
:103140000C034FF0FF01009178683968FEF72AFB05
:103150000346002B40F09A803B68D3F880309B6A8E
:1031600007F10C02104698473B684FF006029A7030
:103170008CE03B68D3F880309B6A49F23870C0F627
:10318000000098473B684FF006029A707EE03B686B
:1031900093F83130002B1BD03B6893F8312007F1B6
:1031A0000C034FF0FF01009178683968FEF7FAFAD6
:1031B0000346002B6CD13B68D3F88030DB6A07F103
:1031C0000C02104698473B684FF007029A705FE088
:1031D0003B68D3F88030DB6A49F23870C0F60000F3
:1031E00098473B684FF007029A7051E03B6893F8AC
:1031F0003230002B1BD03B6893F8322007F10C03D0
:103200004FF0FF01009178683968FEF7CBFA03466A
:10321000002B3FD13B68D3F880301B6B07F10C02C9
:10322000104698473B684FF008029A7032E03B68BE
:10323000D3F880301B6B49F23870C0F60000984715
:103240003B684FF008029A7024E03B6893F83930ED
:10325000786839681A46FEF72FFB0346002B1BD10E
:103260003B684FF009029A7016E04FF0000387F8B0
:103270004F3012E000BF10E000BF0EE000BF0CE0D6
:1032800000BF0AE000BF08E000BF06E000BF04E0A6
:1032900000BF02E000BF00E000BF97F84F301846C3
:1032A00007F15007BD4680BD80B584B000AF78609F
:1032B00039604FF00003FB734FF00003BB733B68B2
:1032C0004FF000029A743B681B7F03F1FF330A2B17
:1032D00000F2AF8101A252F823F000BF09330008C9
:1032E00027330008C7330008E53300084B340008D3
:1032F00093340008E53400080135000875350008EE
:10330000BB350008FB3500083B6803F114023B683D
:103310005B79786811461A4604F096FD3B684FF0D9
:1033200002021A7790E13B685B797868194604F0ED
:1033300009F90346BB73BB7B012B37D13B681B7D6F
:1033400023F07F037B733B685B8B002B13D042F22F
:10335000EE23C2F2010341F288321A807B7B802B7C
:1033600004D13B684FF003021A7717E03B684FF037
:1033700005021A7712E042F2EE23C2F201034FF087
:1033800032021A807B7B802B04D13B684FF009020C
:103390001A7703E03B684FF007021A77786804F069
:1033A000BFF803469AB23B681A8244E1BB7B032B09
:1033B00040F041813B684FF00B021A773B684FF0B9
:1033C00005029A7437E13B6899683B689B89DAB2D9
:1033D0003B681B79786804F0D7FD3B684FF0040226
:1033E0001A7731E13B681B797868194604F0AAF82E
:1033F0000346BB73BB7B012B03D13B684FF0090233
:103400001A77BB7B042B04D13B685A783B681A704F
:1034100013E1BB7B032B04D13B684FF00B021A77FF
:103420000BE1786804F07CF802463B681B8AD21AEC
:1034300042F2EE23C2F201031B889A4240F2FD8061
:103440003B684FF00B021A77F7E03B685B793A680C
:103450005279796802F116024FEA42128A185279BB
:1034600082F00102D2B2796803F116034FEA4313E6
:10347000CB185A713B6899683B689B89DAB23B6804
:103480005B79786804F01EFD3B684FF006021A77FE
:10349000DAE03B685B797868194604F053F8034634
:1034A000BB73BB7B012B04D13B684FF007021A773B
:1034B000C5E0BB7B042B04D13B685A783B681A708B
:1034C000BDE0BB7B022B04D13B684FF005021A77AD
:1034D000B5E0BB7B032B40F0B2803B684FF00B02A2
:1034E0001A77ACE03B681B7978684FF000014FF029
:1034F000000204F049FD3B684FF008021A77A3E090
:103500003B681B797868194604F01CF80346BB73C6
:10351000BB7B012B04D13B685A783B681A7090E062
:10352000BB7B032B04D13B684FF00B021A7788E07A
:10353000786803F0F5FF02463B681B8AD21A42F214
:10354000EE23C2F201031B889A4204D93B684FF074
:103550000B021A7775E0BB7B042B72D13B685A785B
:103560003B681A703B684FF004029A744FF00303F3
:10357000FB7366E03B685B793A685279796802F1DF
:1035800016024FEA42128A18527982F00102D2B230
:10359000796803F116034FEA4313CB185A713B685D
:1035A0005B7978684FF000014FF0000204F08AFC6C
:1035B0003B684FF00A021A7746E03B685B7978680F
:1035C000194603F0BFFF0346BB73BB7B012B04D13D
:1035D0003B685A783B681A7035E0BB7B022B04D1FC
:1035E0003B684FF009021A772DE0BB7B032B2AD1F1
:1035F0003B684FF00B021A7725E03B689B7B03F199
:103600000103DAB23B689A733B689B7B022B04D8B8
:103610003B684FF001021A7716E03B684FF0080252
:103620009A743B685A783B681A704FF00203FB7338
:103630000AE000BF08E000BF06E000BF04E000BFF2
:1036400002E000BF00E000BFFB7B184607F1100757
:10365000BD4680BD80B483B000AF4FF0FF337B60C8
:103660007B68184607F10C07BD4680BC704700BF59
:1036700080B483B000AF4FF0FF337B607B681846A7
:1036800007F10C07BD4680BC704700BF80B487B00F
:1036900000AFF860B9601346FB714FF0FF337B61F8
:1036A0007B69184607F11C07BD4680BC704700BF08
:1036B00080B487B000AFF860B9601346FB714FF07B
:1036C000FF337B617B69184607F11C07BD4680BC50
:1036D000704700BF80B485B000AF03463960FB710E
:1036E0004FF0FF33FB60FB68184607F11407BD4637
:1036F00080BC704780B487B000AF786039604FF00D
:1037000000037B614FF000033B614FF00003FB605F
:103710004FF000037B6186E07B694FF0010202FA03
:1037200003F33B613B681A683B691340FB60FA682E
:103730003B699A4273D17B681A687B694FEA4303FD
:103740004FF0030101FA03F36FEA03031A407B68A9
:103750001A607B681A683B681B7919467B694FEAD7
:10376000430301FA03F31A437B681A603B681B7931
:10377000012B03D03B681B79022B34D17B689A68FC
:103780007B694FEA43034FF0030101FA03F36FEA49
:1037900003031A407B689A607B689A683B685B7990
:1037A00019467B694FEA430301FA03F31A437B6826
:1037B0009A607B685A687B699BB24FF0010101FAFD
:1037C00003F36FEA03031A407B685A607B685A6808
:1037D0003B689B7919467B699BB201FA03F39BB264
:1037E0001A437B685A607B68DA687B699BB24FEA50
:1037F00043034FF0030101FA03F36FEA03031A4096
:103800007B68DA607B68DA683B68DB7919467B693C
:103810004FEA430301FA03F31A437B68DA607B69DA
:1038200003F101037B617B690F2B7FF675AF07F115
:103830001C07BD4680BC704780B483B000AF786081
:103840000B467B807B687A881A8307F10C07BD469C
:1038500080BC704780B483B000AF78600B467B803B
:103860007B687A885A8307F10C07BD4680BC704795
:1038700080B485B000AF786013460A467A807B70CA
:103880004FF00003FB604FF00003BB607A787B8849
:1038900003F007034FEA830302FA03F3FB607B881C
:1038A0004FEAD3039BB21A467B884FEAD3039BB2FD
:1038B00019467B6801F1080153F821107B8803F059
:1038C00007034FEA83034FF00F0000FA03F36FEA98
:1038D000030319407B6802F1080243F822107B8839
:1038E0004FEAD3039BB21A467B6802F1080253F8F1
:1038F0002220FB681343BB607B884FEAD3039BB253
:103900001A467B6802F10802B96843F8221007F1F1
:103910001407BD4680BC704780B582B000AF4FF041
:10392000FF337B6042F21050C2F2010003F0EAFD67
:103930000346002B0AD042F20C53C2F201031B785B
:10394000062B03D14FF000037B6002E04FF0FF3302
:103950007B607B68184607F10807BD4680BD00BF45
:1039600080B582B000AF4FF0FF337B6042F2105061
:10397000C2F2010003F0C6FD0346002B0AD042F25A
:103980000C53C2F201031B78062B03D14FF0000346
:103990007B6002E04FF0FF337B607B68184607F1E5
:1039A0000807BD4680BD00BF80B586B000AFF86097
:1039B000B9601346FB714FF0FF337B614FF000039A
:1039C000FB7442F21050C2F2010003F09BFD03466B
:1039D000002B2DD042F20C53C2F201031B78062BB0
:1039E00026D1FB794FEA432342F21050C2F2010084
:1039F000F968BA6800F01AFD0346FB7442F21050F1
:103A0000C2F2010042F6C011C2F2010103F01CFE35
:103A100042F21050C2F2010003F074FD0346002B85
:103A200002D14FF00103FB74FB7C032BD9D002E0E1
:103A30004FF00103FB74FB7C002B03D14FF000031C
:103A40007B6102E04FF0FF337B617B69184607F131
:103A50001807BD4680BD00BF80B586B000AFF860D6
:103A6000B9601346FB714FF0FF337B614FF00003E9
:103A7000FB7442F21050C2F2010003F043FD034612
:103A8000002B2DD042F20C53C2F201031B78062BFF
:103A900026D1FB794FEA432342F21050C2F20100D3
:103AA000F968BA6800F0E8FB0346FB7442F2105074
:103AB000C2F2010042F6C011C2F2010103F0C4FDDE
:103AC00042F21050C2F2010003F01CFD0346002B2D
:103AD00002D14FF00103FB74FB7C032BD9D002E031
:103AE0004FF00103FB74FB7C002B03D14FF000036C
:103AF0007B6102E04FF0FF337B617B69184607F181
:103B00001807BD4680BD00BF80B485B000AF034636
:103B10003960FB714FF00003FB60FB79032B2AD85F
:103B200001A252F823F000BF6F3B0008393B0008A8
:103B30004F3B00085F3B000842F69843C2F2010386
:103B40001A683B681A604FF00003FB6013E03B68A3
:103B50004FF400721A804FF00003FB600BE03B68EB
:103B60004FF400721A604FF00003FB6003E04FF067
:103B70000003FB6000BFFB68184607F11407BD4651
:103B800080BC704780B584B000AF78604FF003030D
:103B9000BB73786803F0B6FC0346002B00F0A980E5
:103BA00042F6B863C2F20103DB78012B02D0022B8C
:103BB00067D09CE042F6C863C2F201034FF00002F6
:103BC0009A6042F6C863C2F201034FF000021A7312
:103BD00042F6C863C2F201034FF006029A7342F63E
:103BE000B863C2F2010342F6A862C2F201029A600F
:103BF00042F6B863C2F201034FF03F029A8142F6E7
:103C0000B863C2F201034FF003029A704FF0100341
:103C1000FB730CE0FA7B42F6C863C2F201039B1807
:103C20004FF00002DA73FB7B03F1FF33FB73FB7B86
:103C3000002BEFD142F6C863C2F201034FF000023D
:103C4000DA7342F6B863C2F201034FF001021A714F
:103C500042F6B863C2F201034FF007021A7042F64F
:103C6000B863C2F201034FF00302DA7342F6B8639D
:103C7000C2F201034FF00202DA704FF00303BB738C
:103C800037E042F6B863C2F20103DB7B002B0AD1B6
:103C900042F6B863C2F201034FF00102DA704FF04E
:103CA0000003BB7324E042F6B863C2F20103DB7B7E
:103CB000012B0AD142F6B863C2F201034FF00102B0
:103CC000DA704FF00103BB7312E042F6B863C2F240
:103CD0000103DB7B022B0BD142F6B863C2F2010376
:103CE0004FF00102DA704FF00203BB7300E000E016
:103CF00000BFBB7B184607F11007BD4680BD00BF63
:103D000080B584B000AF78604FF00303BB73786870
:103D100003F0F8FB0346002B00F0CF8042F6B863B7
:103D2000C2F20103DB78012B02D0022B60D0C2E08B
:103D300042F6C863C2F201034FF008029A6042F6ED
:103D4000C863C2F201034FF080021A7342F6C863DF
:103D5000C2F201034FF00A029A7342F6B863C2F24C
:103D6000010342F69822C2F201029A6042F6B86359
:103D7000C2F201034FF004029A704FF01003FB737C
:103D80000CE0FA7B42F6C863C2F201039B184FF0C5
:103D90000002DA73FB7B03F1FF33FB73FB7B002B29
:103DA000EFD142F6C863C2F201034FF02502DA7385
:103DB00042F6B863C2F201034FF001021A7142F6F3
:103DC000B863C2F201034FF007021A7042F6B863FB
:103DD000C2F201034FF00302DA7342F6B863C2F293
:103DE00001034FF00202DA704FF00303BB7364E08B
:103DF00042F6B863C2F20103DB7B002B37D1324AB3
:103E000042F69823C2F201031B7813702F4A42F640
:103E10009823C2F201035B7813702D4A42F698236F
:103E2000C2F201039B78137042F69843C2F2010379
:103E300042F69822C2F20102D2781A70254A42F65E
:103E40009823C2F201039B791370234A42F6982308
:103E5000C2F20103DB79137042F6B863C2F20103C8
:103E60004FF00102DA704FF00003BB7324E042F61A
:103E7000B863C2F20103DB7B012B0AD142F6B863BF
:103E8000C2F201034FF00102DA704FF00103BB737D
:103E900012E042F6B863C2F20103DB7B022B0BD1C6
:103EA00042F6B863C2F201034FF00102DA704FF03C
:103EB0000203BB7300E000E000BFBB7B184607F1C4
:103EC0001007BD4680BD00BF9B2C01209A2C01200D
:103ED000992C0120A12C0120A02C012080B584B0B8
:103EE00000AF78604FF00303BB73786803F00AFB00
:103EF0000346002B00F0C88042F6B863C2F201030B
:103F0000DB78012B02D0022B6ED0BBE042F6C863F7
:103F1000C2F201034FF03F029A6042F6C863C2F258
:103F200001034FF080021A7342F6C863C2F2010324
:103F30004FF00A029A7342F6B863C2F2010342F6E6
:103F40009822C2F201029A6042F6B863C2F20103FB
:103F50004FF005029A704FF01003FB730CE0FA7BF0
:103F600042F6C863C2F201039B184FF00002DA73F5
:103F7000FB7B03F1FF33FB73FB7B002BEFD142F69E
:103F8000C863C2F201034FF01A02DA7342F6C86343
:103F9000C2F201034FF03F025A7442F6C863C2F204
:103FA00001034FF03F02DA7442F6B863C2F2010334
:103FB0004FF001021A7142F6B863C2F201034FF0EA
:103FC00007021A7042F6B863C2F201034FF003020F
:103FD000DA7342F6B863C2F201034FF00202DA70FC
:103FE0004FF00303BB734FE042F6B863C2F2010324
:103FF000DB7B002B22D142F69823C2F201039B788F
:10400000DBB25BB2002B07DA42F69843C2F201033F
:104010004FF001021A7306E042F69843C2F2010320
:104020004FF000021A7342F6B863C2F201034FF078
:104030000102DA704FF00003BB7324E042F6B8636C
:10404000C2F20103DB7B012B0AD142F6B863C2F254
:1040500001034FF00102DA704FF00103BB7312E06D
:1040600042F6B863C2F20103DB7B022B0BD142F6AE
:10407000B863C2F201034FF00102DA704FF002039D
:10408000BB7300E000E000BFBB7B184607F11007E0
:10409000BD4680BD80B584B000AF78604FF00303AB
:1040A000FB73786803F02EFA0346002B00F0D680ED
:1040B00042F6B863C2F20103DB78012B02D0022B77
:1040C00078D0C9E042F6C863C2F201034FF03F0264
:1040D0009A6042F6C863C2F201034FF080021A737D
:1040E00042F6C863C2F201034FF00A029A7342F625
:1040F000B863C2F2010342F69822C2F201029A604A
:1041000042F6B863C2F201039A7842F6B863C2F28B
:1041100001035A7042F6B863C2F201034FF006027F
:104120009A704FF01003BB730CE0BA7B42F6C86381
:10413000C2F201039B184FF00002DA73BB7B03F15C
:10414000FF33BB73BB7B002BEFD142F6C863C2F2D7
:1041500001034FF00302DA7342F6C863C2F20103AF
:104160004FF000021A7442F6C863C2F201034FF026
:104170003F02DA7442F6B863C2F201034FF0010263
:104180001A7142F6B863C2F201034FF007021A70C7
:1041900042F6B863C2F201034FF00302DA7342F64B
:1041A000B863C2F201034FF00202DA704FF003036A
:1041B000FB7353E042F6B863C2F20103DB7B002BD2
:1041C00026D1294A42F69823C2F201031B781370C4
:1041D000264A42F69823C2F201035B781370244A00
:1041E00042F69823C2F201039B781370214A42F6EB
:1041F0009823C2F20103DB78137042F6B863C2F26F
:1042000001034FF00102DA704FF00003FB7324E06A
:1042100042F6B863C2F20103DB7B012B0AD142F6FE
:10422000B863C2F201034FF00102DA704FF00103EC
:10423000FB7312E042F6B863C2F20103DB7B022B90
:104240000BD142F6B863C2F201034FF00102DA70FB
:104250004FF00203FB7300E000E000BFFB7B184659
:1042600007F11007BD4680BD9F2C01209E2C012028
:104270009D2C01209C2C012080B586B000AFF860F9
:10428000B9607A603B604FF00303BB75F86803F0D8
:1042900039F90346002B00F0C28042F6B863C2F23F
:1042A0000103DB78012B03D0022B00F08380B4E004
:1042B00042F6C863C2F201033A689A6042F6C863E4
:1042C000C2F201034FF000021A7342F6C863C2F251
:1042D00001034FF00A029A7342F6B863C2F2010377
:1042E000BA689A604FF01003FB750CE0FA7D42F655
:1042F000C863C2F201039B184FF00002DA73FB7D22
:1043000003F1FF33FB75FB7D002BEFD142F6C86351
:10431000C2F201034FF02A02DA73FA7942F6C86357
:10432000C2F201035A74BA7942F6C863C2F20103B9
:104330009A747A7942F6C863C2F20103DA7407F11B
:1043400004031A7842F6C863C2F201031A753B6887
:104350004FEA53239BB2BB827A7D42F6C863C2F216
:1043600001039A7507F114031A7842F6C863C2F282
:104370000103DA7542F6B863C2F201034FF001029D
:104380001A7142F6B863C2F201034FF007021A70C5
:1043900042F6B863C2F201034FF00302DA7342F649
:1043A000B863C2F201034FF00202DA704FF0030368
:1043B000BB7534E042F6B863C2F20103DB7B002B2D
:1043C0000AD142F6B863C2F201034FF00102DA707B
:1043D0004FF00003BB7521E042F6B863C2F201035F
:1043E000DB7B012B07D142F6B863C2F201034FF029
:1043F0000102DA7012E042F6B863C2F20103DB7B1D
:10440000022B0BD142F6B863C2F201034FF0010256
:10441000DA704FF00203BB7500E000E000BFBB7D27
:10442000184607F11807BD4680BD00BF80B586B0AD
:1044300000AFF860B9607A603B6040F26C03C2F292
:1044400000034FF003021A70F86803F05BF80346AC
:10445000002B00F0DB8042F6B863C2F20103DB7888
:10446000012B03D0022B00F08780CDE042F6C86319
:10447000C2F201033A689A6042F6C863C2F20103CD
:104480004FF080021A7342F6C863C2F201034FF084
:104490000A029A7342F6B863C2F20103BA689A60DC
:1044A0004FF01003FB750CE0FA7D42F6C863C2F2D0
:1044B00001039B184FF00002DA73FB7D03F1FF3319
:1044C000FB75FB7D002BEFD142F6C863C2F20103FE
:1044D0004FF02802DA73FA7942F6C863C2F2010398
:1044E0005A74BA7942F6C863C2F201039A747A79AF
:1044F00042F6C863C2F20103DA7407F104031A78C2
:1045000042F6C863C2F201031A753B684FEA5323AF
:104510009BB2BB827A7D42F6C863C2F201039A75F0
:1045200007F114031A7842F6C863C2F20103DA7580
:1045300042F6B863C2F201034FF001021A7142F66B
:10454000B863C2F201034FF007021A7042F6B86373
:10455000C2F201034FF00302DA7342F6B863C2F20B
:1045600001034FF00202DA7040F26C03C2F2000362
:104570004FF003021A7049E042F6B863C2F2010339
:10458000DB7B002B14D1F86802F0BCFF0346002B44
:104590000ED042F6B863C2F201034FF00102DA70A6
:1045A00040F26C03C2F200034FF000021A702AE0DE
:1045B00042F6B863C2F20103DB7B012B0DD1F86830
:1045C00002F0A0FF0346002B07D042F6B863C2F208
:1045D00001034FF00102DA7015E042F6B863C2F24F
:1045E0000103DB7B022B10D142F6B863C2F2010358
:1045F0004FF00102DA7040F26C03C2F200034FF098
:1046000002021A7001E000E000E000BF40F26C031B
:10461000C2F200031B78184607F11807BD4680BD9B
:1046200080B500AF4FF46053C4F202034FF4605200
:10463000C4F20202126842F001021A604FF46053A1
:10464000C4F202034FF000029A604FF46053C4F2C8
:1046500002034FF46052C4F20202126822F0847224
:1046600022F480321A604FF46053C4F2020343F222
:104670001002C2F200425A604FF46053C4F20203C7
:104680004FF46052C4F20202126822F480221A60CF
:104690004FF46053C4F202034FF00002DA6000F0FE
:1046A00009F84FF46D43CEF200034FF000629A60B8
:1046B00080BD00BF80B483B000AF4FF000037B60CB
:1046C0004FF000033B604FF46053C4F202034FF419
:1046D0006052C4F20202126842F480321A604FF44F
:1046E0006053C4F202031B6803F400333B607B6831
:1046F00003F101037B603B68002B03D17B68B3F5BA
:10470000C06FECD14FF46053C4F202031B6803F492
:104710000033002B03D04FF001033B6002E04FF069
:1047200000033B603B68012B40F082804FF46053F4
:10473000C4F202034FF46052C4F20202126C42F05F
:1047400080521A644FF4E043C4F200034FF4E04295
:10475000C4F20002126842F440421A604FF46053FF
:10476000C4F202034FF46052C4F2020292689A60EB
:104770004FF46053C4F202034FF46052C4F20202D9
:10478000926842F400429A604FF46053C4F202030C
:104790004FF46052C4F20202926842F4A0529A604E
:1047A0004FF46053C4F2020345F20842C0F2407273
:1047B0005A604FF46053C4F202034FF46052C4F2E3
:1047C0000202126842F080721A6000BF4FF4605318
:1047D000C4F202031B6803F00073002BF6D04FF401
:1047E0007053C4F2020340F205621A604FF4605342
:1047F000C4F202034FF46052C4F20202926822F043
:1048000003029A604FF46053C4F202034FF4605203
:10481000C4F20202926842F002029A6000BF4FF4B2
:104820006053C4F202039B6803F00C03082BF6D11B
:1048300007F10C07BD4680BC704700BF80B400AFD5
:10484000BD4680BC704700BF80B400AF42F20C533D
:10485000C2F201034FF001021A70BD4680BC7047DE
:1048600080B400AF42F20C53C2F201034FF00102D8
:104870001A70BD4680BC704780B400AF42F20C5342
:10488000C2F201034FF001021A70BD4680BC7047AE
:1048900080B400AFBD4680BC704700BF80B483B019
:1048A00000AF0346FB71FB79012B09D0FB79022B8A
:1048B00006D042F20C53C2F201034FF002021A700A
:1048C00007F10C07BD4680BC704700BF80B483B0C1
:1048D00000AF786007F10C07BD4680BC704700BF91
:1048E00080B400AFBD4680BC704700BF80B485B0C7
:1048F00000AFF860B9607A6007F11407BD4680BC6C
:10490000704700BF80B483B000AF786007F10C0738
:10491000BD4680BC704700BF80B483B000AF7860F4
:1049200007F10C07BD4680BC704700BF80B483B060
:1049300000AF786007F10C07BD4680BC704700BF30
:1049400080B400AFBD4680BC704700BF80B400AFEC
:1049500042F20C53C2F201034FF003021A70BD463B
:1049600080BC704780B400AF4FF001031846BD46CD
:1049700080BC704780B400AF42F20C53C2F2010316
:104980004FF005021A70BD4680BC704780B400AF7E
:1049900042F2F023C2F201031B78002B02D0012B5C
:1049A0001ED01CE042F20C53C2F201034FF006028B
:1049B0001A7042F69843C2F201031B7B012B06D109
:1049C00042F20C53C2F201034FF004021A7042F299
:1049D000F023C2F201034FF001021A7001E000E07F
:1049E00000BF4FF000031846BD4680BC704700BFB3
:1049F00080B400AF42F2F023C2F201034FF0000294
:104A00001A70BD4680BC704780B485B000AF0346C5
:104A10003960FB80FB887F2B02D8FB88FB8130E06C
:104A20003B68002B10D0FB88FF2B09D8FB88A3F133
:104A3000800249F23C73C0F6000333F8123001E003
:104A40004FF00003FB811CE04FF00003FB810DE001
:104A5000FA8949F23C73C0F6000333F81230FA8841
:104A60009A4207D0FB8903F10103FB81FB897F2B6D
:104A7000EED900E000BFFB8903F180039BB2DBB2FB
:104A8000FB81FB89184607F11407BD4680BC7047BF
:104A900080B485B000AF0346FB804FF00003FB609D
:104AA00003E0FB6803F10103FB6049F63C03C0F639
:104AB0000003FA6833F81230002B09D049F63C03A2
:104AC000C0F60003FA6833F81230FA889A42E8D147
:104AD00049F63C03C0F60003FA6833F81230002BA5
:104AE00007D049F61C23C0F60003FA6833F81230E9
:104AF00000E0FB88184607F11407BD4680BC7047EC
:104B000080B584B000AF78604FF001004FF0010134
:104B1000FDF796FC4FF4D053BB604FF003037B735B
:104B20004FF002033B734FF00003BB734FF00003E1
:104B3000FB7307F108034FF00000C4F202001946AE
:104B4000FEF7D8FD4FF00000C4F202004FF009015B
:104B50004FF00A02FEF78CFE4FF00000C4F2020094
:104B60004FF00B014FF00A02FEF782FE4FF00000FB
:104B7000C4F202004FF00C014FF00A02FEF778FE7B
:104B80004FF48063BB604FF00103BB734FF0010330
:104B9000FB734FF003037B7307F108034FF0000032
:104BA000C4F202001946FEF7A5FD4FF00000C4F262
:104BB00002004FF00A014FF00A02FEF759FE4FF0D3
:104BC00080004FF00101FDF765FC07F11007BD46BD
:104BD00080BD00BF80B584B000AF78604FF4C06086
:104BE00003F0DAFA4FF043033B734FF001037B739A
:104BF0004FF00103BB734FF00103FB7307F10C038C
:104C0000184603F0DDFA07F11007BD4680BD00BF6E
:104C100080B582B000AF78600B46FB70FB78002B4C
:104C200008D14FF40060C4F202004FF00101FEF71A
:104C300003FE07E04FF40060C4F202004FF00101F0
:104C4000FEF708FE07F10807BD4680BD80B584B0B9
:104C500000AF78604FF004004FF00101FDF7F0FB6A
:104C60004FF00103BB604FF003037B734FF0010370
:104C70003B734FF00003BB734FF00003FB7307F16E
:104C800008034FF40060C4F202001946FEF732FD3B
:104C90004FF40060C4F202004FF00101FEF7CCFDBA
:104CA0004FF0C80000F030F807F11007BD4680BD96
:104CB00080B485B000AF78604FF00003BB607A68C5
:104CC00013464FEA03139B1A4FEAC3031A4644F6EE
:104CD0002513C2F29243A3FB0213D21A4FEA5202E7
:104CE0009B184FEA9303FB6000E000BFBB6803F131
:104CF0000103BB60FA689342F7D900BF07F11407BC
:104D0000BD4680BC704700BF80B582B000AF786000
:104D10007B684FF47A7202FB03F31846FFF7C8FF73
:104D200007F10807BD4680BD80B500AF42F21050C4
:104D3000C2F2010003F0B6FA80BD00BF80B483B0B8
:104D400000AF4FF0FF337B607B68184607F10C071C
:104D5000BD4680BC704700BF80B483B000AF4FF049
:104D6000FF337B607B68184607F10C07BD4680BCAB
:104D7000704700BF80B487B000AFF860B9601346D9
:104D8000FB714FF0FF337B617B69184607F11C070D
:104D9000BD4680BC704700BF80B487B000AFF860EC
:104DA000B9601346FB714FF0FF337B617B69184696
:104DB00007F11C07BD4680BC704700BF80B485B0BA
:104DC00000AF03463960FB714FF0FF33FB60FB68B7
:104DD000184607F11407BD4680BC704780B487B001
:104DE00000AFF860B9607A60FB687B61BB683B61CB
:104DF0000BE03B691A787B691A707B6903F1010348
:104E00007B613B6903F101033B617B68002B0CBFB5
:104E100000230123DBB27A6802F1FF327A60002BB3
:104E2000E7D107F11C07BD4680BC704780B487B04E
:104E300000AFF860B9607A60FB687B6107E0BB682F
:104E4000DAB27B691A707B6903F101037B617B68CD
:104E5000002B0CBF00230123DBB27A6802F1FF3282
:104E60007A60002BEBD107F11C07BD4680BC704770
:104E700080B489B000AFF860B9607A60FB68FB610C
:104E8000BB68BB614FF000037B6100BF7B68002BF8
:104E90000CBF00230123DBB27A6802F1FF327A6093
:104EA000002B16D0FB691B781A46BB691B78D31AF6
:104EB0007B617B69002B14BF00230123DBB2FA69FD
:104EC00002F10102FA61BA6902F10102BA61002B32
:104ED000DCD17B69184607F12407BD4680BC7047CA
:104EE00080B483B000AF7860396003E07B6803F181
:104EF00001037B607B681B78002B05D07B681B78E7
:104F00001A463B689A42F1D17B681B78184607F134
:104F10000C07BD4680BC704780B584B000AF786098
:104F20007B681B79002B41D07B681B6BFB607B6827
:104F30005A787B6803F1340310461946FA684FF03B
:104F40000103FCF7CFFF0346002B02D04FF0010313
:104F50002EE07B684FF000021A717B685A6AFB688A
:104F60009A4223D87B685A6A7B68DB69D218FB684F
:104F70009A421BD97B68DB78BB6014E07B68DB69F5
:104F8000FA68D318FB607B685A787B6803F13403B6
:104F900010461946FA684FF00103FCF7A3FFBB68FF
:104FA00003F1FF33BB60BB68012BE7D84FF0000370
:104FB000184607F11007BD4680BD00BF80B582B01E
:104FC00000AF786039607B681A6B3B689A421DD0ED
:104FD0007868FFF7A1FF0346002B02D04FF00103D2
:104FE00016E07B685A787B6803F134031046194653
:104FF0003A684FF00103FCF725FF0346002B02D06F
:105000004FF0010304E07B683A681A634FF0000335
:10501000184607F10807BD4680BD00BF80B584B0C3
:1050200000AF78607868FFF777FF0346FB73FB7B80
:10503000002B40F0AB807B681B78032B40F09780FF
:105040007B685B79002B00F092807B684FF0000258
:105050001A637B6803F1340318464FF000014FF4E4
:105060000072FFF7E3FE7B684FF0550283F83222AF
:105070007B684FF0AA0283F833227B684FF052021C
:1050800083F834207B684FF0520283F835207B6828
:105090004FF0610283F836207B684FF0410283F8BD
:1050A00037207B684FF0720283F818227B684FF03C
:1050B000720283F819227B684FF0410283F81A22AA
:1050C0007B684FF0610283F81B227B681B69DAB2B0
:1050D0007B6883F81C227B681B699BB24FEA132311
:1050E0009BB2DAB27B6883F81D227B681B694FEAAA
:1050F0001343DAB27B6883F81E227B681B694FEA90
:105100001363DAB27B6883F81F227B68DB68DAB24C
:105110007B6883F820227B68DB689BB24FEA13230D
:105120009BB2DAB27B6883F821227B68DB684FEAA6
:105130001343DAB27B6883F822227B68DB684FEA8C
:105140001363DAB27B6883F823227B6859787B6823
:1051500003F134027B685B69084611461A464FF03A
:105160000103FCF7BFFE7B684FF000025A717B68B9
:105170005B7818464FF000014FF00002FCF702FF89
:105180000346002B02D04FF00103FB73FB7B184654
:1051900007F11007BD4680BD80B483B000AF7860D2
:1051A00039603B68A3F102033B607B689B69A3F114
:1051B00002023B689A4202D84FF0000307E07B6886
:1051C0009B783A6802FB03F27B68DB6AD3181846C7
:1051D00007F10C07BD4680BC704700BF80B586B0A4
:1051E00000AF786039603B68012B04D97B689A690D
:1051F0003B689A4202D84FF00103BCE07B681B7801
:10520000022B52D0032B78D0012B40F0B2803B68A8
:105210007B617B694FEA53037A69D3187B617B68B2
:105220005A6A7B694FEA5323D31878681946FFF707
:10523000C5FE0346002B40F095807B694FEAC353BF
:105240004FEAD3537A68D31893F834303B617B69C3
:1052500003F101037B617B685A6A7B694FEA532340
:10526000D31878681946FFF7A9FE0346002B7BD1B7
:105270007B694FEAC3534FEAD3537A68D31893F844
:1052800034304FEA03233A6913433B613B6803F030
:105290000103002B03D03B694FEA131304E03B6981
:1052A0004FEA03534FEA135365E07B685A6A3B6841
:1052B0004FEA1323D31878681946FFF77FFE034699
:1052C000002B53D13B684FEA43034FEAC3534FEAE5
:1052D000D35303F130037A68D31803F10403FB605E
:1052E000FB6803F101031B784FEA03239AB2FB68C2
:1052F0001B7813439BB29BB23DE07B685A6A3B68C4
:105300004FEAD313D31878681946FFF757FE0346C0
:10531000002B2DD13B684FEA83034FEAC3534FEA7A
:10532000D35303F130037A68D31803F10403FB600D
:10533000FB6803F103031B784FEA0362FB6803F188
:1053400002031B784FEA03431A43FB6803F101038E
:105350001B784FEA03231A43FB681B78134323F09F
:10536000704308E000BF04E000BF02E000BF00E0BF
:1053700000BF4FF0FF33184607F11807BD4680BD48
:1053800080B588B000AFF860B9607A60BB68012B67
:1053900004D9FB689A69BB689A4203D84FF00203AC
:1053A000FB771AE1FB681B78022B00F08380032B4C
:1053B00000F0AC80012B40F00181BB68BB61BB6990
:1053C0004FEA5303BA69D318BB61FB685A6ABB69D9
:1053D0004FEA5323D318F8681946FFF7EFFD034649
:1053E000FB77FB7F002B40F0ED80BB694FEAC35396
:1053F0004FEAD35303F13003FA68D31803F10403DF
:105400007B61BB6803F00103002B0ED07B691B7826
:10541000DBB203F00F03DAB27B68DBB24FEA0313AF
:10542000DBB21343DBB2DBB201E07B68DBB27A694B
:105430001370BB6903F10103BB61FB684FF001020C
:105440001A71FB685A6ABB694FEA5323D318F8688C
:105450001946FFF7B3FD0346FB77FB7F002B40F0B7
:10546000B380BB694FEAC3534FEAD35303F1300310
:10547000FA68D31803F104037B61BB6803F00103EE
:10548000002B04D07B684FEA1313DBB20FE07B697B
:105490001B78DBB223F00F03DAB27B684FEA1323E9
:1054A000DBB203F00F03DBB21343DBB2DBB27A698A
:1054B00013708EE0FB685A6ABB684FEA1323D31857
:1054C000F8681946FFF77AFD0346FB77FB7F002B50
:1054D0007CD1BB684FEA43034FEAC3534FEAD3532F
:1054E00003F13003FA68D31803F104037B617B688E
:1054F000DAB27B691A707B6903F101037A6892B2B0
:105500004FEA122292B2D2B21A7062E0FB685A6A73
:10551000BB684FEAD313D318F8681946FFF74EFD5E
:105520000346FB77FB7F002B52D1BB684FEA830316
:105530004FEAC3534FEAD35303F13003FA68D31849
:1055400003F104037B617B6903F103031B784FEADA
:1055500003627B6903F102031B784FEA03431A439A
:105560007B6903F101031B784FEA03231A437B692C
:105570001B78134303F070437A6813437B607B68A6
:10558000DAB27B691A707B6903F101037A6892B21F
:105590004FEA122292B2D2B21A707B6903F102036F
:1055A0007A684FEA1242D2B21A707B6903F10303A0
:1055B0007A684FEA1262D2B21A700AE04FF0020320
:1055C000FB7706E000BF04E000BF02E000BF00E0A0
:1055D00000BFFB684FF001021A71FB7F184607F10C
:1055E0002007BD4680BD00BF80B584B000AF7860A5
:1055F00039603B68012B04D97B689A693B689A4201
:1056000003D84FF00203FB733FE04FF00003FB733E
:1056100032E078683968FFF7E1FDB860BB68002BBD
:1056200030D0BB68012B03D14FF00203FB732CE099
:10563000BB68B3F1FF3F03D14FF00103FB7324E0DC
:10564000786839684FF00002FFF79AFE0346FB7353
:10565000FB7B002B18D17B681B69B3F1FF3F09D09E
:105660007B681B6903F101027B681A617B684FF05C
:1056700001025A71BB683B607B689A693B689A4239
:10568000C7D802E000BF00E000BFFB7B184607F16F
:105690001007BD4680BD00BF80B586B000AF786002
:1056A00039603B68002B0ED17B68DB683B613B694E
:1056B000002B04D07B689A693B699A4217D84FF057
:1056C00001033B6113E078683968FFF787FDB86034
:1056D000BB68012B02D84FF001036DE07B689A692B
:1056E000BB689A4201D9BB6866E03B683B613B6995
:1056F0007B6100E000BF7B6903F101037B617B6894
:105700009A697B699A4209D84FF002037B617A69F2
:105710003B699A4202D94FF000034DE078687969FD
:10572000FFF75CFDB860BB68002B0FD0BB68B3F11E
:10573000FF3F02D0BB68012B01D1BB683CE07A6916
:105740003B699A42D6D14FF0000335E000BF78683C
:1057500079696FF07042FFF713FE0346FB73FB7B22
:10576000002B09D13B68002B06D0786839687A692C
:10577000FFF706FE0346FB73FB7B002B12D17B6811
:105780007A69DA607B681B69B3F1FF3F13D07B68ED
:105790001B6903F1FF327B681A617B684FF00102DD
:1057A0005A7108E0FB7B012B02D14FF0FF3301E07F
:1057B0004FF001037B617B69184607F11807BD466E
:1057C00080BD00BF80B584B000AF78600B467B80A1
:1057D0007B687A88DA807B689B68FB60FB68012BBA
:1057E00005D07B681B689A69FB689A4202D84FF023
:1057F00002036FE0FB68002B08D17B681B681B78F5
:10580000032B03D17B681B689B6AFB60FB68002B42
:1058100016D17B68FA68DA607B681B681B897A8816
:105820009A4202D34FF0020354E07B681B689A6AE5
:105830007B884FEA13139BB2D2187B681A6139E058
:105840007B681B689B784FEA03137B811DE07B68B4
:105850001B681846F968FFF7C1FCF860FB68B3F1F4
:10586000FF3F02D14FF0010334E0FB68012B05D963
:105870007B681B689A69FB689A4202D84FF0020362
:1058800028E07A887B89D31A7B807A887B899A4240
:10589000DDD27B68FA68DA607B681B681846F968B5
:1058A000FFF77AFC02467B884FEA13139BB2D218AB
:1058B0007B681A617B681A687B8803F00F034FEAE4
:1058C000431303F13003D31803F104027B685A61D8
:1058D0004FF00003184607F11007BD4680BD00BF1A
:1058E00090B585B000AF786039607B68DB8803F1E4
:1058F00001033B813B89002B03D07B681B69002B94
:1059000002D14FF00403D1E03B8903F00F039BB2B7
:10591000002B40F0B8807B681B6903F101027B68B3
:105920001A617B68DB68002B09D17B681B681B89C7
:105930003A899A42C0F0A7804FF00403B6E03B8951
:105940004FEA13139BB21A467B681B689B7803F1DE
:10595000FF331340002B40F096807B681A687B6809
:10596000DB6810461946FFF739FCF860FB68012B2D
:1059700002D84FF0020399E0FB68B3F1FF3F02D178
:105980004FF0010392E07B681B689A69FB689A42BA
:105990006DD83B68002B02D14FF0040386E07B6892
:1059A0001A687B68DB6810461946FFF775FEF860D9
:1059B000FB68002B02D14FF0070377E0FB68012B57
:1059C00002D14FF0020371E0FB68B3F1FF3F02D157
:1059D0004FF001036AE07B681B681846FFF79CFAEA
:1059E0000346002B02D04FF001035FE07B681B6889
:1059F00003F1340318464FF000014FF40072FFF733
:105A000015FA7B681C687B681B681846F968FFF705
:105A1000C3FB034623634FF00003FB7219E07B686E
:105A20001B684FF001021A717B681B681846FFF76C
:105A300073FA0346002B02D04FF0010336E07B6877
:105A40001B681A6B02F101021A63FB7A03F101036E
:105A5000FB727B681B689B78FA7A9A42DFD37B687B
:105A60001B687A681268116BFA7A8A1A1A637B6863
:105A7000FA68DA607B681B681846F968FFF78CFBE8
:105A800002467B681A617B683A89DA807B681A680B
:105A90003B8903F00F034FEA431303F13003D3189C
:105AA00003F104027B685A614FF00003184607F1C6
:105AB0001407BD4690BD00BF80B485B000AF7860CC
:105AC00039603B6803F11B031B784FEA03239AB24A
:105AD0003B6803F11A031B7813439BB29BB2FB6034
